{
  "address": "0xeF4F2E36c03e4FD5c9caB1C1f6522AeB3Eb19c01",
  "abi": [
    {
      "inputs": [
        {
          "internalType": "string",
          "name": "_name",
          "type": "string"
        },
        {
          "internalType": "string",
          "name": "_schema",
          "type": "string"
        },
        {
          "internalType": "string",
          "name": "_metadataURI",
          "type": "string"
        }
      ],
      "stateMutability": "nonpayable",
      "type": "constructor"
    },
    {
      "inputs": [],
      "name": "AccessControlBadConfirmation",
      "type": "error"
    },
    {
      "inputs": [
        {
          "internalType": "address",
          "name": "account",
          "type": "address"
        },
        {
          "internalType": "bytes32",
          "name": "neededRole",
          "type": "bytes32"
        }
      ],
      "name": "AccessControlUnauthorizedAccount",
      "type": "error"
    },
    {
      "inputs": [
        {
          "internalType": "address",
          "name": "target",
          "type": "address"
        }
      ],
      "name": "AddressEmptyCode",
      "type": "error"
    },
    {
      "inputs": [
        {
          "internalType": "address",
          "name": "account",
          "type": "address"
        }
      ],
      "name": "AddressInsufficientBalance",
      "type": "error"
    },
    {
      "inputs": [],
      "name": "FailedInnerCall",
      "type": "error"
    },
    {
      "inputs": [],
      "name": "ReentrancyGuardReentrantCall",
      "type": "error"
    },
    {
      "inputs": [
        {
          "internalType": "address",
          "name": "token",
          "type": "address"
        }
      ],
      "name": "SafeERC20FailedOperation",
      "type": "error"
    },
    {
      "anonymous": false,
      "inputs": [
        {
          "indexed": true,
          "internalType": "address",
          "name": "from",
          "type": "address"
        },
        {
          "indexed": true,
          "internalType": "address",
          "name": "to",
          "type": "address"
        },
        {
          "indexed": false,
          "internalType": "uint256",
          "name": "amount",
          "type": "uint256"
        },
        {
          "indexed": false,
          "internalType": "address",
          "name": "token",
          "type": "address"
        },
        {
          "indexed": false,
          "internalType": "bytes",
          "name": "data",
          "type": "bytes"
        }
      ],
      "name": "Allocate",
      "type": "event"
    },
    {
      "anonymous": false,
      "inputs": [
        {
          "indexed": true,
          "internalType": "address",
          "name": "updater",
          "type": "address"
        },
        {
          "components": [
            {
              "internalType": "address",
              "name": "owner",
              "type": "address"
            },
            {
              "internalType": "address[]",
              "name": "admins",
              "type": "address[]"
            },
            {
              "internalType": "address",
              "name": "allocationToken",
              "type": "address"
            },
            {
              "internalType": "address",
              "name": "distributionToken",
              "type": "address"
            },
            {
              "internalType": "uint256",
              "name": "maxAmount",
              "type": "uint256"
            },
            {
              "internalType": "uint64[]",
              "name": "timestamps",
              "type": "uint64[]"
            },
            {
              "internalType": "string",
              "name": "metadataURI",
              "type": "string"
            }
          ],
          "indexed": false,
          "internalType": "struct PoolConfig",
          "name": "config",
          "type": "tuple"
        }
      ],
      "name": "Configure",
      "type": "event"
    },
    {
      "anonymous": false,
      "inputs": [
        {
          "indexed": false,
          "internalType": "string",
          "name": "name",
          "type": "string"
        },
        {
          "indexed": true,
          "internalType": "address",
          "name": "owner",
          "type": "address"
        },
        {
          "indexed": false,
          "internalType": "string",
          "name": "schema",
          "type": "string"
        },
        {
          "indexed": false,
          "internalType": "string",
          "name": "metadataURI",
          "type": "string"
        }
      ],
      "name": "Deployed",
      "type": "event"
    },
    {
      "anonymous": false,
      "inputs": [
        {
          "indexed": true,
          "internalType": "address",
          "name": "project",
          "type": "address"
        },
        {
          "indexed": true,
          "internalType": "address",
          "name": "owner",
          "type": "address"
        },
        {
          "indexed": false,
          "internalType": "string",
          "name": "metadataURI",
          "type": "string"
        },
        {
          "indexed": false,
          "internalType": "bytes",
          "name": "data",
          "type": "bytes"
        }
      ],
      "name": "Register",
      "type": "event"
    },
    {
      "anonymous": false,
      "inputs": [
        {
          "indexed": true,
          "internalType": "address",
          "name": "project",
          "type": "address"
        },
        {
          "indexed": false,
          "internalType": "uint8",
          "name": "status",
          "type": "uint8"
        },
        {
          "indexed": true,
          "internalType": "address",
          "name": "approver",
          "type": "address"
        },
        {
          "indexed": false,
          "internalType": "string",
          "name": "metadataURI",
          "type": "string"
        },
        {
          "indexed": false,
          "internalType": "bytes",
          "name": "data",
          "type": "bytes"
        }
      ],
      "name": "Review",
      "type": "event"
    },
    {
      "anonymous": false,
      "inputs": [
        {
          "indexed": true,
          "internalType": "bytes32",
          "name": "role",
          "type": "bytes32"
        },
        {
          "indexed": true,
          "internalType": "bytes32",
          "name": "previousAdminRole",
          "type": "bytes32"
        },
        {
          "indexed": true,
          "internalType": "bytes32",
          "name": "newAdminRole",
          "type": "bytes32"
        }
      ],
      "name": "RoleAdminChanged",
      "type": "event"
    },
    {
      "anonymous": false,
      "inputs": [
        {
          "indexed": true,
          "internalType": "bytes32",
          "name": "role",
          "type": "bytes32"
        },
        {
          "indexed": true,
          "internalType": "address",
          "name": "account",
          "type": "address"
        },
        {
          "indexed": true,
          "internalType": "address",
          "name": "sender",
          "type": "address"
        }
      ],
      "name": "RoleGranted",
      "type": "event"
    },
    {
      "anonymous": false,
      "inputs": [
        {
          "indexed": true,
          "internalType": "bytes32",
          "name": "role",
          "type": "bytes32"
        },
        {
          "indexed": true,
          "internalType": "address",
          "name": "account",
          "type": "address"
        },
        {
          "indexed": true,
          "internalType": "address",
          "name": "sender",
          "type": "address"
        }
      ],
      "name": "RoleRevoked",
      "type": "event"
    },
    {
      "anonymous": false,
      "inputs": [
        {
          "indexed": true,
          "internalType": "address",
          "name": "project",
          "type": "address"
        },
        {
          "indexed": true,
          "internalType": "address",
          "name": "updater",
          "type": "address"
        },
        {
          "indexed": false,
          "internalType": "string",
          "name": "metadataURI",
          "type": "string"
        },
        {
          "indexed": false,
          "internalType": "bytes",
          "name": "data",
          "type": "bytes"
        }
      ],
      "name": "Update",
      "type": "event"
    },
    {
      "inputs": [],
      "name": "ADMIN_ROLE",
      "outputs": [
        {
          "internalType": "bytes32",
          "name": "",
          "type": "bytes32"
        }
      ],
      "stateMutability": "view",
      "type": "function"
    },
    {
      "inputs": [],
      "name": "DEFAULT_ADMIN_ROLE",
      "outputs": [
        {
          "internalType": "bytes32",
          "name": "",
          "type": "bytes32"
        }
      ],
      "stateMutability": "view",
      "type": "function"
    },
    {
      "inputs": [
        {
          "internalType": "address[]",
          "name": "recipients",
          "type": "address[]"
        },
        {
          "internalType": "uint256[]",
          "name": "amounts",
          "type": "uint256[]"
        },
        {
          "internalType": "address",
          "name": "token",
          "type": "address"
        },
        {
          "internalType": "bytes[]",
          "name": "data",
          "type": "bytes[]"
        }
      ],
      "name": "allocate",
      "outputs": [],
      "stateMutability": "nonpayable",
      "type": "function"
    },
    {
      "inputs": [],
      "name": "config",
      "outputs": [
        {
          "internalType": "address",
          "name": "owner",
          "type": "address"
        },
        {
          "internalType": "address",
          "name": "allocationToken",
          "type": "address"
        },
        {
          "internalType": "address",
          "name": "distributionToken",
          "type": "address"
        },
        {
          "internalType": "uint256",
          "name": "maxAmount",
          "type": "uint256"
        },
        {
          "internalType": "string",
          "name": "metadataURI",
          "type": "string"
        }
      ],
      "stateMutability": "view",
      "type": "function"
    },
    {
      "inputs": [
        {
          "components": [
            {
              "internalType": "address",
              "name": "owner",
              "type": "address"
            },
            {
              "internalType": "address[]",
              "name": "admins",
              "type": "address[]"
            },
            {
              "internalType": "address",
              "name": "allocationToken",
              "type": "address"
            },
            {
              "internalType": "address",
              "name": "distributionToken",
              "type": "address"
            },
            {
              "internalType": "uint256",
              "name": "maxAmount",
              "type": "uint256"
            },
            {
              "internalType": "uint64[]",
              "name": "timestamps",
              "type": "uint64[]"
            },
            {
              "internalType": "string",
              "name": "metadataURI",
              "type": "string"
            }
          ],
          "internalType": "struct PoolConfig",
          "name": "_config",
          "type": "tuple"
        }
      ],
      "name": "configure",
      "outputs": [],
      "stateMutability": "nonpayable",
      "type": "function"
    },
    {
      "inputs": [
        {
          "internalType": "address[]",
          "name": "recipients",
          "type": "address[]"
        },
        {
          "internalType": "uint256[]",
          "name": "amounts",
          "type": "uint256[]"
        },
        {
          "internalType": "address",
          "name": "token",
          "type": "address"
        },
        {
          "internalType": "bytes[]",
          "name": "data",
          "type": "bytes[]"
        }
      ],
      "name": "distribute",
      "outputs": [],
      "stateMutability": "nonpayable",
      "type": "function"
    },
    {
      "inputs": [
        {
          "internalType": "address[]",
          "name": "recipients",
          "type": "address[]"
        },
        {
          "internalType": "uint256[]",
          "name": "amounts",
          "type": "uint256[]"
        },
        {
          "internalType": "bytes[]",
          "name": "data",
          "type": "bytes[]"
        }
      ],
      "name": "distribute",
      "outputs": [],
      "stateMutability": "nonpayable",
      "type": "function"
    },
    {
      "inputs": [],
      "name": "eas",
      "outputs": [
        {
          "internalType": "contract IEAS",
          "name": "",
          "type": "address"
        }
      ],
      "stateMutability": "view",
      "type": "function"
    },
    {
      "inputs": [
        {
          "internalType": "uint256",
          "name": "amount",
          "type": "uint256"
        }
      ],
      "name": "fund",
      "outputs": [],
      "stateMutability": "nonpayable",
      "type": "function"
    },
    {
      "inputs": [
        {
          "internalType": "bytes32",
          "name": "role",
          "type": "bytes32"
        }
      ],
      "name": "getRoleAdmin",
      "outputs": [
        {
          "internalType": "bytes32",
          "name": "",
          "type": "bytes32"
        }
      ],
      "stateMutability": "view",
      "type": "function"
    },
    {
      "inputs": [],
      "name": "getTotalDistributed",
      "outputs": [
        {
          "internalType": "uint256",
          "name": "",
          "type": "uint256"
        }
      ],
      "stateMutability": "view",
      "type": "function"
    },
    {
      "inputs": [],
      "name": "getTotalFunded",
      "outputs": [
        {
          "internalType": "uint256",
          "name": "",
          "type": "uint256"
        }
      ],
      "stateMutability": "view",
      "type": "function"
    },
    {
      "inputs": [
        {
          "internalType": "bytes32",
          "name": "role",
          "type": "bytes32"
        },
        {
          "internalType": "address",
          "name": "account",
          "type": "address"
        }
      ],
      "name": "grantRole",
      "outputs": [],
      "stateMutability": "nonpayable",
      "type": "function"
    },
    {
      "inputs": [
        {
          "internalType": "bytes32",
          "name": "role",
          "type": "bytes32"
        },
        {
          "internalType": "address",
          "name": "account",
          "type": "address"
        }
      ],
      "name": "hasRole",
      "outputs": [
        {
          "internalType": "bool",
          "name": "",
          "type": "bool"
        }
      ],
      "stateMutability": "view",
      "type": "function"
    },
    {
      "inputs": [
        {
          "components": [
            {
              "internalType": "address",
              "name": "owner",
              "type": "address"
            },
            {
              "internalType": "address[]",
              "name": "admins",
              "type": "address[]"
            },
            {
              "internalType": "address",
              "name": "allocationToken",
              "type": "address"
            },
            {
              "internalType": "address",
              "name": "distributionToken",
              "type": "address"
            },
            {
              "internalType": "uint256",
              "name": "maxAmount",
              "type": "uint256"
            },
            {
              "internalType": "uint64[]",
              "name": "timestamps",
              "type": "uint64[]"
            },
            {
              "internalType": "string",
              "name": "metadataURI",
              "type": "string"
            }
          ],
          "internalType": "struct PoolConfig",
          "name": "_config",
          "type": "tuple"
        },
        {
          "internalType": "bytes",
          "name": "data",
          "type": "bytes"
        }
      ],
      "name": "initialize",
      "outputs": [],
      "stateMutability": "nonpayable",
      "type": "function"
    },
    {
      "inputs": [],
      "name": "liquidate",
      "outputs": [],
      "stateMutability": "nonpayable",
      "type": "function"
    },
    {
      "inputs": [
        {
          "internalType": "address",
          "name": "project",
          "type": "address"
        },
        {
          "internalType": "string",
          "name": "metadataURI",
          "type": "string"
        },
        {
          "internalType": "bytes",
          "name": "data",
          "type": "bytes"
        }
      ],
      "name": "register",
      "outputs": [],
      "stateMutability": "nonpayable",
      "type": "function"
    },
    {
      "inputs": [
        {
          "internalType": "address",
          "name": "",
          "type": "address"
        }
      ],
      "name": "registrations",
      "outputs": [
        {
          "internalType": "enum IPool.Status",
          "name": "status",
          "type": "uint8"
        },
        {
          "internalType": "address",
          "name": "owner",
          "type": "address"
        },
        {
          "internalType": "string",
          "name": "metadataURI",
          "type": "string"
        },
        {
          "internalType": "bytes",
          "name": "data",
          "type": "bytes"
        }
      ],
      "stateMutability": "view",
      "type": "function"
    },
    {
      "inputs": [
        {
          "internalType": "bytes32",
          "name": "role",
          "type": "bytes32"
        },
        {
          "internalType": "address",
          "name": "callerConfirmation",
          "type": "address"
        }
      ],
      "name": "renounceRole",
      "outputs": [],
      "stateMutability": "nonpayable",
      "type": "function"
    },
    {
      "inputs": [
        {
          "internalType": "address",
          "name": "project",
          "type": "address"
        },
        {
          "internalType": "uint8",
          "name": "status",
          "type": "uint8"
        },
        {
          "internalType": "string",
          "name": "metadataURI",
          "type": "string"
        },
        {
          "internalType": "bytes",
          "name": "data",
          "type": "bytes"
        }
      ],
      "name": "review",
      "outputs": [],
      "stateMutability": "nonpayable",
      "type": "function"
    },
    {
      "inputs": [
        {
          "internalType": "bytes32",
          "name": "role",
          "type": "bytes32"
        },
        {
          "internalType": "address",
          "name": "account",
          "type": "address"
        }
      ],
      "name": "revokeRole",
      "outputs": [],
      "stateMutability": "nonpayable",
      "type": "function"
    },
    {
      "inputs": [],
      "name": "schema",
      "outputs": [
        {
          "internalType": "string",
          "name": "",
          "type": "string"
        }
      ],
      "stateMutability": "view",
      "type": "function"
    },
    {
      "inputs": [
        {
          "internalType": "bytes4",
          "name": "interfaceId",
          "type": "bytes4"
        }
      ],
      "name": "supportsInterface",
      "outputs": [
        {
          "internalType": "bool",
          "name": "",
          "type": "bool"
        }
      ],
      "stateMutability": "view",
      "type": "function"
    },
    {
      "inputs": [
        {
          "internalType": "address",
          "name": "project",
          "type": "address"
        },
        {
          "internalType": "string",
          "name": "metadataURI",
          "type": "string"
        },
        {
          "internalType": "bytes",
          "name": "data",
          "type": "bytes"
        }
      ],
      "name": "update",
      "outputs": [],
      "stateMutability": "nonpayable",
      "type": "function"
    }
  ],
  "transactionHash": "0x023e0b3da3352103eeb10526c7c972c93e7174a4ce882fcf71d04a9966677e16",
  "args": [
    "Silvi Verification Strategy",
    "address recipient, uint256 amount, bytes32 claimAttestationUID, bytes32 goalAttestationUID",
    ""
  ],
  "numDeployments": 3,
  "solcInputHash": "c11ead8b0d685f9f7b067c07822ac18f",
  "bytecode": "0x60806040526000600c556000600d553480156200001b57600080fd5b5060405162002d6d38038062002d6d8339810160408190526200003e9162000176565b828282336001600160a01b03167f72aeb8e4e073b2b6fc374bc9e1acd0b59d25c19bc96e662f34e973d1ad9ff9fc848484604051620000809392919062000235565b60405180910390a2600862000096838262000303565b50506001600b5550620003cf9350505050565b634e487b7160e01b600052604160045260246000fd5b60005b83811015620000dc578181015183820152602001620000c2565b50506000910152565b600082601f830112620000f757600080fd5b81516001600160401b0380821115620001145762000114620000a9565b604051601f8301601f19908116603f011681019082821181831017156200013f576200013f620000a9565b816040528381528660208588010111156200015957600080fd5b6200016c846020830160208901620000bf565b9695505050505050565b6000806000606084860312156200018c57600080fd5b83516001600160401b0380821115620001a457600080fd5b620001b287838801620000e5565b94506020860151915080821115620001c957600080fd5b620001d787838801620000e5565b93506040860151915080821115620001ee57600080fd5b50620001fd86828701620000e5565b9150509250925092565b6000815180845262000221816020860160208601620000bf565b601f01601f19169290920160200192915050565b6060815260006200024a606083018662000207565b82810360208401526200025e818662000207565b905082810360408401526200016c818562000207565b600181811c908216806200028957607f821691505b602082108103620002aa57634e487b7160e01b600052602260045260246000fd5b50919050565b601f821115620002fe57600081815260208120601f850160051c81016020861015620002d95750805b601f850160051c820191505b81811015620002fa57828155600101620002e5565b5050505b505050565b81516001600160401b038111156200031f576200031f620000a9565b620003378162000330845462000274565b84620002b0565b602080601f8311600181146200036f5760008415620003565750858301515b600019600386901b1c1916600185901b178555620002fa565b600085815260208120601f198616915b82811015620003a0578886015182559484019460019091019084016200037f565b5085821015620003bf5787850151600019600388901b60f8161c191681555b5050505050600190811b01905550565b61298e80620003df6000396000f3fe608060405234801561001057600080fd5b50600436106101585760003560e01c8063906b89c6116100c3578063b214c3d91161007c578063b214c3d9146102f7578063c922da54146102ff578063ca1d209d14610312578063d547741f14610325578063eede8aea14610338578063f8895cc81461034b57600080fd5b8063906b89c61461028057806391d1485414610293578063942e6bcf146102a657806394a68925146102c9578063a217fddf146102dc578063ab21f507146102e457600080fd5b8063580867751161011557806358086775146101ee578063747ffca21461020157806375b238fc1461021457806379502c5514610229578063805bfc47146102425780638150864d1461025557600080fd5b806301ffc9a71461015d578063248a9ca31461018557806328a07025146101b65780632f2ff15d146101c057806336568abe146101d35780635695fa58146101e6575b600080fd5b61017061016b366004611d0b565b610360565b60405190151581526020015b60405180910390f35b6101a8610193366004611d35565b6000908152600a602052604090206001015490565b60405190815260200161017c565b6101be610397565b005b6101be6101ce366004611d73565b610492565b6101be6101e1366004611d73565b6104bd565b600d546101a8565b6101be6101fc366004611e80565b6104f5565b6101be61020f366004612066565b610500565b6101a860008051602061293983398151915281565b61023161050c565b60405161017c959493929190612152565b6101be610250366004612198565b6105bf565b600e54610268906001600160a01b031681565b6040516001600160a01b03909116815260200161017c565b6101be61028e366004612215565b610653565b6101706102a1366004611d73565b61065f565b6102b96102b4366004612297565b61068a565b60405161017c94939291906122ca565b6101be6102d7366004612464565b6107d1565b6101a8600081565b6101be6102f23660046124a0565b61085a565b600c546101a8565b6101be61030d366004611e80565b610927565b6101be610320366004611d35565b610932565b6101be610333366004611d73565b610aee565b6101be610346366004612066565b610b13565b610353610b1f565b60405161017c9190612503565b60006001600160e01b03198216637965db0b60e01b148061039157506301ffc9a760e01b6001600160e01b03198316145b92915050565b60006103a281610bad565b6103aa610bb7565b6004546001600160a01b03166103db5760405162461bcd60e51b81526004016103d290612516565b60405180910390fd5b600480546040516370a0823160e01b815230928101929092526000916001600160a01b03909116906370a0823190602401602060405180830381865afa158015610429573d6000803e3d6000fd5b505050506040513d601f19601f8201168201806040525081019061044d9190612558565b905080156104845760045461046c906001600160a01b03163383610be1565b80600c600082825461047e9190612587565b90915550505b5061048f6001600b55565b50565b6000828152600a60205260409020600101546104ad81610bad565b6104b78383610c33565b50505050565b6001600160a01b03811633146104e65760405163334bd91960e11b815260040160405180910390fd5b6104f08282610cc7565b505050565b6104f0838383610d34565b6104b784848484610e98565b60018054600354600454600554600780546001600160a01b03958616969486169590931693919261053c9061259a565b80601f01602080910402602001604051908101604052809291908181526020018280546105689061259a565b80156105b55780601f1061058a576101008083540402835291602001916105b5565b820191906000526020600020905b81548152906001019060200180831161059857829003601f168201915b5050505050905085565b6000805160206129398339815191526105d781610bad565b6105df610bb7565b6004546105f990859085906001600160a01b031685610e98565b60005b845181101561064857838181518110610617576106176125d4565b6020026020010151600d600082825461063091906125ea565b90915550819050610640816125fd565b9150506105fc565b506104b76001600b55565b6104b784848484611239565b6000918252600a602090815260408084206001600160a01b0393909316845291905290205460ff1690565b6009602052600090815260409020805460018201805460ff8316936101009093046001600160a01b03169291906106c09061259a565b80601f01602080910402602001604051908101604052809291908181526020018280546106ec9061259a565b80156107395780601f1061070e57610100808354040283529160200191610739565b820191906000526020600020905b81548152906001019060200180831161071c57829003601f168201915b50505050509080600201805461074e9061259a565b80601f016020809104026020016040519081016040528092919081815260200182805461077a9061259a565b80156107c75780601f1061079c576101008083540402835291602001916107c7565b820191906000526020600020905b8154815290600101906020018083116107aa57829003601f168201915b5050505050905084565b60006107dc81610bad565b6107e5826112dd565b6108016000805160206129398339815191528360000151610c33565b5060005b8260200151518110156104f0576108476000805160206129398339815191528460200151838151811061083a5761083a6125d4565b6020026020010151610c33565b5080610852816125fd565b915050610805565b61086482826113cd565b8051156108b0576000818060200190518101906108819190612616565b90506001600160a01b038116156108ae57600e80546001600160a01b0319166001600160a01b0383161790555b505b81516108be90600090610c33565b506108db6000805160206129398339815191528360000151610c33565b5060005b8260200151518110156104f0576109146000805160206129398339815191528460200151838151811061083a5761083a6125d4565b508061091f816125fd565b9150506108df565b6104f08383836114d9565b600061093d81610bad565b610945610bb7565b600082116109955760405162461bcd60e51b815260206004820181905260248201527f416d6f756e74206d7573742062652067726561746572207468616e207a65726f60448201526064016103d2565b6004546001600160a01b03166109bd5760405162461bcd60e51b81526004016103d290612516565b6040805160018082528183019092526000916020808301908036833701905050905030816000815181106109f3576109f36125d4565b6001600160a01b0392909216602092830291909101909101526040805160018082528183019092526000918160200160208202803683370190505090508381600081518110610a4457610a446125d4565b6020908102919091010152604080516001808252818301909252600091816020015b6060815260200190600190039081610a665790505090506040518060200160405280600081525081600081518110610aa057610aa06125d4565b6020908102919091010152600454610ac590849084906001600160a01b031684611647565b84600c6000828254610ad791906125ea565b90915550506001600b5550610aea915050565b5050565b6000828152600a6020526040902060010154610b0981610bad565b6104b78383610cc7565b6104b784848484611647565b60088054610b2c9061259a565b80601f0160208091040260200160405190810160405280929190818152602001828054610b589061259a565b8015610ba55780601f10610b7a57610100808354040283529160200191610ba5565b820191906000526020600020905b815481529060010190602001808311610b8857829003601f168201915b505050505081565b61048f8133611934565b6002600b5403610bda57604051633ee5aeb560e01b815260040160405180910390fd5b6002600b55565b604080516001600160a01b038416602482015260448082018490528251808303909101815260649091019091526020810180516001600160e01b031663a9059cbb60e01b1790526104f090849061196d565b6000610c3f838361065f565b610cbf576000838152600a602090815260408083206001600160a01b03861684529091529020805460ff19166001179055610c773390565b6001600160a01b0316826001600160a01b0316847f2f8788117e7eff1d82e926ec794901d17c78024a50270940304540a733656f0d60405160405180910390a4506001610391565b506000610391565b6000610cd3838361065f565b15610cbf576000838152600a602090815260408083206001600160a01b0386168085529252808320805460ff1916905551339286917ff6391f5c32d9c69d2a47ea670b442974b53935d1edc7fd64eb21e047a839171b9190a4506001610391565b6001600160a01b0383811660009081526009602052604090205461010090041615610d965760405162461bcd60e51b8152602060048201526012602482015271105b1c9958591e481c9959da5cdd195c995960721b60448201526064016103d2565b60408051608081018252600080825233602080840191909152828401869052606083018590526001600160a01b0387168252600990529190912081518154829060ff19166001836002811115610dee57610dee6122b4565b0217905550602082015181546001600160a01b0390911661010002610100600160a81b031990911617815560408201516001820190610e2d9082612679565b5060608201516002820190610e429082612679565b50905050336001600160a01b0316836001600160a01b03167f99202cc5abf24650e7ac53e3a81ff614768dcc7569a245376ed82eb4ce243fca8484604051610e8b929190612738565b60405180910390a3505050565b83518015801590610ea95750835181145b610eea5760405162461bcd60e51b81526020600482015260126024820152714d69736d617463686564206c656e6774687360701b60448201526064016103d2565b60005b8181101561123157600083518210610f145760405180602001604052806000815250610f2f565b838281518110610f2657610f266125d4565b60200260200101515b905060006001600160a01b0316878381518110610f4e57610f4e6125d4565b60200260200101516001600160a01b031603610fa85760405162461bcd60e51b8152602060048201526019602482015278526563697069656e74206973207a65726f206164647265737360381b60448201526064016103d2565b6000868381518110610fbc57610fbc6125d4565b602002602001015111801561105157506040516370a0823160e01b81523060048201526001600160a01b038616906370a0823190602401602060405180830381865afa158015611010573d6000803e3d6000fd5b505050506040513d601f19601f820116820180604052508101906110349190612558565b868381518110611046576110466125d4565b602002602001015111155b6110a75760405162461bcd60e51b815260206004820152602160248201527f416d6f756e74206973207a65726f206f7220657863656564732062616c616e636044820152606560f81b60648201526084016103d2565b6110e58783815181106110bc576110bc6125d4565b60200260200101518784815181106110d6576110d66125d4565b602002602001015187846119d0565b846001600160a01b031663a9059cbb888481518110611106576111066125d4565b6020026020010151888581518110611120576111206125d4565b60200260200101516040518363ffffffff1660e01b81526004016111599291906001600160a01b03929092168252602082015260400190565b6020604051808303816000875af1158015611178573d6000803e3d6000fd5b505050506040513d601f19601f8201168201806040525081019061119c9190612766565b508682815181106111af576111af6125d4565b60200260200101516001600160a01b0316306001600160a01b03167f68179208818f375bd941a067e321c35e8cebc048007cd126acd94625989a7b758885815181106111fd576111fd6125d4565b6020026020010151888560405161121693929190612788565b60405180910390a35080611229816125fd565b915050610eed565b505050505050565b6001600160a01b038416600090815260096020526040902060ff84166002811115611266576112666122b4565b8154829060ff19166001836002811115611282576112826122b4565b0217905550336001600160a01b0316856001600160a01b03167f76dfcb7079d175d526d40b126e4a1cc466c3855e25ba5b37c3168609060e1d788686866040516112ce939291906127b2565b60405180910390a35050505050565b8051600180546001600160a01b0319166001600160a01b03909216919091178155602080830151805184939261131892600292910190611be2565b5060408201516002820180546001600160a01b039283166001600160a01b03199182161790915560608401516003840180549190931691161790556080820151600482015560a08201518051611378916005840191602090910190611c47565b5060c0820151600682019061138d9082612679565b50506040513391507f7262fa021611ce5fba1be5b0e369cd9209c8d8408b2f67329285403f6d5a048d906113c2908490612824565b60405180910390a250565b60005460ff16156114165760405162461bcd60e51b8152602060048201526013602482015272105b1c9958591e481a5b9a5d1a585b1a5e9959606a1b60448201526064016103d2565b60008054600160ff199091168117909155825181546001600160a01b0319166001600160a01b03909116178155602080840151805185939261145d92600292910190611be2565b5060408201516002820180546001600160a01b039283166001600160a01b03199182161790915560608401516003840180549190931691161790556080820151600482015560a082015180516114bd916005840191602090910190611c47565b5060c082015160068201906114d29082612679565b5050505050565b6001600160a01b0383811660009081526009602052604090205461010090041633146115475760405162461bcd60e51b815260206004820152601760248201527f4d757374206265206f776e657220746f2075706461746500000000000000000060448201526064016103d2565b60016001600160a01b03841660009081526009602052604090205460ff166002811115611576576115766122b4565b036115b65760405162461bcd60e51b815260206004820152601060248201526f105b1c9958591e48185c1c1c9bdd995960821b60448201526064016103d2565b6001600160a01b03831660009081526009602052604090206001016115db8382612679565b506001600160a01b03831660009081526009602052604090206002016116018282612679565b50336001600160a01b0316836001600160a01b03167f639b764af06689bf35c6ebc1ae49051aa4b4d3a3d34d5c70bf8626087352e99d8484604051610e8b929190612738565b835180158015906116585750835181145b6116995760405162461bcd60e51b81526020600482015260126024820152714d69736d617463686564206c656e6774687360701b60448201526064016103d2565b60005b81811015611231576000835182106116c357604051806020016040528060008152506116de565b8382815181106116d5576116d56125d4565b60200260200101515b905060006001600160a01b03168783815181106116fd576116fd6125d4565b60200260200101516001600160a01b0316036117575760405162461bcd60e51b8152602060048201526019602482015278526563697069656e74206973207a65726f206164647265737360381b60448201526064016103d2565b600086838151811061176b5761176b6125d4565b6020026020010151116117b15760405162461bcd60e51b815260206004820152600e60248201526d416d6f756e74206973207a65726f60901b60448201526064016103d2565b6117e08783815181106117c6576117c66125d4565b60200260200101518784815181106104f0576104f06125d4565b846001600160a01b03166323b872dd33898581518110611802576118026125d4565b602002602001015189868151811061181c5761181c6125d4565b60209081029190910101516040516001600160e01b031960e086901b1681526001600160a01b03938416600482015292909116602483015260448201526064016020604051808303816000875af115801561187b573d6000803e3d6000fd5b505050506040513d601f19601f8201168201806040525081019061189f9190612766565b508682815181106118b2576118b26125d4565b60200260200101516001600160a01b0316336001600160a01b03167f68179208818f375bd941a067e321c35e8cebc048007cd126acd94625989a7b75888581518110611900576119006125d4565b6020026020010151888560405161191993929190612788565b60405180910390a3508061192c816125fd565b91505061169c565b61193e828261065f565b610aea5760405163e2517d3f60e01b81526001600160a01b0382166004820152602481018390526044016103d2565b60006119826001600160a01b03841683611aab565b905080516000141580156119a75750808060200190518101906119a59190612766565b155b156104f057604051635274afe760e01b81526001600160a01b03841660048201526024016103d2565b600080828060200190518101906119e791906128f8565b6040516370a0823160e01b815230600482015291935091506000906001600160a01b038616906370a0823190602401602060405180830381865afa158015611a33573d6000803e3d6000fd5b505050506040513d601f19601f82011682018060405250810190611a579190612558565b905080861115611aa25760405162461bcd60e51b8152602060048201526016602482015275416d6f756e7420657863656564732062616c616e636560501b60448201526064016103d2565b50505050505050565b6060611ab983836000611ac0565b9392505050565b606081471015611ae55760405163cd78605960e01b81523060048201526024016103d2565b600080856001600160a01b03168486604051611b01919061291c565b60006040518083038185875af1925050503d8060008114611b3e576040519150601f19603f3d011682016040523d82523d6000602084013e611b43565b606091505b5091509150611b53868383611b5d565b9695505050505050565b606082611b7257611b6d82611bb9565b611ab9565b8151158015611b8957506001600160a01b0384163b155b15611bb257604051639996b31560e01b81526001600160a01b03851660048201526024016103d2565b5080611ab9565b805115611bc95780518082602001fd5b604051630a12f52160e11b815260040160405180910390fd5b828054828255906000526020600020908101928215611c37579160200282015b82811115611c3757825182546001600160a01b0319166001600160a01b03909116178255602090920191600190910190611c02565b50611c43929150611cf6565b5090565b82805482825590600052602060002090600301600490048101928215611c375791602002820160005b83821115611cba57835183826101000a8154816001600160401b0302191690836001600160401b031602179055509260200192600801602081600701049283019260010302611c70565b8015611ced5782816101000a8154906001600160401b030219169055600801602081600701049283019260010302611cba565b5050611c439291505b5b80821115611c435760008155600101611cf7565b600060208284031215611d1d57600080fd5b81356001600160e01b031981168114611ab957600080fd5b600060208284031215611d4757600080fd5b5035919050565b6001600160a01b038116811461048f57600080fd5b8035611d6e81611d4e565b919050565b60008060408385031215611d8657600080fd5b823591506020830135611d9881611d4e565b809150509250929050565b634e487b7160e01b600052604160045260246000fd5b60405160e081016001600160401b0381118282101715611ddb57611ddb611da3565b60405290565b604051601f8201601f191681016001600160401b0381118282101715611e0957611e09611da3565b604052919050565b600082601f830112611e2257600080fd5b81356001600160401b03811115611e3b57611e3b611da3565b611e4e601f8201601f1916602001611de1565b818152846020838601011115611e6357600080fd5b816020850160208301376000918101602001919091529392505050565b600080600060608486031215611e9557600080fd5b8335611ea081611d4e565b925060208401356001600160401b0380821115611ebc57600080fd5b611ec887838801611e11565b93506040860135915080821115611ede57600080fd5b50611eeb86828701611e11565b9150509250925092565b60006001600160401b03821115611f0e57611f0e611da3565b5060051b60200190565b600082601f830112611f2957600080fd5b81356020611f3e611f3983611ef5565b611de1565b82815260059290921b84018101918181019086841115611f5d57600080fd5b8286015b84811015611f81578035611f7481611d4e565b8352918301918301611f61565b509695505050505050565b600082601f830112611f9d57600080fd5b81356020611fad611f3983611ef5565b82815260059290921b84018101918181019086841115611fcc57600080fd5b8286015b84811015611f815780358352918301918301611fd0565b600082601f830112611ff857600080fd5b81356020612008611f3983611ef5565b82815260059290921b8401810191818101908684111561202757600080fd5b8286015b84811015611f815780356001600160401b0381111561204a5760008081fd5b6120588986838b0101611e11565b84525091830191830161202b565b6000806000806080858703121561207c57600080fd5b84356001600160401b038082111561209357600080fd5b61209f88838901611f18565b955060208701359150808211156120b557600080fd5b6120c188838901611f8c565b9450604087013591506120d382611d4e565b909250606086013590808211156120e957600080fd5b506120f687828801611fe7565b91505092959194509250565b60005b8381101561211d578181015183820152602001612105565b50506000910152565b6000815180845261213e816020860160208601612102565b601f01601f19169290920160200192915050565b6001600160a01b0386811682528581166020830152841660408201526060810183905260a06080820181905260009061218d90830184612126565b979650505050505050565b6000806000606084860312156121ad57600080fd5b83356001600160401b03808211156121c457600080fd5b6121d087838801611f18565b945060208601359150808211156121e657600080fd5b6121f287838801611f8c565b9350604086013591508082111561220857600080fd5b50611eeb86828701611fe7565b6000806000806080858703121561222b57600080fd5b843561223681611d4e565b9350602085013560ff8116811461224c57600080fd5b925060408501356001600160401b038082111561226857600080fd5b61227488838901611e11565b9350606087013591508082111561228a57600080fd5b506120f687828801611e11565b6000602082840312156122a957600080fd5b8135611ab981611d4e565b634e487b7160e01b600052602160045260246000fd5b6000600386106122ea57634e487b7160e01b600052602160045260246000fd5b8582526001600160a01b038516602083015260806040830181905261231190830185612126565b828103606084015261218d8185612126565b600082601f83011261233457600080fd5b81356020612344611f3983611ef5565b82815260059290921b8401810191818101908684111561236357600080fd5b8286015b84811015611f815780356001600160401b03811681146123875760008081fd5b8352918301918301612367565b600060e082840312156123a657600080fd5b6123ae611db9565b90506123b982611d63565b815260208201356001600160401b03808211156123d557600080fd5b6123e185838601611f18565b60208401526123f260408501611d63565b604084015261240360608501611d63565b60608401526080840135608084015260a084013591508082111561242657600080fd5b61243285838601612323565b60a084015260c084013591508082111561244b57600080fd5b5061245884828501611e11565b60c08301525092915050565b60006020828403121561247657600080fd5b81356001600160401b0381111561248c57600080fd5b61249884828501612394565b949350505050565b600080604083850312156124b357600080fd5b82356001600160401b03808211156124ca57600080fd5b6124d686838701612394565b935060208501359150808211156124ec57600080fd5b506124f985828601611e11565b9150509250929050565b602081526000611ab96020830184612126565b60208082526022908201527f546f6b656e2028646973747269627574696f6e20746f6b656e29206e6f742073604082015261195d60f21b606082015260800190565b60006020828403121561256a57600080fd5b5051919050565b634e487b7160e01b600052601160045260246000fd5b8181038181111561039157610391612571565b600181811c908216806125ae57607f821691505b6020821081036125ce57634e487b7160e01b600052602260045260246000fd5b50919050565b634e487b7160e01b600052603260045260246000fd5b8082018082111561039157610391612571565b60006001820161260f5761260f612571565b5060010190565b60006020828403121561262857600080fd5b8151611ab981611d4e565b601f8211156104f057600081815260208120601f850160051c8101602086101561265a5750805b601f850160051c820191505b8181101561123157828155600101612666565b81516001600160401b0381111561269257612692611da3565b6126a6816126a0845461259a565b84612633565b602080601f8311600181146126db57600084156126c35750858301515b600019600386901b1c1916600185901b178555611231565b600085815260208120601f198616915b8281101561270a578886015182559484019460019091019084016126eb565b50858210156127285787850151600019600388901b60f8161c191681555b5050505050600190811b01905550565b60408152600061274b6040830185612126565b828103602084015261275d8185612126565b95945050505050565b60006020828403121561277857600080fd5b81518015158114611ab957600080fd5b8381526001600160a01b038316602082015260606040820181905260009061275d90830184612126565b60ff841681526060602082015260006127ce6060830185612126565b8281036040840152611b538185612126565b600081518084526020808501945080840160005b838110156128195781516001600160401b0316875295820195908201906001016127f4565b509495945050505050565b602080825282516001600160a01b03908116838301528382015160e060408501528051610100850181905260009392918301919084906101208701905b8083101561288357845184168252938501936001929092019190850190612861565b5060408801516001600160a01b0381166060890152945060608801516001600160a01b03811660808901529450608088015160a088015260a08801519450601f199350838782030160c08801526128da81866127e0565b945050505060c0850151818584030160e0860152611b538382612126565b6000806040838503121561290b57600080fd5b505080516020909101519092909150565b6000825161292e818460208701612102565b919091019291505056fea49807205ce4d355092ef5a8a18f56e8913cf4a201fbe287825b095693c21775a26469706673582212206955ab1a4ee64f4bbd70a64618716a2becb2c0700f02660e8c7bc518d77606ea64736f6c63430008140033",
  "devdoc": {
    "errors": {
      "AccessControlBadConfirmation()": [
        {
          "details": "The caller of a function is not the expected one. NOTE: Don't confuse with {AccessControlUnauthorizedAccount}."
        }
      ],
      "AccessControlUnauthorizedAccount(address,bytes32)": [
        {
          "details": "The `account` is missing a role."
        }
      ],
      "AddressEmptyCode(address)": [
        {
          "details": "There's no code at `target` (it is not a contract)."
        }
      ],
      "AddressInsufficientBalance(address)": [
        {
          "details": "The ETH balance of the account is not enough to perform the operation."
        }
      ],
      "FailedInnerCall()": [
        {
          "details": "A call to an address target failed. The target may have reverted."
        }
      ],
      "ReentrancyGuardReentrantCall()": [
        {
          "details": "Unauthorized reentrant call."
        }
      ],
      "SafeERC20FailedOperation(address)": [
        {
          "details": "An operation with an ERC20 token failed."
        }
      ]
    },
    "events": {
      "RoleAdminChanged(bytes32,bytes32,bytes32)": {
        "details": "Emitted when `newAdminRole` is set as ``role``'s admin role, replacing `previousAdminRole` `DEFAULT_ADMIN_ROLE` is the starting admin for all roles, despite {RoleAdminChanged} not being emitted signaling this."
      },
      "RoleGranted(bytes32,address,address)": {
        "details": "Emitted when `account` is granted `role`. `sender` is the account that originated the contract call, an admin role bearer except when using {AccessControl-_setupRole}."
      },
      "RoleRevoked(bytes32,address,address)": {
        "details": "Emitted when `account` is revoked `role`. `sender` is the account that originated the contract call:   - if using `revokeRole`, it is the admin role bearer   - if using `renounceRole`, it is the role bearer (i.e. `account`)"
      }
    },
    "kind": "dev",
    "methods": {
      "configure((address,address[],address,address,uint256,uint64[],string))": {
        "params": {
          "_config": "The configuration for the pool."
        }
      },
      "distribute(address[],uint256[],bytes[])": {
        "details": "This function can only be called by the contract owner or admins.",
        "params": {
          "amounts": "The amounts of tokens to distribute to each recipient.",
          "data": "Additional data that can be used during distribution, such as attestation UIDs.",
          "recipients": "The addresses of the recipients to distribute tokens to."
        }
      },
      "fund(uint256)": {
        "params": {
          "amount": "The amount of tokens to top up the pool with."
        }
      },
      "getRoleAdmin(bytes32)": {
        "details": "Returns the admin role that controls `role`. See {grantRole} and {revokeRole}. To change a role's admin, use {_setRoleAdmin}."
      },
      "grantRole(bytes32,address)": {
        "details": "Grants `role` to `account`. If `account` had not been already granted `role`, emits a {RoleGranted} event. Requirements: - the caller must have ``role``'s admin role. May emit a {RoleGranted} event."
      },
      "hasRole(bytes32,address)": {
        "details": "Returns `true` if `account` has been granted `role`."
      },
      "initialize((address,address[],address,address,uint256,uint64[],string),bytes)": {
        "params": {
          "_config": "The configuration for the pool.",
          "data": "Additional data that can be used during initialization."
        }
      },
      "liquidate()": {
        "details": "This function can only be called by the contract owner."
      },
      "renounceRole(bytes32,address)": {
        "details": "Revokes `role` from the calling account. Roles are often managed via {grantRole} and {revokeRole}: this function's purpose is to provide a mechanism for accounts to lose their privileges if they are compromised (such as when a trusted device is misplaced). If the calling account had been revoked `role`, emits a {RoleRevoked} event. Requirements: - the caller must be `callerConfirmation`. May emit a {RoleRevoked} event."
      },
      "revokeRole(bytes32,address)": {
        "details": "Revokes `role` from `account`. If `account` had been granted `role`, emits a {RoleRevoked} event. Requirements: - the caller must have ``role``'s admin role. May emit a {RoleRevoked} event."
      },
      "supportsInterface(bytes4)": {
        "details": "See {IERC165-supportsInterface}."
      }
    },
    "version": 1
  },
  "userdoc": {
    "kind": "user",
    "methods": {
      "configure((address,address[],address,address,uint256,uint64[],string))": {
        "notice": "Configures the pool with the provided configuration and grants the admin role to the owner and admins specified in the config."
      },
      "distribute(address[],uint256[],bytes[])": {
        "notice": "Transfers tokens from the contract to recipients."
      },
      "fund(uint256)": {
        "notice": "Tops up the pool with the specified amount of tokens configured in either initialize() or configure() then updates the amountDeployed tracking variable."
      },
      "getTotalDistributed()": {
        "notice": "Returns the total amount of tokens distributed from the pool."
      },
      "getTotalFunded()": {
        "notice": "Returns the total amount of tokens funded in the pool."
      },
      "initialize((address,address[],address,address,uint256,uint64[],string),bytes)": {
        "notice": "Initializes the pool with the provided configuration and grants the admin role to the owner and admins specified in the config."
      },
      "liquidate()": {
        "notice": "Sends the contract's balance back to the owner."
      }
    },
    "version": 1
  },
  "storageLayout": {
    "storage": [
      {
        "astId": 1843,
        "contract": "contracts/strategies/SilviVerificationStrategy.sol:SilviVerificationStrategy",
        "label": "_initialized",
        "offset": 0,
        "slot": "0",
        "type": "t_bool"
      },
      {
        "astId": 1846,
        "contract": "contracts/strategies/SilviVerificationStrategy.sol:SilviVerificationStrategy",
        "label": "config",
        "offset": 0,
        "slot": "1",
        "type": "t_struct(PoolConfig)1687_storage"
      },
      {
        "astId": 1848,
        "contract": "contracts/strategies/SilviVerificationStrategy.sol:SilviVerificationStrategy",
        "label": "schema",
        "offset": 0,
        "slot": "8",
        "type": "t_string_storage"
      },
      {
        "astId": 1853,
        "contract": "contracts/strategies/SilviVerificationStrategy.sol:SilviVerificationStrategy",
        "label": "registrations",
        "offset": 0,
        "slot": "9",
        "type": "t_mapping(t_address,t_struct(Registration)1701_storage)"
      },
      {
        "astId": 522,
        "contract": "contracts/strategies/SilviVerificationStrategy.sol:SilviVerificationStrategy",
        "label": "_roles",
        "offset": 0,
        "slot": "10",
        "type": "t_mapping(t_bytes32,t_struct(RoleData)517_storage)"
      },
      {
        "astId": 1572,
        "contract": "contracts/strategies/SilviVerificationStrategy.sol:SilviVerificationStrategy",
        "label": "_status",
        "offset": 0,
        "slot": "11",
        "type": "t_uint256"
      },
      {
        "astId": 2466,
        "contract": "contracts/strategies/SilviVerificationStrategy.sol:SilviVerificationStrategy",
        "label": "totalFunded",
        "offset": 0,
        "slot": "12",
        "type": "t_uint256"
      },
      {
        "astId": 2469,
        "contract": "contracts/strategies/SilviVerificationStrategy.sol:SilviVerificationStrategy",
        "label": "totalDistributed",
        "offset": 0,
        "slot": "13",
        "type": "t_uint256"
      },
      {
        "astId": 2472,
        "contract": "contracts/strategies/SilviVerificationStrategy.sol:SilviVerificationStrategy",
        "label": "eas",
        "offset": 0,
        "slot": "14",
        "type": "t_contract(IEAS)372"
      }
    ],
    "types": {
      "t_address": {
        "encoding": "inplace",
        "label": "address",
        "numberOfBytes": "20"
      },
      "t_array(t_address)dyn_storage": {
        "base": "t_address",
        "encoding": "dynamic_array",
        "label": "address[]",
        "numberOfBytes": "32"
      },
      "t_array(t_uint64)dyn_storage": {
        "base": "t_uint64",
        "encoding": "dynamic_array",
        "label": "uint64[]",
        "numberOfBytes": "32"
      },
      "t_bool": {
        "encoding": "inplace",
        "label": "bool",
        "numberOfBytes": "1"
      },
      "t_bytes32": {
        "encoding": "inplace",
        "label": "bytes32",
        "numberOfBytes": "32"
      },
      "t_bytes_storage": {
        "encoding": "bytes",
        "label": "bytes",
        "numberOfBytes": "32"
      },
      "t_contract(IEAS)372": {
        "encoding": "inplace",
        "label": "contract IEAS",
        "numberOfBytes": "20"
      },
      "t_enum(Status)1691": {
        "encoding": "inplace",
        "label": "enum IPool.Status",
        "numberOfBytes": "1"
      },
      "t_mapping(t_address,t_bool)": {
        "encoding": "mapping",
        "key": "t_address",
        "label": "mapping(address => bool)",
        "numberOfBytes": "32",
        "value": "t_bool"
      },
      "t_mapping(t_address,t_struct(Registration)1701_storage)": {
        "encoding": "mapping",
        "key": "t_address",
        "label": "mapping(address => struct IPool.Registration)",
        "numberOfBytes": "32",
        "value": "t_struct(Registration)1701_storage"
      },
      "t_mapping(t_bytes32,t_struct(RoleData)517_storage)": {
        "encoding": "mapping",
        "key": "t_bytes32",
        "label": "mapping(bytes32 => struct AccessControl.RoleData)",
        "numberOfBytes": "32",
        "value": "t_struct(RoleData)517_storage"
      },
      "t_string_storage": {
        "encoding": "bytes",
        "label": "string",
        "numberOfBytes": "32"
      },
      "t_struct(PoolConfig)1687_storage": {
        "encoding": "inplace",
        "label": "struct PoolConfig",
        "members": [
          {
            "astId": 1672,
            "contract": "contracts/strategies/SilviVerificationStrategy.sol:SilviVerificationStrategy",
            "label": "owner",
            "offset": 0,
            "slot": "0",
            "type": "t_address"
          },
          {
            "astId": 1675,
            "contract": "contracts/strategies/SilviVerificationStrategy.sol:SilviVerificationStrategy",
            "label": "admins",
            "offset": 0,
            "slot": "1",
            "type": "t_array(t_address)dyn_storage"
          },
          {
            "astId": 1677,
            "contract": "contracts/strategies/SilviVerificationStrategy.sol:SilviVerificationStrategy",
            "label": "allocationToken",
            "offset": 0,
            "slot": "2",
            "type": "t_address"
          },
          {
            "astId": 1679,
            "contract": "contracts/strategies/SilviVerificationStrategy.sol:SilviVerificationStrategy",
            "label": "distributionToken",
            "offset": 0,
            "slot": "3",
            "type": "t_address"
          },
          {
            "astId": 1681,
            "contract": "contracts/strategies/SilviVerificationStrategy.sol:SilviVerificationStrategy",
            "label": "maxAmount",
            "offset": 0,
            "slot": "4",
            "type": "t_uint256"
          },
          {
            "astId": 1684,
            "contract": "contracts/strategies/SilviVerificationStrategy.sol:SilviVerificationStrategy",
            "label": "timestamps",
            "offset": 0,
            "slot": "5",
            "type": "t_array(t_uint64)dyn_storage"
          },
          {
            "astId": 1686,
            "contract": "contracts/strategies/SilviVerificationStrategy.sol:SilviVerificationStrategy",
            "label": "metadataURI",
            "offset": 0,
            "slot": "6",
            "type": "t_string_storage"
          }
        ],
        "numberOfBytes": "224"
      },
      "t_struct(Registration)1701_storage": {
        "encoding": "inplace",
        "label": "struct IPool.Registration",
        "members": [
          {
            "astId": 1694,
            "contract": "contracts/strategies/SilviVerificationStrategy.sol:SilviVerificationStrategy",
            "label": "status",
            "offset": 0,
            "slot": "0",
            "type": "t_enum(Status)1691"
          },
          {
            "astId": 1696,
            "contract": "contracts/strategies/SilviVerificationStrategy.sol:SilviVerificationStrategy",
            "label": "owner",
            "offset": 1,
            "slot": "0",
            "type": "t_address"
          },
          {
            "astId": 1698,
            "contract": "contracts/strategies/SilviVerificationStrategy.sol:SilviVerificationStrategy",
            "label": "metadataURI",
            "offset": 0,
            "slot": "1",
            "type": "t_string_storage"
          },
          {
            "astId": 1700,
            "contract": "contracts/strategies/SilviVerificationStrategy.sol:SilviVerificationStrategy",
            "label": "data",
            "offset": 0,
            "slot": "2",
            "type": "t_bytes_storage"
          }
        ],
        "numberOfBytes": "96"
      },
      "t_struct(RoleData)517_storage": {
        "encoding": "inplace",
        "label": "struct AccessControl.RoleData",
        "members": [
          {
            "astId": 514,
            "contract": "contracts/strategies/SilviVerificationStrategy.sol:SilviVerificationStrategy",
            "label": "hasRole",
            "offset": 0,
            "slot": "0",
            "type": "t_mapping(t_address,t_bool)"
          },
          {
            "astId": 516,
            "contract": "contracts/strategies/SilviVerificationStrategy.sol:SilviVerificationStrategy",
            "label": "adminRole",
            "offset": 0,
            "slot": "1",
            "type": "t_bytes32"
          }
        ],
        "numberOfBytes": "64"
      },
      "t_uint256": {
        "encoding": "inplace",
        "label": "uint256",
        "numberOfBytes": "32"
      },
      "t_uint64": {
        "encoding": "inplace",
        "label": "uint64",
        "numberOfBytes": "8"
      }
    }
  }
}