{
  "address": "0x4e51E761707d11012f51E99B266CD195cEBbFa04",
  "abi": [
    {
      "inputs": [
        {
          "internalType": "string",
          "name": "_name",
          "type": "string"
        },
        {
          "internalType": "string",
          "name": "_schema",
          "type": "string"
        },
        {
          "internalType": "string",
          "name": "_metadataURI",
          "type": "string"
        },
        {
          "internalType": "address",
          "name": "easAddress",
          "type": "address"
        }
      ],
      "stateMutability": "nonpayable",
      "type": "constructor"
    },
    {
      "inputs": [],
      "name": "AccessControlBadConfirmation",
      "type": "error"
    },
    {
      "inputs": [
        {
          "internalType": "address",
          "name": "account",
          "type": "address"
        },
        {
          "internalType": "bytes32",
          "name": "neededRole",
          "type": "bytes32"
        }
      ],
      "name": "AccessControlUnauthorizedAccount",
      "type": "error"
    },
    {
      "inputs": [
        {
          "internalType": "address",
          "name": "target",
          "type": "address"
        }
      ],
      "name": "AddressEmptyCode",
      "type": "error"
    },
    {
      "inputs": [
        {
          "internalType": "address",
          "name": "account",
          "type": "address"
        }
      ],
      "name": "AddressInsufficientBalance",
      "type": "error"
    },
    {
      "inputs": [],
      "name": "FailedInnerCall",
      "type": "error"
    },
    {
      "inputs": [],
      "name": "ReentrancyGuardReentrantCall",
      "type": "error"
    },
    {
      "inputs": [
        {
          "internalType": "address",
          "name": "token",
          "type": "address"
        }
      ],
      "name": "SafeERC20FailedOperation",
      "type": "error"
    },
    {
      "anonymous": false,
      "inputs": [
        {
          "indexed": true,
          "internalType": "address",
          "name": "from",
          "type": "address"
        },
        {
          "indexed": true,
          "internalType": "address",
          "name": "to",
          "type": "address"
        },
        {
          "indexed": false,
          "internalType": "uint256",
          "name": "amount",
          "type": "uint256"
        },
        {
          "indexed": false,
          "internalType": "address",
          "name": "token",
          "type": "address"
        },
        {
          "indexed": false,
          "internalType": "bytes",
          "name": "data",
          "type": "bytes"
        }
      ],
      "name": "Allocate",
      "type": "event"
    },
    {
      "anonymous": false,
      "inputs": [
        {
          "indexed": true,
          "internalType": "address",
          "name": "updater",
          "type": "address"
        },
        {
          "components": [
            {
              "internalType": "address",
              "name": "owner",
              "type": "address"
            },
            {
              "internalType": "address[]",
              "name": "admins",
              "type": "address[]"
            },
            {
              "internalType": "address",
              "name": "allocationToken",
              "type": "address"
            },
            {
              "internalType": "address",
              "name": "distributionToken",
              "type": "address"
            },
            {
              "internalType": "uint256",
              "name": "maxAmount",
              "type": "uint256"
            },
            {
              "internalType": "uint64[]",
              "name": "timestamps",
              "type": "uint64[]"
            },
            {
              "internalType": "string",
              "name": "metadataURI",
              "type": "string"
            }
          ],
          "indexed": false,
          "internalType": "struct PoolConfig",
          "name": "config",
          "type": "tuple"
        }
      ],
      "name": "Configure",
      "type": "event"
    },
    {
      "anonymous": false,
      "inputs": [
        {
          "indexed": false,
          "internalType": "string",
          "name": "name",
          "type": "string"
        },
        {
          "indexed": true,
          "internalType": "address",
          "name": "owner",
          "type": "address"
        },
        {
          "indexed": false,
          "internalType": "string",
          "name": "schema",
          "type": "string"
        },
        {
          "indexed": false,
          "internalType": "string",
          "name": "metadataURI",
          "type": "string"
        }
      ],
      "name": "Deployed",
      "type": "event"
    },
    {
      "anonymous": false,
      "inputs": [
        {
          "indexed": true,
          "internalType": "address",
          "name": "project",
          "type": "address"
        },
        {
          "indexed": true,
          "internalType": "address",
          "name": "owner",
          "type": "address"
        },
        {
          "indexed": false,
          "internalType": "string",
          "name": "metadataURI",
          "type": "string"
        },
        {
          "indexed": false,
          "internalType": "bytes",
          "name": "data",
          "type": "bytes"
        }
      ],
      "name": "Register",
      "type": "event"
    },
    {
      "anonymous": false,
      "inputs": [
        {
          "indexed": true,
          "internalType": "address",
          "name": "project",
          "type": "address"
        },
        {
          "indexed": false,
          "internalType": "uint8",
          "name": "status",
          "type": "uint8"
        },
        {
          "indexed": true,
          "internalType": "address",
          "name": "approver",
          "type": "address"
        },
        {
          "indexed": false,
          "internalType": "string",
          "name": "metadataURI",
          "type": "string"
        },
        {
          "indexed": false,
          "internalType": "bytes",
          "name": "data",
          "type": "bytes"
        }
      ],
      "name": "Review",
      "type": "event"
    },
    {
      "anonymous": false,
      "inputs": [
        {
          "indexed": true,
          "internalType": "bytes32",
          "name": "role",
          "type": "bytes32"
        },
        {
          "indexed": true,
          "internalType": "bytes32",
          "name": "previousAdminRole",
          "type": "bytes32"
        },
        {
          "indexed": true,
          "internalType": "bytes32",
          "name": "newAdminRole",
          "type": "bytes32"
        }
      ],
      "name": "RoleAdminChanged",
      "type": "event"
    },
    {
      "anonymous": false,
      "inputs": [
        {
          "indexed": true,
          "internalType": "bytes32",
          "name": "role",
          "type": "bytes32"
        },
        {
          "indexed": true,
          "internalType": "address",
          "name": "account",
          "type": "address"
        },
        {
          "indexed": true,
          "internalType": "address",
          "name": "sender",
          "type": "address"
        }
      ],
      "name": "RoleGranted",
      "type": "event"
    },
    {
      "anonymous": false,
      "inputs": [
        {
          "indexed": true,
          "internalType": "bytes32",
          "name": "role",
          "type": "bytes32"
        },
        {
          "indexed": true,
          "internalType": "address",
          "name": "account",
          "type": "address"
        },
        {
          "indexed": true,
          "internalType": "address",
          "name": "sender",
          "type": "address"
        }
      ],
      "name": "RoleRevoked",
      "type": "event"
    },
    {
      "anonymous": false,
      "inputs": [
        {
          "indexed": true,
          "internalType": "address",
          "name": "project",
          "type": "address"
        },
        {
          "indexed": true,
          "internalType": "address",
          "name": "updater",
          "type": "address"
        },
        {
          "indexed": false,
          "internalType": "string",
          "name": "metadataURI",
          "type": "string"
        },
        {
          "indexed": false,
          "internalType": "bytes",
          "name": "data",
          "type": "bytes"
        }
      ],
      "name": "Update",
      "type": "event"
    },
    {
      "inputs": [],
      "name": "ADMIN_ROLE",
      "outputs": [
        {
          "internalType": "bytes32",
          "name": "",
          "type": "bytes32"
        }
      ],
      "stateMutability": "view",
      "type": "function"
    },
    {
      "inputs": [],
      "name": "DEFAULT_ADMIN_ROLE",
      "outputs": [
        {
          "internalType": "bytes32",
          "name": "",
          "type": "bytes32"
        }
      ],
      "stateMutability": "view",
      "type": "function"
    },
    {
      "inputs": [
        {
          "internalType": "address[]",
          "name": "recipients",
          "type": "address[]"
        },
        {
          "internalType": "uint256[]",
          "name": "amounts",
          "type": "uint256[]"
        },
        {
          "internalType": "address",
          "name": "token",
          "type": "address"
        },
        {
          "internalType": "bytes[]",
          "name": "data",
          "type": "bytes[]"
        }
      ],
      "name": "allocate",
      "outputs": [],
      "stateMutability": "nonpayable",
      "type": "function"
    },
    {
      "inputs": [],
      "name": "config",
      "outputs": [
        {
          "internalType": "address",
          "name": "owner",
          "type": "address"
        },
        {
          "internalType": "address",
          "name": "allocationToken",
          "type": "address"
        },
        {
          "internalType": "address",
          "name": "distributionToken",
          "type": "address"
        },
        {
          "internalType": "uint256",
          "name": "maxAmount",
          "type": "uint256"
        },
        {
          "internalType": "string",
          "name": "metadataURI",
          "type": "string"
        }
      ],
      "stateMutability": "view",
      "type": "function"
    },
    {
      "inputs": [
        {
          "components": [
            {
              "internalType": "address",
              "name": "owner",
              "type": "address"
            },
            {
              "internalType": "address[]",
              "name": "admins",
              "type": "address[]"
            },
            {
              "internalType": "address",
              "name": "allocationToken",
              "type": "address"
            },
            {
              "internalType": "address",
              "name": "distributionToken",
              "type": "address"
            },
            {
              "internalType": "uint256",
              "name": "maxAmount",
              "type": "uint256"
            },
            {
              "internalType": "uint64[]",
              "name": "timestamps",
              "type": "uint64[]"
            },
            {
              "internalType": "string",
              "name": "metadataURI",
              "type": "string"
            }
          ],
          "internalType": "struct PoolConfig",
          "name": "_config",
          "type": "tuple"
        }
      ],
      "name": "configure",
      "outputs": [],
      "stateMutability": "nonpayable",
      "type": "function"
    },
    {
      "inputs": [
        {
          "internalType": "address[]",
          "name": "recipients",
          "type": "address[]"
        },
        {
          "internalType": "uint256[]",
          "name": "amounts",
          "type": "uint256[]"
        },
        {
          "internalType": "address",
          "name": "token",
          "type": "address"
        },
        {
          "internalType": "bytes[]",
          "name": "data",
          "type": "bytes[]"
        }
      ],
      "name": "distribute",
      "outputs": [],
      "stateMutability": "nonpayable",
      "type": "function"
    },
    {
      "inputs": [
        {
          "internalType": "address[]",
          "name": "recipients",
          "type": "address[]"
        },
        {
          "internalType": "uint256[]",
          "name": "amounts",
          "type": "uint256[]"
        },
        {
          "internalType": "bytes[]",
          "name": "data",
          "type": "bytes[]"
        }
      ],
      "name": "distribute",
      "outputs": [],
      "stateMutability": "nonpayable",
      "type": "function"
    },
    {
      "inputs": [],
      "name": "eas",
      "outputs": [
        {
          "internalType": "contract IEAS",
          "name": "",
          "type": "address"
        }
      ],
      "stateMutability": "view",
      "type": "function"
    },
    {
      "inputs": [
        {
          "internalType": "uint256",
          "name": "amount",
          "type": "uint256"
        }
      ],
      "name": "fund",
      "outputs": [],
      "stateMutability": "nonpayable",
      "type": "function"
    },
    {
      "inputs": [
        {
          "internalType": "bytes32",
          "name": "role",
          "type": "bytes32"
        }
      ],
      "name": "getRoleAdmin",
      "outputs": [
        {
          "internalType": "bytes32",
          "name": "",
          "type": "bytes32"
        }
      ],
      "stateMutability": "view",
      "type": "function"
    },
    {
      "inputs": [],
      "name": "getTotalDistributed",
      "outputs": [
        {
          "internalType": "uint256",
          "name": "",
          "type": "uint256"
        }
      ],
      "stateMutability": "view",
      "type": "function"
    },
    {
      "inputs": [],
      "name": "getTotalFunded",
      "outputs": [
        {
          "internalType": "uint256",
          "name": "",
          "type": "uint256"
        }
      ],
      "stateMutability": "view",
      "type": "function"
    },
    {
      "inputs": [
        {
          "internalType": "bytes32",
          "name": "role",
          "type": "bytes32"
        },
        {
          "internalType": "address",
          "name": "account",
          "type": "address"
        }
      ],
      "name": "grantRole",
      "outputs": [],
      "stateMutability": "nonpayable",
      "type": "function"
    },
    {
      "inputs": [
        {
          "internalType": "bytes32",
          "name": "role",
          "type": "bytes32"
        },
        {
          "internalType": "address",
          "name": "account",
          "type": "address"
        }
      ],
      "name": "hasRole",
      "outputs": [
        {
          "internalType": "bool",
          "name": "",
          "type": "bool"
        }
      ],
      "stateMutability": "view",
      "type": "function"
    },
    {
      "inputs": [
        {
          "components": [
            {
              "internalType": "address",
              "name": "owner",
              "type": "address"
            },
            {
              "internalType": "address[]",
              "name": "admins",
              "type": "address[]"
            },
            {
              "internalType": "address",
              "name": "allocationToken",
              "type": "address"
            },
            {
              "internalType": "address",
              "name": "distributionToken",
              "type": "address"
            },
            {
              "internalType": "uint256",
              "name": "maxAmount",
              "type": "uint256"
            },
            {
              "internalType": "uint64[]",
              "name": "timestamps",
              "type": "uint64[]"
            },
            {
              "internalType": "string",
              "name": "metadataURI",
              "type": "string"
            }
          ],
          "internalType": "struct PoolConfig",
          "name": "_config",
          "type": "tuple"
        },
        {
          "internalType": "bytes",
          "name": "data",
          "type": "bytes"
        }
      ],
      "name": "initialize",
      "outputs": [],
      "stateMutability": "nonpayable",
      "type": "function"
    },
    {
      "inputs": [],
      "name": "liquidate",
      "outputs": [],
      "stateMutability": "nonpayable",
      "type": "function"
    },
    {
      "inputs": [
        {
          "internalType": "address",
          "name": "project",
          "type": "address"
        },
        {
          "internalType": "string",
          "name": "metadataURI",
          "type": "string"
        },
        {
          "internalType": "bytes",
          "name": "data",
          "type": "bytes"
        }
      ],
      "name": "register",
      "outputs": [],
      "stateMutability": "nonpayable",
      "type": "function"
    },
    {
      "inputs": [
        {
          "internalType": "address",
          "name": "",
          "type": "address"
        }
      ],
      "name": "registrations",
      "outputs": [
        {
          "internalType": "enum IPool.Status",
          "name": "status",
          "type": "uint8"
        },
        {
          "internalType": "address",
          "name": "owner",
          "type": "address"
        },
        {
          "internalType": "string",
          "name": "metadataURI",
          "type": "string"
        },
        {
          "internalType": "bytes",
          "name": "data",
          "type": "bytes"
        }
      ],
      "stateMutability": "view",
      "type": "function"
    },
    {
      "inputs": [
        {
          "internalType": "bytes32",
          "name": "role",
          "type": "bytes32"
        },
        {
          "internalType": "address",
          "name": "callerConfirmation",
          "type": "address"
        }
      ],
      "name": "renounceRole",
      "outputs": [],
      "stateMutability": "nonpayable",
      "type": "function"
    },
    {
      "inputs": [
        {
          "internalType": "address",
          "name": "project",
          "type": "address"
        },
        {
          "internalType": "uint8",
          "name": "status",
          "type": "uint8"
        },
        {
          "internalType": "string",
          "name": "metadataURI",
          "type": "string"
        },
        {
          "internalType": "bytes",
          "name": "data",
          "type": "bytes"
        }
      ],
      "name": "review",
      "outputs": [],
      "stateMutability": "nonpayable",
      "type": "function"
    },
    {
      "inputs": [
        {
          "internalType": "bytes32",
          "name": "role",
          "type": "bytes32"
        },
        {
          "internalType": "address",
          "name": "account",
          "type": "address"
        }
      ],
      "name": "revokeRole",
      "outputs": [],
      "stateMutability": "nonpayable",
      "type": "function"
    },
    {
      "inputs": [],
      "name": "schema",
      "outputs": [
        {
          "internalType": "string",
          "name": "",
          "type": "string"
        }
      ],
      "stateMutability": "view",
      "type": "function"
    },
    {
      "inputs": [
        {
          "internalType": "bytes4",
          "name": "interfaceId",
          "type": "bytes4"
        }
      ],
      "name": "supportsInterface",
      "outputs": [
        {
          "internalType": "bool",
          "name": "",
          "type": "bool"
        }
      ],
      "stateMutability": "view",
      "type": "function"
    },
    {
      "inputs": [
        {
          "internalType": "address",
          "name": "project",
          "type": "address"
        },
        {
          "internalType": "string",
          "name": "metadataURI",
          "type": "string"
        },
        {
          "internalType": "bytes",
          "name": "data",
          "type": "bytes"
        }
      ],
      "name": "update",
      "outputs": [],
      "stateMutability": "nonpayable",
      "type": "function"
    }
  ],
  "transactionHash": "0x0fd60d7cb0e02836d8a11cf4f06e25ee90dfb6f6b1fa71091483eab7e42a8d3a",
  "args": [
    "Silvi Verification Strategy",
    "address recipient, uint256 amount, bytes32 claimAttestationUID, bytes32 goalAttestationUID",
    "",
    "0x0000000000000000000000000000000000000000"
  ],
  "numDeployments": 1,
  "solcInputHash": "c47f7f6fed510c7c7b06d5d648f1c550",
  "bytecode": "0x60806040526000600c556000600d553480156200001b57600080fd5b5060405162002e0538038062002e058339810160408190526200003e9162000290565b838383336001600160a01b03167f72aeb8e4e073b2b6fc374bc9e1acd0b59d25c19bc96e662f34e973d1ad9ff9fc848484604051620000809392919062000371565b60405180910390a260086200009683826200043f565b50506001600b5550506001600160a01b03811615620000cb57600e80546001600160a01b0319166001600160a01b0383161790555b620000d860003362000110565b50620001057fa49807205ce4d355092ef5a8a18f56e8913cf4a201fbe287825b095693c217753362000110565b50505050506200050b565b6000828152600a602090815260408083206001600160a01b038516845290915281205460ff16620001b9576000838152600a602090815260408083206001600160a01b03861684529091529020805460ff19166001179055620001703390565b6001600160a01b0316826001600160a01b0316847f2f8788117e7eff1d82e926ec794901d17c78024a50270940304540a733656f0d60405160405180910390a4506001620001bd565b5060005b92915050565b634e487b7160e01b600052604160045260246000fd5b60005b83811015620001f6578181015183820152602001620001dc565b50506000910152565b600082601f8301126200021157600080fd5b81516001600160401b03808211156200022e576200022e620001c3565b604051601f8301601f19908116603f01168101908282118183101715620002595762000259620001c3565b816040528381528660208588010111156200027357600080fd5b62000286846020830160208901620001d9565b9695505050505050565b60008060008060808587031215620002a757600080fd5b84516001600160401b0380821115620002bf57600080fd5b620002cd88838901620001ff565b95506020870151915080821115620002e457600080fd5b620002f288838901620001ff565b945060408701519150808211156200030957600080fd5b506200031887828801620001ff565b606087015190935090506001600160a01b03811681146200033857600080fd5b939692955090935050565b600081518084526200035d816020860160208601620001d9565b601f01601f19169290920160200192915050565b60608152600062000386606083018662000343565b82810360208401526200039a818662000343565b9050828103604084015262000286818562000343565b600181811c90821680620003c557607f821691505b602082108103620003e657634e487b7160e01b600052602260045260246000fd5b50919050565b601f8211156200043a57600081815260208120601f850160051c81016020861015620004155750805b601f850160051c820191505b81811015620004365782815560010162000421565b5050505b505050565b81516001600160401b038111156200045b576200045b620001c3565b62000473816200046c8454620003b0565b84620003ec565b602080601f831160018114620004ab5760008415620004925750858301515b600019600386901b1c1916600185901b17855562000436565b600085815260208120601f198616915b82811015620004dc57888601518255948401946001909101908401620004bb565b5085821015620004fb5787850151600019600388901b60f8161c191681555b5050505050600190811b01905550565b6128ea806200051b6000396000f3fe608060405234801561001057600080fd5b50600436106101585760003560e01c8063906b89c6116100c3578063b214c3d91161007c578063b214c3d9146102f7578063c922da54146102ff578063ca1d209d14610312578063d547741f14610325578063eede8aea14610338578063f8895cc81461034b57600080fd5b8063906b89c61461028057806391d1485414610293578063942e6bcf146102a657806394a68925146102c9578063a217fddf146102dc578063ab21f507146102e457600080fd5b8063580867751161011557806358086775146101ee578063747ffca21461020157806375b238fc1461021457806379502c5514610229578063805bfc47146102425780638150864d1461025557600080fd5b806301ffc9a71461015d578063248a9ca31461018557806328a07025146101b65780632f2ff15d146101c057806336568abe146101d35780635695fa58146101e6575b600080fd5b61017061016b366004611cb0565b610360565b60405190151581526020015b60405180910390f35b6101a8610193366004611cda565b6000908152600a602052604090206001015490565b60405190815260200161017c565b6101be610397565b005b6101be6101ce366004611d0f565b61047a565b6101be6101e1366004611d0f565b6104a5565b600d546101a8565b6101be6101fc366004611e18565b6104dd565b6101be61020f366004611ffa565b6104e8565b6101a860008051602061289583398151915281565b6102316104f4565b60405161017c9594939291906120e2565b6101be610250366004612128565b6105a7565b600e54610268906001600160a01b031681565b6040516001600160a01b03909116815260200161017c565b6101be61028e3660046121a5565b61063b565b6101706102a1366004611d0f565b610647565b6102b96102b4366004612225565b610672565b60405161017c9493929190612256565b6101be6102d73660046123f0565b6107b9565b6101a8600081565b6101be6102f236600461242c565b61084f565b600c546101a8565b6101be61030d366004611e18565b6108cc565b6101be610320366004611cda565b6108d7565b6101be610333366004611d0f565b610a93565b6101be610346366004611ffa565b610ab8565b610353610ac4565b60405161017c919061248f565b60006001600160e01b03198216637965db0b60e01b148061039157506301ffc9a760e01b6001600160e01b03198316145b92915050565b60006103a281610b52565b6103aa610b5c565b6004546001600160a01b03166103db5760405162461bcd60e51b81526004016103d2906124a2565b60405180910390fd5b600480546040516370a0823160e01b815230928101929092526000916001600160a01b03909116906370a0823190602401602060405180830381865afa158015610429573d6000803e3d6000fd5b505050506040513d601f19601f8201168201806040525081019061044d91906124e4565b9050801561046c5760045461046c906001600160a01b03163383610b86565b506104776001600b55565b50565b6000828152600a602052604090206001015461049581610b52565b61049f8383610bd8565b50505050565b6001600160a01b03811633146104ce5760405163334bd91960e11b815260040160405180910390fd5b6104d88282610c6c565b505050565b6104d8838383610cd9565b61049f84848484610e3d565b60018054600354600454600554600780546001600160a01b039586169694861695909316939192610524906124fd565b80601f0160208091040260200160405190810160405280929190818152602001828054610550906124fd565b801561059d5780601f106105725761010080835404028352916020019161059d565b820191906000526020600020905b81548152906001019060200180831161058057829003601f168201915b5050505050905085565b6000805160206128958339815191526105bf81610b52565b6105c7610b5c565b6004546105e190859085906001600160a01b031685610e3d565b60005b8451811015610630578381815181106105ff576105ff612537565b6020026020010151600d60008282546106189190612563565b9091555081905061062881612576565b9150506105e4565b5061049f6001600b55565b61049f848484846111de565b6000918252600a602090815260408084206001600160a01b0393909316845291905290205460ff1690565b6009602052600090815260409020805460018201805460ff8316936101009093046001600160a01b03169291906106a8906124fd565b80601f01602080910402602001604051908101604052809291908181526020018280546106d4906124fd565b80156107215780601f106106f657610100808354040283529160200191610721565b820191906000526020600020905b81548152906001019060200180831161070457829003601f168201915b505050505090806002018054610736906124fd565b80601f0160208091040260200160405190810160405280929190818152602001828054610762906124fd565b80156107af5780601f10610784576101008083540402835291602001916107af565b820191906000526020600020905b81548152906001019060200180831161079257829003601f168201915b5050505050905084565b6000805160206128958339815191526107d181610b52565b6107da82611282565b6107f66000805160206128958339815191528360000151610bd8565b5060005b8260200151518110156104d85761083c6000805160206128958339815191528460200151838151811061082f5761082f612537565b6020026020010151610bd8565b508061084781612576565b9150506107fa565b600061085a81610b52565b6108648383611372565b6108806000805160206128958339815191528460000151610bd8565b5060005b83602001515181101561049f576108b96000805160206128958339815191528560200151838151811061082f5761082f612537565b50806108c481612576565b915050610884565b6104d883838361147e565b60006108e281610b52565b6108ea610b5c565b6000821161093a5760405162461bcd60e51b815260206004820181905260248201527f416d6f756e74206d7573742062652067726561746572207468616e207a65726f60448201526064016103d2565b6004546001600160a01b03166109625760405162461bcd60e51b81526004016103d2906124a2565b60408051600180825281830190925260009160208083019080368337019050509050308160008151811061099857610998612537565b6001600160a01b03929092166020928302919091019091015260408051600180825281830190925260009181602001602082028036833701905050905083816000815181106109e9576109e9612537565b6020908102919091010152604080516001808252818301909252600091816020015b6060815260200190600190039081610a0b5790505090506040518060200160405280600081525081600081518110610a4557610a45612537565b6020908102919091010152600454610a6a90849084906001600160a01b0316846115ec565b84600c6000828254610a7c9190612563565b90915550506001600b5550610a8f915050565b5050565b6000828152600a6020526040902060010154610aae81610b52565b61049f8383610c6c565b61049f848484846115ec565b60088054610ad1906124fd565b80601f0160208091040260200160405190810160405280929190818152602001828054610afd906124fd565b8015610b4a5780601f10610b1f57610100808354040283529160200191610b4a565b820191906000526020600020905b815481529060010190602001808311610b2d57829003601f168201915b505050505081565b61047781336118d9565b6002600b5403610b7f57604051633ee5aeb560e01b815260040160405180910390fd5b6002600b55565b604080516001600160a01b038416602482015260448082018490528251808303909101815260649091019091526020810180516001600160e01b031663a9059cbb60e01b1790526104d8908490611912565b6000610be48383610647565b610c64576000838152600a602090815260408083206001600160a01b03861684529091529020805460ff19166001179055610c1c3390565b6001600160a01b0316826001600160a01b0316847f2f8788117e7eff1d82e926ec794901d17c78024a50270940304540a733656f0d60405160405180910390a4506001610391565b506000610391565b6000610c788383610647565b15610c64576000838152600a602090815260408083206001600160a01b0386168085529252808320805460ff1916905551339286917ff6391f5c32d9c69d2a47ea670b442974b53935d1edc7fd64eb21e047a839171b9190a4506001610391565b6001600160a01b0383811660009081526009602052604090205461010090041615610d3b5760405162461bcd60e51b8152602060048201526012602482015271105b1c9958591e481c9959da5cdd195c995960721b60448201526064016103d2565b60408051608081018252600080825233602080840191909152828401869052606083018590526001600160a01b0387168252600990529190912081518154829060ff19166001836002811115610d9357610d93612240565b0217905550602082015181546001600160a01b0390911661010002610100600160a81b031990911617815560408201516001820190610dd290826125d5565b5060608201516002820190610de790826125d5565b50905050336001600160a01b0316836001600160a01b03167f99202cc5abf24650e7ac53e3a81ff614768dcc7569a245376ed82eb4ce243fca8484604051610e30929190612694565b60405180910390a3505050565b83518015801590610e4e5750835181145b610e8f5760405162461bcd60e51b81526020600482015260126024820152714d69736d617463686564206c656e6774687360701b60448201526064016103d2565b60005b818110156111d657600083518210610eb95760405180602001604052806000815250610ed4565b838281518110610ecb57610ecb612537565b60200260200101515b905060006001600160a01b0316878381518110610ef357610ef3612537565b60200260200101516001600160a01b031603610f4d5760405162461bcd60e51b8152602060048201526019602482015278526563697069656e74206973207a65726f206164647265737360381b60448201526064016103d2565b6000868381518110610f6157610f61612537565b6020026020010151118015610ff657506040516370a0823160e01b81523060048201526001600160a01b038616906370a0823190602401602060405180830381865afa158015610fb5573d6000803e3d6000fd5b505050506040513d601f19601f82011682018060405250810190610fd991906124e4565b868381518110610feb57610feb612537565b602002602001015111155b61104c5760405162461bcd60e51b815260206004820152602160248201527f416d6f756e74206973207a65726f206f7220657863656564732062616c616e636044820152606560f81b60648201526084016103d2565b61108a87838151811061106157611061612537565b602002602001015187848151811061107b5761107b612537565b60200260200101518784611975565b846001600160a01b031663a9059cbb8884815181106110ab576110ab612537565b60200260200101518885815181106110c5576110c5612537565b60200260200101516040518363ffffffff1660e01b81526004016110fe9291906001600160a01b03929092168252602082015260400190565b6020604051808303816000875af115801561111d573d6000803e3d6000fd5b505050506040513d601f19601f8201168201806040525081019061114191906126c2565b5086828151811061115457611154612537565b60200260200101516001600160a01b0316306001600160a01b03167f68179208818f375bd941a067e321c35e8cebc048007cd126acd94625989a7b758885815181106111a2576111a2612537565b602002602001015188856040516111bb939291906126e4565b60405180910390a350806111ce81612576565b915050610e92565b505050505050565b6001600160a01b038416600090815260096020526040902060ff8416600281111561120b5761120b612240565b8154829060ff1916600183600281111561122757611227612240565b0217905550336001600160a01b0316856001600160a01b03167f76dfcb7079d175d526d40b126e4a1cc466c3855e25ba5b37c3168609060e1d788686866040516112739392919061270e565b60405180910390a35050505050565b8051600180546001600160a01b0319166001600160a01b0390921691909117815560208083015180518493926112bd92600292910190611b87565b5060408201516002820180546001600160a01b039283166001600160a01b03199182161790915560608401516003840180549190931691161790556080820151600482015560a0820151805161131d916005840191602090910190611bec565b5060c0820151600682019061133290826125d5565b50506040513391507f7262fa021611ce5fba1be5b0e369cd9209c8d8408b2f67329285403f6d5a048d90611367908490612780565b60405180910390a250565b60005460ff16156113bb5760405162461bcd60e51b8152602060048201526013602482015272105b1c9958591e481a5b9a5d1a585b1a5e9959606a1b60448201526064016103d2565b60008054600160ff199091168117909155825181546001600160a01b0319166001600160a01b03909116178155602080840151805185939261140292600292910190611b87565b5060408201516002820180546001600160a01b039283166001600160a01b03199182161790915560608401516003840180549190931691161790556080820151600482015560a08201518051611462916005840191602090910190611bec565b5060c0820151600682019061147790826125d5565b5050505050565b6001600160a01b0383811660009081526009602052604090205461010090041633146114ec5760405162461bcd60e51b815260206004820152601760248201527f4d757374206265206f776e657220746f2075706461746500000000000000000060448201526064016103d2565b60016001600160a01b03841660009081526009602052604090205460ff16600281111561151b5761151b612240565b0361155b5760405162461bcd60e51b815260206004820152601060248201526f105b1c9958591e48185c1c1c9bdd995960821b60448201526064016103d2565b6001600160a01b038316600090815260096020526040902060010161158083826125d5565b506001600160a01b03831660009081526009602052604090206002016115a682826125d5565b50336001600160a01b0316836001600160a01b03167f639b764af06689bf35c6ebc1ae49051aa4b4d3a3d34d5c70bf8626087352e99d8484604051610e30929190612694565b835180158015906115fd5750835181145b61163e5760405162461bcd60e51b81526020600482015260126024820152714d69736d617463686564206c656e6774687360701b60448201526064016103d2565b60005b818110156111d6576000835182106116685760405180602001604052806000815250611683565b83828151811061167a5761167a612537565b60200260200101515b905060006001600160a01b03168783815181106116a2576116a2612537565b60200260200101516001600160a01b0316036116fc5760405162461bcd60e51b8152602060048201526019602482015278526563697069656e74206973207a65726f206164647265737360381b60448201526064016103d2565b600086838151811061171057611710612537565b6020026020010151116117565760405162461bcd60e51b815260206004820152600e60248201526d416d6f756e74206973207a65726f60901b60448201526064016103d2565b61178587838151811061176b5761176b612537565b60200260200101518784815181106104d8576104d8612537565b846001600160a01b03166323b872dd338985815181106117a7576117a7612537565b60200260200101518986815181106117c1576117c1612537565b60209081029190910101516040516001600160e01b031960e086901b1681526001600160a01b03938416600482015292909116602483015260448201526064016020604051808303816000875af1158015611820573d6000803e3d6000fd5b505050506040513d601f19601f8201168201806040525081019061184491906126c2565b5086828151811061185757611857612537565b60200260200101516001600160a01b0316336001600160a01b03167f68179208818f375bd941a067e321c35e8cebc048007cd126acd94625989a7b758885815181106118a5576118a5612537565b602002602001015188856040516118be939291906126e4565b60405180910390a350806118d181612576565b915050611641565b6118e38282610647565b610a8f5760405163e2517d3f60e01b81526001600160a01b0382166004820152602481018390526044016103d2565b60006119276001600160a01b03841683611a50565b9050805160001415801561194c57508080602001905181019061194a91906126c2565b155b156104d857604051635274afe760e01b81526001600160a01b03841660048201526024016103d2565b6000808280602001905181019061198c9190612854565b6040516370a0823160e01b815230600482015291935091506000906001600160a01b038616906370a0823190602401602060405180830381865afa1580156119d8573d6000803e3d6000fd5b505050506040513d601f19601f820116820180604052508101906119fc91906124e4565b905080861115611a475760405162461bcd60e51b8152602060048201526016602482015275416d6f756e7420657863656564732062616c616e636560501b60448201526064016103d2565b50505050505050565b6060611a5e83836000611a65565b9392505050565b606081471015611a8a5760405163cd78605960e01b81523060048201526024016103d2565b600080856001600160a01b03168486604051611aa69190612878565b60006040518083038185875af1925050503d8060008114611ae3576040519150601f19603f3d011682016040523d82523d6000602084013e611ae8565b606091505b5091509150611af8868383611b02565b9695505050505050565b606082611b1757611b1282611b5e565b611a5e565b8151158015611b2e57506001600160a01b0384163b155b15611b5757604051639996b31560e01b81526001600160a01b03851660048201526024016103d2565b5080611a5e565b805115611b6e5780518082602001fd5b604051630a12f52160e11b815260040160405180910390fd5b828054828255906000526020600020908101928215611bdc579160200282015b82811115611bdc57825182546001600160a01b0319166001600160a01b03909116178255602090920191600190910190611ba7565b50611be8929150611c9b565b5090565b82805482825590600052602060002090600301600490048101928215611bdc5791602002820160005b83821115611c5f57835183826101000a8154816001600160401b0302191690836001600160401b031602179055509260200192600801602081600701049283019260010302611c15565b8015611c925782816101000a8154906001600160401b030219169055600801602081600701049283019260010302611c5f565b5050611be89291505b5b80821115611be85760008155600101611c9c565b600060208284031215611cc257600080fd5b81356001600160e01b031981168114611a5e57600080fd5b600060208284031215611cec57600080fd5b5035919050565b80356001600160a01b0381168114611d0a57600080fd5b919050565b60008060408385031215611d2257600080fd5b82359150611d3260208401611cf3565b90509250929050565b634e487b7160e01b600052604160045260246000fd5b60405160e081016001600160401b0381118282101715611d7357611d73611d3b565b60405290565b604051601f8201601f191681016001600160401b0381118282101715611da157611da1611d3b565b604052919050565b600082601f830112611dba57600080fd5b81356001600160401b03811115611dd357611dd3611d3b565b611de6601f8201601f1916602001611d79565b818152846020838601011115611dfb57600080fd5b816020850160208301376000918101602001919091529392505050565b600080600060608486031215611e2d57600080fd5b611e3684611cf3565b925060208401356001600160401b0380821115611e5257600080fd5b611e5e87838801611da9565b93506040860135915080821115611e7457600080fd5b50611e8186828701611da9565b9150509250925092565b60006001600160401b03821115611ea457611ea4611d3b565b5060051b60200190565b600082601f830112611ebf57600080fd5b81356020611ed4611ecf83611e8b565b611d79565b82815260059290921b84018101918181019086841115611ef357600080fd5b8286015b84811015611f1557611f0881611cf3565b8352918301918301611ef7565b509695505050505050565b600082601f830112611f3157600080fd5b81356020611f41611ecf83611e8b565b82815260059290921b84018101918181019086841115611f6057600080fd5b8286015b84811015611f155780358352918301918301611f64565b600082601f830112611f8c57600080fd5b81356020611f9c611ecf83611e8b565b82815260059290921b84018101918181019086841115611fbb57600080fd5b8286015b84811015611f155780356001600160401b03811115611fde5760008081fd5b611fec8986838b0101611da9565b845250918301918301611fbf565b6000806000806080858703121561201057600080fd5b84356001600160401b038082111561202757600080fd5b61203388838901611eae565b9550602087013591508082111561204957600080fd5b61205588838901611f20565b945061206360408801611cf3565b9350606087013591508082111561207957600080fd5b5061208687828801611f7b565b91505092959194509250565b60005b838110156120ad578181015183820152602001612095565b50506000910152565b600081518084526120ce816020860160208601612092565b601f01601f19169290920160200192915050565b6001600160a01b0386811682528581166020830152841660408201526060810183905260a06080820181905260009061211d908301846120b6565b979650505050505050565b60008060006060848603121561213d57600080fd5b83356001600160401b038082111561215457600080fd5b61216087838801611eae565b9450602086013591508082111561217657600080fd5b61218287838801611f20565b9350604086013591508082111561219857600080fd5b50611e8186828701611f7b565b600080600080608085870312156121bb57600080fd5b6121c485611cf3565b9350602085013560ff811681146121da57600080fd5b925060408501356001600160401b03808211156121f657600080fd5b61220288838901611da9565b9350606087013591508082111561221857600080fd5b5061208687828801611da9565b60006020828403121561223757600080fd5b611a5e82611cf3565b634e487b7160e01b600052602160045260246000fd5b60006003861061227657634e487b7160e01b600052602160045260246000fd5b8582526001600160a01b038516602083015260806040830181905261229d908301856120b6565b828103606084015261211d81856120b6565b600082601f8301126122c057600080fd5b813560206122d0611ecf83611e8b565b82815260059290921b840181019181810190868411156122ef57600080fd5b8286015b84811015611f155780356001600160401b03811681146123135760008081fd5b83529183019183016122f3565b600060e0828403121561233257600080fd5b61233a611d51565b905061234582611cf3565b815260208201356001600160401b038082111561236157600080fd5b61236d85838601611eae565b602084015261237e60408501611cf3565b604084015261238f60608501611cf3565b60608401526080840135608084015260a08401359150808211156123b257600080fd5b6123be858386016122af565b60a084015260c08401359150808211156123d757600080fd5b506123e484828501611da9565b60c08301525092915050565b60006020828403121561240257600080fd5b81356001600160401b0381111561241857600080fd5b61242484828501612320565b949350505050565b6000806040838503121561243f57600080fd5b82356001600160401b038082111561245657600080fd5b61246286838701612320565b9350602085013591508082111561247857600080fd5b5061248585828601611da9565b9150509250929050565b602081526000611a5e60208301846120b6565b60208082526022908201527f546f6b656e2028646973747269627574696f6e20746f6b656e29206e6f742073604082015261195d60f21b606082015260800190565b6000602082840312156124f657600080fd5b5051919050565b600181811c9082168061251157607f821691505b60208210810361253157634e487b7160e01b600052602260045260246000fd5b50919050565b634e487b7160e01b600052603260045260246000fd5b634e487b7160e01b600052601160045260246000fd5b808201808211156103915761039161254d565b6000600182016125885761258861254d565b5060010190565b601f8211156104d857600081815260208120601f850160051c810160208610156125b65750805b601f850160051c820191505b818110156111d6578281556001016125c2565b81516001600160401b038111156125ee576125ee611d3b565b612602816125fc84546124fd565b8461258f565b602080601f831160018114612637576000841561261f5750858301515b600019600386901b1c1916600185901b1785556111d6565b600085815260208120601f198616915b8281101561266657888601518255948401946001909101908401612647565b50858210156126845787850151600019600388901b60f8161c191681555b5050505050600190811b01905550565b6040815260006126a760408301856120b6565b82810360208401526126b981856120b6565b95945050505050565b6000602082840312156126d457600080fd5b81518015158114611a5e57600080fd5b8381526001600160a01b03831660208201526060604082018190526000906126b9908301846120b6565b60ff8416815260606020820152600061272a60608301856120b6565b8281036040840152611af881856120b6565b600081518084526020808501945080840160005b838110156127755781516001600160401b031687529582019590820190600101612750565b509495945050505050565b602080825282516001600160a01b03908116838301528382015160e060408501528051610100850181905260009392918301919084906101208701905b808310156127df578451841682529385019360019290920191908501906127bd565b5060408801516001600160a01b0381166060890152945060608801516001600160a01b03811660808901529450608088015160a088015260a08801519450601f199350838782030160c0880152612836818661273c565b945050505060c0850151818584030160e0860152611af883826120b6565b6000806040838503121561286757600080fd5b505080516020909101519092909150565b6000825161288a818460208701612092565b919091019291505056fea49807205ce4d355092ef5a8a18f56e8913cf4a201fbe287825b095693c21775a2646970667358221220ee2b2494a97a383f8789670cf9e1275ec3b6e95bdbac6cfaa7984b0ece4dcb3064736f6c63430008140033",
  "devdoc": {
    "errors": {
      "AccessControlBadConfirmation()": [
        {
          "details": "The caller of a function is not the expected one. NOTE: Don't confuse with {AccessControlUnauthorizedAccount}."
        }
      ],
      "AccessControlUnauthorizedAccount(address,bytes32)": [
        {
          "details": "The `account` is missing a role."
        }
      ],
      "AddressEmptyCode(address)": [
        {
          "details": "There's no code at `target` (it is not a contract)."
        }
      ],
      "AddressInsufficientBalance(address)": [
        {
          "details": "The ETH balance of the account is not enough to perform the operation."
        }
      ],
      "FailedInnerCall()": [
        {
          "details": "A call to an address target failed. The target may have reverted."
        }
      ],
      "ReentrancyGuardReentrantCall()": [
        {
          "details": "Unauthorized reentrant call."
        }
      ],
      "SafeERC20FailedOperation(address)": [
        {
          "details": "An operation with an ERC20 token failed."
        }
      ]
    },
    "events": {
      "RoleAdminChanged(bytes32,bytes32,bytes32)": {
        "details": "Emitted when `newAdminRole` is set as ``role``'s admin role, replacing `previousAdminRole` `DEFAULT_ADMIN_ROLE` is the starting admin for all roles, despite {RoleAdminChanged} not being emitted signaling this."
      },
      "RoleGranted(bytes32,address,address)": {
        "details": "Emitted when `account` is granted `role`. `sender` is the account that originated the contract call, an admin role bearer except when using {AccessControl-_setupRole}."
      },
      "RoleRevoked(bytes32,address,address)": {
        "details": "Emitted when `account` is revoked `role`. `sender` is the account that originated the contract call:   - if using `revokeRole`, it is the admin role bearer   - if using `renounceRole`, it is the role bearer (i.e. `account`)"
      }
    },
    "kind": "dev",
    "methods": {
      "configure((address,address[],address,address,uint256,uint64[],string))": {
        "params": {
          "_config": "The configuration for the pool."
        }
      },
      "constructor": {
        "params": {
          "_metadataURI": "The metadata URI of the pool.",
          "_name": "The name of the pool.",
          "_schema": "The schema of the pool."
        }
      },
      "distribute(address[],uint256[],bytes[])": {
        "details": "This function can only be called by the contract owner or admins.",
        "params": {
          "amounts": "The amounts of tokens to distribute to each recipient.",
          "data": "Additional data that can be used during distribution, such as attestation UIDs.",
          "recipients": "The addresses of the recipients to distribute tokens to."
        }
      },
      "fund(uint256)": {
        "params": {
          "amount": "The amount of tokens to top up the pool with."
        }
      },
      "getRoleAdmin(bytes32)": {
        "details": "Returns the admin role that controls `role`. See {grantRole} and {revokeRole}. To change a role's admin, use {_setRoleAdmin}."
      },
      "grantRole(bytes32,address)": {
        "details": "Grants `role` to `account`. If `account` had not been already granted `role`, emits a {RoleGranted} event. Requirements: - the caller must have ``role``'s admin role. May emit a {RoleGranted} event."
      },
      "hasRole(bytes32,address)": {
        "details": "Returns `true` if `account` has been granted `role`."
      },
      "initialize((address,address[],address,address,uint256,uint64[],string),bytes)": {
        "params": {
          "_config": "The configuration for the pool.",
          "data": "Additional data that can be used during initialization."
        }
      },
      "liquidate()": {
        "details": "This function can only be called by the contract owner."
      },
      "renounceRole(bytes32,address)": {
        "details": "Revokes `role` from the calling account. Roles are often managed via {grantRole} and {revokeRole}: this function's purpose is to provide a mechanism for accounts to lose their privileges if they are compromised (such as when a trusted device is misplaced). If the calling account had been revoked `role`, emits a {RoleRevoked} event. Requirements: - the caller must be `callerConfirmation`. May emit a {RoleRevoked} event."
      },
      "revokeRole(bytes32,address)": {
        "details": "Revokes `role` from `account`. If `account` had been granted `role`, emits a {RoleRevoked} event. Requirements: - the caller must have ``role``'s admin role. May emit a {RoleRevoked} event."
      },
      "supportsInterface(bytes4)": {
        "details": "See {IERC165-supportsInterface}."
      }
    },
    "version": 1
  },
  "userdoc": {
    "kind": "user",
    "methods": {
      "configure((address,address[],address,address,uint256,uint64[],string))": {
        "notice": "Configures the pool with the provided configuration and grants the admin role to the owner and admins specified in the config."
      },
      "constructor": {
        "notice": "Constructor that initializes the pool with the provided name, schema, and metadata URI and grants the deployer the default admin role."
      },
      "distribute(address[],uint256[],bytes[])": {
        "notice": "Transfers tokens from the contract to recipients."
      },
      "fund(uint256)": {
        "notice": "Tops up the pool with the specified amount of tokens configured in either initialize() or configure() then updates the amountDeployed tracking variable."
      },
      "getTotalDistributed()": {
        "notice": "Returns the total amount of tokens distributed from the pool."
      },
      "getTotalFunded()": {
        "notice": "Returns the total amount of tokens funded in the pool."
      },
      "initialize((address,address[],address,address,uint256,uint64[],string),bytes)": {
        "notice": "Initializes the pool with the provided configuration and grants the admin role to the owner and admins specified in the config."
      },
      "liquidate()": {
        "notice": "Sends the contract's balance back to the owner."
      }
    },
    "version": 1
  },
  "storageLayout": {
    "storage": [
      {
        "astId": 3143,
        "contract": "contracts/strategies/SilviVerificationStrategy.sol:SilviVerificationStrategy",
        "label": "_initialized",
        "offset": 0,
        "slot": "0",
        "type": "t_bool"
      },
      {
        "astId": 3146,
        "contract": "contracts/strategies/SilviVerificationStrategy.sol:SilviVerificationStrategy",
        "label": "config",
        "offset": 0,
        "slot": "1",
        "type": "t_struct(PoolConfig)2987_storage"
      },
      {
        "astId": 3148,
        "contract": "contracts/strategies/SilviVerificationStrategy.sol:SilviVerificationStrategy",
        "label": "schema",
        "offset": 0,
        "slot": "8",
        "type": "t_string_storage"
      },
      {
        "astId": 3153,
        "contract": "contracts/strategies/SilviVerificationStrategy.sol:SilviVerificationStrategy",
        "label": "registrations",
        "offset": 0,
        "slot": "9",
        "type": "t_mapping(t_address,t_struct(Registration)3001_storage)"
      },
      {
        "astId": 522,
        "contract": "contracts/strategies/SilviVerificationStrategy.sol:SilviVerificationStrategy",
        "label": "_roles",
        "offset": 0,
        "slot": "10",
        "type": "t_mapping(t_bytes32,t_struct(RoleData)517_storage)"
      },
      {
        "astId": 2335,
        "contract": "contracts/strategies/SilviVerificationStrategy.sol:SilviVerificationStrategy",
        "label": "_status",
        "offset": 0,
        "slot": "11",
        "type": "t_uint256"
      },
      {
        "astId": 4435,
        "contract": "contracts/strategies/SilviVerificationStrategy.sol:SilviVerificationStrategy",
        "label": "totalFunded",
        "offset": 0,
        "slot": "12",
        "type": "t_uint256"
      },
      {
        "astId": 4438,
        "contract": "contracts/strategies/SilviVerificationStrategy.sol:SilviVerificationStrategy",
        "label": "totalDistributed",
        "offset": 0,
        "slot": "13",
        "type": "t_uint256"
      },
      {
        "astId": 4441,
        "contract": "contracts/strategies/SilviVerificationStrategy.sol:SilviVerificationStrategy",
        "label": "eas",
        "offset": 0,
        "slot": "14",
        "type": "t_contract(IEAS)372"
      }
    ],
    "types": {
      "t_address": {
        "encoding": "inplace",
        "label": "address",
        "numberOfBytes": "20"
      },
      "t_array(t_address)dyn_storage": {
        "base": "t_address",
        "encoding": "dynamic_array",
        "label": "address[]",
        "numberOfBytes": "32"
      },
      "t_array(t_uint64)dyn_storage": {
        "base": "t_uint64",
        "encoding": "dynamic_array",
        "label": "uint64[]",
        "numberOfBytes": "32"
      },
      "t_bool": {
        "encoding": "inplace",
        "label": "bool",
        "numberOfBytes": "1"
      },
      "t_bytes32": {
        "encoding": "inplace",
        "label": "bytes32",
        "numberOfBytes": "32"
      },
      "t_bytes_storage": {
        "encoding": "bytes",
        "label": "bytes",
        "numberOfBytes": "32"
      },
      "t_contract(IEAS)372": {
        "encoding": "inplace",
        "label": "contract IEAS",
        "numberOfBytes": "20"
      },
      "t_enum(Status)2991": {
        "encoding": "inplace",
        "label": "enum IPool.Status",
        "numberOfBytes": "1"
      },
      "t_mapping(t_address,t_bool)": {
        "encoding": "mapping",
        "key": "t_address",
        "label": "mapping(address => bool)",
        "numberOfBytes": "32",
        "value": "t_bool"
      },
      "t_mapping(t_address,t_struct(Registration)3001_storage)": {
        "encoding": "mapping",
        "key": "t_address",
        "label": "mapping(address => struct IPool.Registration)",
        "numberOfBytes": "32",
        "value": "t_struct(Registration)3001_storage"
      },
      "t_mapping(t_bytes32,t_struct(RoleData)517_storage)": {
        "encoding": "mapping",
        "key": "t_bytes32",
        "label": "mapping(bytes32 => struct AccessControl.RoleData)",
        "numberOfBytes": "32",
        "value": "t_struct(RoleData)517_storage"
      },
      "t_string_storage": {
        "encoding": "bytes",
        "label": "string",
        "numberOfBytes": "32"
      },
      "t_struct(PoolConfig)2987_storage": {
        "encoding": "inplace",
        "label": "struct PoolConfig",
        "members": [
          {
            "astId": 2972,
            "contract": "contracts/strategies/SilviVerificationStrategy.sol:SilviVerificationStrategy",
            "label": "owner",
            "offset": 0,
            "slot": "0",
            "type": "t_address"
          },
          {
            "astId": 2975,
            "contract": "contracts/strategies/SilviVerificationStrategy.sol:SilviVerificationStrategy",
            "label": "admins",
            "offset": 0,
            "slot": "1",
            "type": "t_array(t_address)dyn_storage"
          },
          {
            "astId": 2977,
            "contract": "contracts/strategies/SilviVerificationStrategy.sol:SilviVerificationStrategy",
            "label": "allocationToken",
            "offset": 0,
            "slot": "2",
            "type": "t_address"
          },
          {
            "astId": 2979,
            "contract": "contracts/strategies/SilviVerificationStrategy.sol:SilviVerificationStrategy",
            "label": "distributionToken",
            "offset": 0,
            "slot": "3",
            "type": "t_address"
          },
          {
            "astId": 2981,
            "contract": "contracts/strategies/SilviVerificationStrategy.sol:SilviVerificationStrategy",
            "label": "maxAmount",
            "offset": 0,
            "slot": "4",
            "type": "t_uint256"
          },
          {
            "astId": 2984,
            "contract": "contracts/strategies/SilviVerificationStrategy.sol:SilviVerificationStrategy",
            "label": "timestamps",
            "offset": 0,
            "slot": "5",
            "type": "t_array(t_uint64)dyn_storage"
          },
          {
            "astId": 2986,
            "contract": "contracts/strategies/SilviVerificationStrategy.sol:SilviVerificationStrategy",
            "label": "metadataURI",
            "offset": 0,
            "slot": "6",
            "type": "t_string_storage"
          }
        ],
        "numberOfBytes": "224"
      },
      "t_struct(Registration)3001_storage": {
        "encoding": "inplace",
        "label": "struct IPool.Registration",
        "members": [
          {
            "astId": 2994,
            "contract": "contracts/strategies/SilviVerificationStrategy.sol:SilviVerificationStrategy",
            "label": "status",
            "offset": 0,
            "slot": "0",
            "type": "t_enum(Status)2991"
          },
          {
            "astId": 2996,
            "contract": "contracts/strategies/SilviVerificationStrategy.sol:SilviVerificationStrategy",
            "label": "owner",
            "offset": 1,
            "slot": "0",
            "type": "t_address"
          },
          {
            "astId": 2998,
            "contract": "contracts/strategies/SilviVerificationStrategy.sol:SilviVerificationStrategy",
            "label": "metadataURI",
            "offset": 0,
            "slot": "1",
            "type": "t_string_storage"
          },
          {
            "astId": 3000,
            "contract": "contracts/strategies/SilviVerificationStrategy.sol:SilviVerificationStrategy",
            "label": "data",
            "offset": 0,
            "slot": "2",
            "type": "t_bytes_storage"
          }
        ],
        "numberOfBytes": "96"
      },
      "t_struct(RoleData)517_storage": {
        "encoding": "inplace",
        "label": "struct AccessControl.RoleData",
        "members": [
          {
            "astId": 514,
            "contract": "contracts/strategies/SilviVerificationStrategy.sol:SilviVerificationStrategy",
            "label": "hasRole",
            "offset": 0,
            "slot": "0",
            "type": "t_mapping(t_address,t_bool)"
          },
          {
            "astId": 516,
            "contract": "contracts/strategies/SilviVerificationStrategy.sol:SilviVerificationStrategy",
            "label": "adminRole",
            "offset": 0,
            "slot": "1",
            "type": "t_bytes32"
          }
        ],
        "numberOfBytes": "64"
      },
      "t_uint256": {
        "encoding": "inplace",
        "label": "uint256",
        "numberOfBytes": "32"
      },
      "t_uint64": {
        "encoding": "inplace",
        "label": "uint64",
        "numberOfBytes": "8"
      }
    }
  }
}