{
  "address": "0x7eB1943f456ca2Dd836448815f96884e7a8044E5",
  "abi": [
    {
      "inputs": [],
      "name": "ERC1167FailedCreateClone",
      "type": "error"
    },
    {
      "anonymous": false,
      "inputs": [
        {
          "indexed": true,
          "internalType": "address",
          "name": "strategy",
          "type": "address"
        },
        {
          "indexed": true,
          "internalType": "address",
          "name": "pool",
          "type": "address"
        },
        {
          "components": [
            {
              "internalType": "address",
              "name": "owner",
              "type": "address"
            },
            {
              "internalType": "address[]",
              "name": "admins",
              "type": "address[]"
            },
            {
              "internalType": "address",
              "name": "allocationToken",
              "type": "address"
            },
            {
              "internalType": "address",
              "name": "distributionToken",
              "type": "address"
            },
            {
              "internalType": "uint256",
              "name": "maxAmount",
              "type": "uint256"
            },
            {
              "internalType": "uint64[]",
              "name": "timestamps",
              "type": "uint64[]"
            },
            {
              "internalType": "string",
              "name": "metadataURI",
              "type": "string"
            }
          ],
          "indexed": false,
          "internalType": "struct PoolConfig",
          "name": "config",
          "type": "tuple"
        },
        {
          "indexed": false,
          "internalType": "bytes",
          "name": "data",
          "type": "bytes"
        }
      ],
      "name": "Created",
      "type": "event"
    },
    {
      "inputs": [
        {
          "internalType": "address",
          "name": "implementation",
          "type": "address"
        },
        {
          "components": [
            {
              "internalType": "address",
              "name": "owner",
              "type": "address"
            },
            {
              "internalType": "address[]",
              "name": "admins",
              "type": "address[]"
            },
            {
              "internalType": "address",
              "name": "allocationToken",
              "type": "address"
            },
            {
              "internalType": "address",
              "name": "distributionToken",
              "type": "address"
            },
            {
              "internalType": "uint256",
              "name": "maxAmount",
              "type": "uint256"
            },
            {
              "internalType": "uint64[]",
              "name": "timestamps",
              "type": "uint64[]"
            },
            {
              "internalType": "string",
              "name": "metadataURI",
              "type": "string"
            }
          ],
          "internalType": "struct PoolConfig",
          "name": "config",
          "type": "tuple"
        },
        {
          "internalType": "bytes",
          "name": "data",
          "type": "bytes"
        }
      ],
      "name": "deploy",
      "outputs": [
        {
          "internalType": "address",
          "name": "",
          "type": "address"
        }
      ],
      "stateMutability": "nonpayable",
      "type": "function"
    }
  ],
  "transactionHash": "0x76af4255080ffd0f29a9270a71140ab87071df248a82603b7304f8ed1c7f1274",
  "args": [],
  "numDeployments": 4,
  "solcInputHash": "69fc679585ad4edafe41e4330f370be9",
  "bytecode": "0x608060405234801561001057600080fd5b506104c7806100206000396000f3fe608060405234801561001057600080fd5b506004361061002b5760003560e01c80633938e38c14610030575b600080fd5b61004361003e3660046101b1565b61005f565b6040516001600160a01b03909116815260200160405180910390f35b60008061006b86610128565b60405163ab21f50760e01b81529091506001600160a01b0382169063ab21f5079061009e9088908890889060040161036a565b600060405180830381600087803b1580156100b857600080fd5b505af11580156100cc573d6000803e3d6000fd5b50505050806001600160a01b0316866001600160a01b03167f744457ffa91321191756df789f7db35659c3bdf903b8872f8c891b1cd884044d8787876040516101179392919061036a565b60405180910390a395945050505050565b6000763d602d80600a3d3981f3363d3d373d3d3d363d730000008260601b60e81c176000526e5af43d82803e903d91602b57fd5bf38260781b17602052603760096000f090506001600160a01b038116610195576040516330be1a3d60e21b815260040160405180910390fd5b919050565b80356001600160a01b038116811461019557600080fd5b600080600080606085870312156101c757600080fd5b6101d08561019a565b9350602085013567ffffffffffffffff808211156101ed57600080fd5b9086019060e0828903121561020157600080fd5b9093506040860135908082111561021757600080fd5b818701915087601f83011261022b57600080fd5b81358181111561023a57600080fd5b88602082850101111561024c57600080fd5b95989497505060200194505050565b6000808335601e1984360301811261027257600080fd5b830160208101925035905067ffffffffffffffff81111561029257600080fd5b8060051b36038213156102a457600080fd5b9250929050565b818352600060208085019450826000805b868110156102ef57823567ffffffffffffffff81168082146102dc578384fd5b89525096830196918301916001016102bc565b50959695505050505050565b6000808335601e1984360301811261031257600080fd5b830160208101925035905067ffffffffffffffff81111561033257600080fd5b8036038213156102a457600080fd5b81835281816020850137506000828201602090810191909152601f909101601f19169091010190565b60408152600061012082016001600160a01b03806103878861019a565b166040850152602061039b8189018961025b565b60e06060880152938490529260009061014087015b818310156103d757846103c28761019a565b168152948301946001929092019183016103b0565b6103e360408c0161019a565b6001600160a01b03811660808a0152955061040060608c0161019a565b6001600160a01b03811660a08a0152955060808b013560c089015261042860a08c018c61025b565b96509450603f199250828882030160e08901526104468187876102ab565b9550505061045760c08a018a6102fb565b9350818786030161010088015261046f858583610341565b94505050848303818601525050610487818587610341565b969550505050505056fea2646970667358221220cc85dbb7eae4e2188432fc8054cf89fb11c7c988567f474d645411c4e6503cb764736f6c63430008140033",
  "devdoc": {
    "errors": {
      "ERC1167FailedCreateClone()": [
        {
          "details": "A clone instance deployment failed."
        }
      ]
    },
    "kind": "dev",
    "methods": {},
    "version": 1
  },
  "userdoc": {
    "kind": "user",
    "methods": {},
    "version": 1
  },
  "storageLayout": {
    "storage": [],
    "types": null
  }
}