{
  "address": "0xfEEea06376ebE63CFca49f6511bDc1fEED2fb998",
  "abi": [
    {
      "inputs": [
        {
          "internalType": "string",
          "name": "_name",
          "type": "string"
        },
        {
          "internalType": "string",
          "name": "_schema",
          "type": "string"
        },
        {
          "internalType": "string",
          "name": "_metadataURI",
          "type": "string"
        }
      ],
      "stateMutability": "nonpayable",
      "type": "constructor"
    },
    {
      "inputs": [],
      "name": "AccessControlBadConfirmation",
      "type": "error"
    },
    {
      "inputs": [
        {
          "internalType": "address",
          "name": "account",
          "type": "address"
        },
        {
          "internalType": "bytes32",
          "name": "neededRole",
          "type": "bytes32"
        }
      ],
      "name": "AccessControlUnauthorizedAccount",
      "type": "error"
    },
    {
      "inputs": [],
      "name": "ReentrancyGuardReentrantCall",
      "type": "error"
    },
    {
      "anonymous": false,
      "inputs": [
        {
          "indexed": true,
          "internalType": "address",
          "name": "from",
          "type": "address"
        },
        {
          "indexed": true,
          "internalType": "address",
          "name": "to",
          "type": "address"
        },
        {
          "indexed": false,
          "internalType": "uint256",
          "name": "amount",
          "type": "uint256"
        },
        {
          "indexed": false,
          "internalType": "address",
          "name": "token",
          "type": "address"
        },
        {
          "indexed": false,
          "internalType": "bytes",
          "name": "data",
          "type": "bytes"
        }
      ],
      "name": "Allocate",
      "type": "event"
    },
    {
      "anonymous": false,
      "inputs": [
        {
          "indexed": true,
          "internalType": "address",
          "name": "updater",
          "type": "address"
        },
        {
          "components": [
            {
              "internalType": "address",
              "name": "owner",
              "type": "address"
            },
            {
              "internalType": "address[]",
              "name": "admins",
              "type": "address[]"
            },
            {
              "internalType": "address",
              "name": "allocationToken",
              "type": "address"
            },
            {
              "internalType": "address",
              "name": "distributionToken",
              "type": "address"
            },
            {
              "internalType": "uint256",
              "name": "maxAmount",
              "type": "uint256"
            },
            {
              "internalType": "uint64[]",
              "name": "timestamps",
              "type": "uint64[]"
            },
            {
              "internalType": "string",
              "name": "metadataURI",
              "type": "string"
            }
          ],
          "indexed": false,
          "internalType": "struct PoolConfig",
          "name": "config",
          "type": "tuple"
        }
      ],
      "name": "Configure",
      "type": "event"
    },
    {
      "anonymous": false,
      "inputs": [
        {
          "indexed": false,
          "internalType": "string",
          "name": "name",
          "type": "string"
        },
        {
          "indexed": true,
          "internalType": "address",
          "name": "owner",
          "type": "address"
        },
        {
          "indexed": false,
          "internalType": "string",
          "name": "schema",
          "type": "string"
        },
        {
          "indexed": false,
          "internalType": "string",
          "name": "metadataURI",
          "type": "string"
        }
      ],
      "name": "Deployed",
      "type": "event"
    },
    {
      "anonymous": false,
      "inputs": [
        {
          "indexed": true,
          "internalType": "address",
          "name": "project",
          "type": "address"
        },
        {
          "indexed": true,
          "internalType": "address",
          "name": "owner",
          "type": "address"
        },
        {
          "indexed": false,
          "internalType": "string",
          "name": "metadataURI",
          "type": "string"
        },
        {
          "indexed": false,
          "internalType": "bytes",
          "name": "data",
          "type": "bytes"
        }
      ],
      "name": "Register",
      "type": "event"
    },
    {
      "anonymous": false,
      "inputs": [
        {
          "indexed": true,
          "internalType": "address",
          "name": "project",
          "type": "address"
        },
        {
          "indexed": false,
          "internalType": "uint8",
          "name": "status",
          "type": "uint8"
        },
        {
          "indexed": true,
          "internalType": "address",
          "name": "approver",
          "type": "address"
        },
        {
          "indexed": false,
          "internalType": "string",
          "name": "metadataURI",
          "type": "string"
        },
        {
          "indexed": false,
          "internalType": "bytes",
          "name": "data",
          "type": "bytes"
        }
      ],
      "name": "Review",
      "type": "event"
    },
    {
      "anonymous": false,
      "inputs": [
        {
          "indexed": true,
          "internalType": "bytes32",
          "name": "role",
          "type": "bytes32"
        },
        {
          "indexed": true,
          "internalType": "bytes32",
          "name": "previousAdminRole",
          "type": "bytes32"
        },
        {
          "indexed": true,
          "internalType": "bytes32",
          "name": "newAdminRole",
          "type": "bytes32"
        }
      ],
      "name": "RoleAdminChanged",
      "type": "event"
    },
    {
      "anonymous": false,
      "inputs": [
        {
          "indexed": true,
          "internalType": "bytes32",
          "name": "role",
          "type": "bytes32"
        },
        {
          "indexed": true,
          "internalType": "address",
          "name": "account",
          "type": "address"
        },
        {
          "indexed": true,
          "internalType": "address",
          "name": "sender",
          "type": "address"
        }
      ],
      "name": "RoleGranted",
      "type": "event"
    },
    {
      "anonymous": false,
      "inputs": [
        {
          "indexed": true,
          "internalType": "bytes32",
          "name": "role",
          "type": "bytes32"
        },
        {
          "indexed": true,
          "internalType": "address",
          "name": "account",
          "type": "address"
        },
        {
          "indexed": true,
          "internalType": "address",
          "name": "sender",
          "type": "address"
        }
      ],
      "name": "RoleRevoked",
      "type": "event"
    },
    {
      "anonymous": false,
      "inputs": [
        {
          "indexed": true,
          "internalType": "address",
          "name": "project",
          "type": "address"
        },
        {
          "indexed": true,
          "internalType": "address",
          "name": "updater",
          "type": "address"
        },
        {
          "indexed": false,
          "internalType": "string",
          "name": "metadataURI",
          "type": "string"
        },
        {
          "indexed": false,
          "internalType": "bytes",
          "name": "data",
          "type": "bytes"
        }
      ],
      "name": "Update",
      "type": "event"
    },
    {
      "inputs": [],
      "name": "DEFAULT_ADMIN_ROLE",
      "outputs": [
        {
          "internalType": "bytes32",
          "name": "",
          "type": "bytes32"
        }
      ],
      "stateMutability": "view",
      "type": "function"
    },
    {
      "inputs": [
        {
          "internalType": "address[]",
          "name": "recipients",
          "type": "address[]"
        },
        {
          "internalType": "uint256[]",
          "name": "amounts",
          "type": "uint256[]"
        },
        {
          "internalType": "address",
          "name": "token",
          "type": "address"
        },
        {
          "internalType": "bytes[]",
          "name": "data",
          "type": "bytes[]"
        }
      ],
      "name": "allocate",
      "outputs": [],
      "stateMutability": "nonpayable",
      "type": "function"
    },
    {
      "inputs": [],
      "name": "config",
      "outputs": [
        {
          "internalType": "address",
          "name": "owner",
          "type": "address"
        },
        {
          "internalType": "address",
          "name": "allocationToken",
          "type": "address"
        },
        {
          "internalType": "address",
          "name": "distributionToken",
          "type": "address"
        },
        {
          "internalType": "uint256",
          "name": "maxAmount",
          "type": "uint256"
        },
        {
          "internalType": "string",
          "name": "metadataURI",
          "type": "string"
        }
      ],
      "stateMutability": "view",
      "type": "function"
    },
    {
      "inputs": [
        {
          "components": [
            {
              "internalType": "address",
              "name": "owner",
              "type": "address"
            },
            {
              "internalType": "address[]",
              "name": "admins",
              "type": "address[]"
            },
            {
              "internalType": "address",
              "name": "allocationToken",
              "type": "address"
            },
            {
              "internalType": "address",
              "name": "distributionToken",
              "type": "address"
            },
            {
              "internalType": "uint256",
              "name": "maxAmount",
              "type": "uint256"
            },
            {
              "internalType": "uint64[]",
              "name": "timestamps",
              "type": "uint64[]"
            },
            {
              "internalType": "string",
              "name": "metadataURI",
              "type": "string"
            }
          ],
          "internalType": "struct PoolConfig",
          "name": "_config",
          "type": "tuple"
        }
      ],
      "name": "configure",
      "outputs": [],
      "stateMutability": "nonpayable",
      "type": "function"
    },
    {
      "inputs": [
        {
          "internalType": "address[]",
          "name": "recipients",
          "type": "address[]"
        },
        {
          "internalType": "uint256[]",
          "name": "amounts",
          "type": "uint256[]"
        },
        {
          "internalType": "address",
          "name": "token",
          "type": "address"
        },
        {
          "internalType": "bytes[]",
          "name": "data",
          "type": "bytes[]"
        }
      ],
      "name": "distribute",
      "outputs": [],
      "stateMutability": "nonpayable",
      "type": "function"
    },
    {
      "inputs": [
        {
          "internalType": "bytes32",
          "name": "role",
          "type": "bytes32"
        }
      ],
      "name": "getRoleAdmin",
      "outputs": [
        {
          "internalType": "bytes32",
          "name": "",
          "type": "bytes32"
        }
      ],
      "stateMutability": "view",
      "type": "function"
    },
    {
      "inputs": [
        {
          "internalType": "bytes32",
          "name": "role",
          "type": "bytes32"
        },
        {
          "internalType": "address",
          "name": "account",
          "type": "address"
        }
      ],
      "name": "grantRole",
      "outputs": [],
      "stateMutability": "nonpayable",
      "type": "function"
    },
    {
      "inputs": [
        {
          "internalType": "bytes32",
          "name": "role",
          "type": "bytes32"
        },
        {
          "internalType": "address",
          "name": "account",
          "type": "address"
        }
      ],
      "name": "hasRole",
      "outputs": [
        {
          "internalType": "bool",
          "name": "",
          "type": "bool"
        }
      ],
      "stateMutability": "view",
      "type": "function"
    },
    {
      "inputs": [
        {
          "components": [
            {
              "internalType": "address",
              "name": "owner",
              "type": "address"
            },
            {
              "internalType": "address[]",
              "name": "admins",
              "type": "address[]"
            },
            {
              "internalType": "address",
              "name": "allocationToken",
              "type": "address"
            },
            {
              "internalType": "address",
              "name": "distributionToken",
              "type": "address"
            },
            {
              "internalType": "uint256",
              "name": "maxAmount",
              "type": "uint256"
            },
            {
              "internalType": "uint64[]",
              "name": "timestamps",
              "type": "uint64[]"
            },
            {
              "internalType": "string",
              "name": "metadataURI",
              "type": "string"
            }
          ],
          "internalType": "struct PoolConfig",
          "name": "_config",
          "type": "tuple"
        },
        {
          "internalType": "bytes",
          "name": "data",
          "type": "bytes"
        }
      ],
      "name": "initialize",
      "outputs": [],
      "stateMutability": "nonpayable",
      "type": "function"
    },
    {
      "inputs": [
        {
          "internalType": "address",
          "name": "project",
          "type": "address"
        },
        {
          "internalType": "string",
          "name": "_metadataURI",
          "type": "string"
        },
        {
          "internalType": "bytes",
          "name": "data",
          "type": "bytes"
        }
      ],
      "name": "register",
      "outputs": [],
      "stateMutability": "nonpayable",
      "type": "function"
    },
    {
      "inputs": [
        {
          "internalType": "address",
          "name": "",
          "type": "address"
        }
      ],
      "name": "registrations",
      "outputs": [
        {
          "internalType": "enum IPool.Status",
          "name": "status",
          "type": "uint8"
        },
        {
          "internalType": "address",
          "name": "owner",
          "type": "address"
        },
        {
          "internalType": "string",
          "name": "metadataURI",
          "type": "string"
        },
        {
          "internalType": "bytes",
          "name": "data",
          "type": "bytes"
        }
      ],
      "stateMutability": "view",
      "type": "function"
    },
    {
      "inputs": [
        {
          "internalType": "bytes32",
          "name": "role",
          "type": "bytes32"
        },
        {
          "internalType": "address",
          "name": "callerConfirmation",
          "type": "address"
        }
      ],
      "name": "renounceRole",
      "outputs": [],
      "stateMutability": "nonpayable",
      "type": "function"
    },
    {
      "inputs": [
        {
          "internalType": "address",
          "name": "project",
          "type": "address"
        },
        {
          "internalType": "uint8",
          "name": "status",
          "type": "uint8"
        },
        {
          "internalType": "string",
          "name": "_metadataURI",
          "type": "string"
        },
        {
          "internalType": "bytes",
          "name": "data",
          "type": "bytes"
        }
      ],
      "name": "review",
      "outputs": [],
      "stateMutability": "nonpayable",
      "type": "function"
    },
    {
      "inputs": [
        {
          "internalType": "bytes32",
          "name": "role",
          "type": "bytes32"
        },
        {
          "internalType": "address",
          "name": "account",
          "type": "address"
        }
      ],
      "name": "revokeRole",
      "outputs": [],
      "stateMutability": "nonpayable",
      "type": "function"
    },
    {
      "inputs": [],
      "name": "schema",
      "outputs": [
        {
          "internalType": "string",
          "name": "",
          "type": "string"
        }
      ],
      "stateMutability": "view",
      "type": "function"
    },
    {
      "inputs": [
        {
          "internalType": "bytes4",
          "name": "interfaceId",
          "type": "bytes4"
        }
      ],
      "name": "supportsInterface",
      "outputs": [
        {
          "internalType": "bool",
          "name": "",
          "type": "bool"
        }
      ],
      "stateMutability": "view",
      "type": "function"
    },
    {
      "inputs": [
        {
          "internalType": "address",
          "name": "project",
          "type": "address"
        },
        {
          "internalType": "string",
          "name": "_metadataURI",
          "type": "string"
        },
        {
          "internalType": "bytes",
          "name": "data",
          "type": "bytes"
        }
      ],
      "name": "update",
      "outputs": [],
      "stateMutability": "nonpayable",
      "type": "function"
    }
  ],
  "transactionHash": "0x2d2a6802e9d7221149aa6e73658c36158f57ae866cfb852452e09ff250114554",
  "args": [
    "QuadraticFunding",
    "uint256 amount",
    ""
  ],
  "numDeployments": 1,
  "solcInputHash": "69fc679585ad4edafe41e4330f370be9",
  "bytecode": "0x60806040523480156200001157600080fd5b50604051620028843803806200288483398101604081905262000034916200016c565b828282336001600160a01b03167f72aeb8e4e073b2b6fc374bc9e1acd0b59d25c19bc96e662f34e973d1ad9ff9fc84848460405162000076939291906200022b565b60405180910390a260086200008c8382620002f9565b50506001600b5550620003c59350505050565b634e487b7160e01b600052604160045260246000fd5b60005b83811015620000d2578181015183820152602001620000b8565b50506000910152565b600082601f830112620000ed57600080fd5b81516001600160401b03808211156200010a576200010a6200009f565b604051601f8301601f19908116603f011681019082821181831017156200013557620001356200009f565b816040528381528660208588010111156200014f57600080fd5b62000162846020830160208901620000b5565b9695505050505050565b6000806000606084860312156200018257600080fd5b83516001600160401b03808211156200019a57600080fd5b620001a887838801620000db565b94506020860151915080821115620001bf57600080fd5b620001cd87838801620000db565b93506040860151915080821115620001e457600080fd5b50620001f386828701620000db565b9150509250925092565b6000815180845262000217816020860160208601620000b5565b601f01601f19169290920160200192915050565b606081526000620002406060830186620001fd565b8281036020840152620002548186620001fd565b90508281036040840152620001628185620001fd565b600181811c908216806200027f57607f821691505b602082108103620002a057634e487b7160e01b600052602260045260246000fd5b50919050565b601f821115620002f457600081815260208120601f850160051c81016020861015620002cf5750805b601f850160051c820191505b81811015620002f057828155600101620002db565b5050505b505050565b81516001600160401b038111156200031557620003156200009f565b6200032d816200032684546200026a565b84620002a6565b602080601f8311600181146200036557600084156200034c5750858301515b600019600386901b1c1916600185901b178555620002f0565b600085815260208120601f198616915b82811015620003965788860151825594840194600190910190840162000375565b5085821015620003b55787850151600019600388901b60f8161c191681555b5050505050600190811b01905550565b6124af80620003d56000396000f3fe608060405234801561001057600080fd5b506004361061010b5760003560e01c806391d14854116100a2578063ab21f50711610071578063ab21f50714610234578063c922da5414610247578063d547741f1461025a578063eede8aea1461026d578063f8895cc81461028057600080fd5b806391d14854146101e3578063942e6bcf146101f657806394a6892514610219578063a217fddf1461022c57600080fd5b806358086775116100de5780635808677514610191578063747ffca2146101a457806379502c55146101b7578063906b89c6146101d057600080fd5b806301ffc9a714610110578063248a9ca3146101385780632f2ff15d1461016957806336568abe1461017e575b600080fd5b61012361011e366004611993565b610295565b60405190151581526020015b60405180910390f35b61015b6101463660046119c4565b6000908152600a602052604090206001015490565b60405190815260200161012f565b61017c6101773660046119f9565b6102cc565b005b61017c61018c3660046119f9565b6102f7565b61017c61019f366004611b02565b61032f565b61017c6101b2366004611c89565b61033a565b6101bf6103dd565b60405161012f959493929190611dbc565b61017c6101de366004611e02565b610490565b6101236101f13660046119f9565b6104a7565b610209610204366004611e82565b6104d2565b60405161012f9493929190611eb3565b61017c61022736600461204d565b610619565b61015b600081565b61017c610242366004612089565b610689565b61017c610255366004611b02565b6106e2565b61017c6102683660046119f9565b6106ed565b61017c61027b366004611c89565b610712565b6102886107cd565b60405161012f91906120ec565b60006001600160e01b03198216637965db0b60e01b14806102c657506301ffc9a760e01b6001600160e01b03198316145b92915050565b6000828152600a60205260409020600101546102e78161085b565b6102f18383610868565b50505050565b6001600160a01b03811633146103205760405163334bd91960e11b815260040160405180910390fd5b61032a82826108fc565b505050565b61032a838383610969565b60006103458161085b565b61034d610acd565b6004546001600160a01b038481169116146103c05760405162461bcd60e51b815260206004820152602860248201527f446973747269627574696f6e73206d757374206265206469737472696275746960448201526737b7103a37b5b2b760c11b60648201526084015b60405180910390fd5b6103cc85858585610af7565b6103d66001600b55565b5050505050565b60018054600354600454600554600780546001600160a01b03958616969486169590931693919261040d906120ff565b80601f0160208091040260200160405190810160405280929190818152602001828054610439906120ff565b80156104865780601f1061045b57610100808354040283529160200191610486565b820191906000526020600020905b81548152906001019060200180831161046957829003601f168201915b5050505050905085565b600061049b8161085b565b6103d685858585610e98565b6000918252600a602090815260408084206001600160a01b0393909316845291905290205460ff1690565b6009602052600090815260409020805460018201805460ff8316936101009093046001600160a01b0316929190610508906120ff565b80601f0160208091040260200160405190810160405280929190818152602001828054610534906120ff565b80156105815780601f1061055657610100808354040283529160200191610581565b820191906000526020600020905b81548152906001019060200180831161056457829003601f168201915b505050505090806002018054610596906120ff565b80601f01602080910402602001604051908101604052809291908181526020018280546105c2906120ff565b801561060f5780601f106105e45761010080835404028352916020019161060f565b820191906000526020600020905b8154815290600101906020018083116105f257829003601f168201915b5050505050905084565b60006106248161085b565b61062d82610f3c565b815161063b90600090610868565b5060005b82602001515181101561032a576106766000801b8460200151838151811061066957610669612139565b6020026020010151610868565b508061068181612165565b91505061063f565b610693828261102c565b81516106a190600090610868565b5060005b82602001515181101561032a576106cf6000801b8460200151838151811061066957610669612139565b50806106da81612165565b9150506106a5565b61032a838383611131565b6000828152600a60205260409020600101546107088161085b565b6102f183836108fc565b61071a610acd565b6003546001600160a01b038381169116148061074357506004546001600160a01b038381169116145b6107b7576040805162461bcd60e51b81526020600482015260248101919091527f416c6c6f636174696f6e7320746f2070726f6a65637473206d7573742062652060448201527f616c6c6f636174696f6e206f7220646973747269627574696f6e20746f6b656e60648201526084016103b7565b6107c38484848461129f565b6102f16001600b55565b600880546107da906120ff565b80601f0160208091040260200160405190810160405280929190818152602001828054610806906120ff565b80156108535780601f1061082857610100808354040283529160200191610853565b820191906000526020600020905b81548152906001019060200180831161083657829003601f168201915b505050505081565b610865813361159b565b50565b600061087483836104a7565b6108f4576000838152600a602090815260408083206001600160a01b03861684529091529020805460ff191660011790556108ac3390565b6001600160a01b0316826001600160a01b0316847f2f8788117e7eff1d82e926ec794901d17c78024a50270940304540a733656f0d60405160405180910390a45060016102c6565b5060006102c6565b600061090883836104a7565b156108f4576000838152600a602090815260408083206001600160a01b0386168085529252808320805460ff1916905551339286917ff6391f5c32d9c69d2a47ea670b442974b53935d1edc7fd64eb21e047a839171b9190a45060016102c6565b6001600160a01b03838116600090815260096020526040902054610100900416156109cb5760405162461bcd60e51b8152602060048201526012602482015271105b1c9958591e481c9959da5cdd195c995960721b60448201526064016103b7565b60408051608081018252600080825233602080840191909152828401869052606083018590526001600160a01b0387168252600990529190912081518154829060ff19166001836002811115610a2357610a23611e9d565b0217905550602082015181546001600160a01b0390911661010002610100600160a81b031990911617815560408201516001820190610a6290826121c4565b5060608201516002820190610a7790826121c4565b50905050336001600160a01b0316836001600160a01b03167f99202cc5abf24650e7ac53e3a81ff614768dcc7569a245376ed82eb4ce243fca8484604051610ac0929190612283565b60405180910390a3505050565b6002600b5403610af057604051633ee5aeb560e01b815260040160405180910390fd5b6002600b55565b83518015801590610b085750835181145b610b495760405162461bcd60e51b81526020600482015260126024820152714d69736d617463686564206c656e6774687360701b60448201526064016103b7565b60005b81811015610e9057600083518210610b735760405180602001604052806000815250610b8e565b838281518110610b8557610b85612139565b60200260200101515b905060006001600160a01b0316878381518110610bad57610bad612139565b60200260200101516001600160a01b031603610c075760405162461bcd60e51b8152602060048201526019602482015278526563697069656e74206973207a65726f206164647265737360381b60448201526064016103b7565b6000868381518110610c1b57610c1b612139565b6020026020010151118015610cb057506040516370a0823160e01b81523060048201526001600160a01b038616906370a0823190602401602060405180830381865afa158015610c6f573d6000803e3d6000fd5b505050506040513d601f19601f82011682018060405250810190610c9391906122b1565b868381518110610ca557610ca5612139565b602002602001015111155b610d065760405162461bcd60e51b815260206004820152602160248201527f416d6f756e74206973207a65726f206f7220657863656564732062616c616e636044820152606560f81b60648201526084016103b7565b610d44878381518110610d1b57610d1b612139565b6020026020010151878481518110610d3557610d35612139565b602002602001015187846115d8565b846001600160a01b031663a9059cbb888481518110610d6557610d65612139565b6020026020010151888581518110610d7f57610d7f612139565b60200260200101516040518363ffffffff1660e01b8152600401610db89291906001600160a01b03929092168252602082015260400190565b6020604051808303816000875af1158015610dd7573d6000803e3d6000fd5b505050506040513d601f19601f82011682018060405250810190610dfb91906122ca565b50868281518110610e0e57610e0e612139565b60200260200101516001600160a01b0316306001600160a01b03167f68179208818f375bd941a067e321c35e8cebc048007cd126acd94625989a7b75888581518110610e5c57610e5c612139565b60200260200101518885604051610e75939291906122ec565b60405180910390a35080610e8881612165565b915050610b4c565b505050505050565b6001600160a01b038416600090815260096020526040902060ff84166002811115610ec557610ec5611e9d565b8154829060ff19166001836002811115610ee157610ee1611e9d565b0217905550336001600160a01b0316856001600160a01b03167f76dfcb7079d175d526d40b126e4a1cc466c3855e25ba5b37c3168609060e1d78868686604051610f2d93929190612316565b60405180910390a35050505050565b8051600180546001600160a01b0319166001600160a01b039092169190911781556020808301518051849392610f779260029291019061186a565b5060408201516002820180546001600160a01b039283166001600160a01b03199182161790915560608401516003840180549190931691161790556080820151600482015560a08201518051610fd79160058401916020909101906118cf565b5060c08201516006820190610fec90826121c4565b50506040513391507f7262fa021611ce5fba1be5b0e369cd9209c8d8408b2f67329285403f6d5a048d90611021908490612392565b60405180910390a250565b60005460ff16156110755760405162461bcd60e51b8152602060048201526013602482015272105b1c9958591e481a5b9a5d1a585b1a5e9959606a1b60448201526064016103b7565b60008054600160ff199091168117909155825181546001600160a01b0319166001600160a01b0390911617815560208084015180518593926110bc9260029291019061186a565b5060408201516002820180546001600160a01b039283166001600160a01b03199182161790915560608401516003840180549190931691161790556080820151600482015560a0820151805161111c9160058401916020909101906118cf565b5060c082015160068201906103d690826121c4565b6001600160a01b03838116600090815260096020526040902054610100900416331461119f5760405162461bcd60e51b815260206004820152601760248201527f4d757374206265206f776e657220746f2075706461746500000000000000000060448201526064016103b7565b60016001600160a01b03841660009081526009602052604090205460ff1660028111156111ce576111ce611e9d565b0361120e5760405162461bcd60e51b815260206004820152601060248201526f105b1c9958591e48185c1c1c9bdd995960821b60448201526064016103b7565b6001600160a01b038316600090815260096020526040902060010161123383826121c4565b506001600160a01b038316600090815260096020526040902060020161125982826121c4565b50336001600160a01b0316836001600160a01b03167f639b764af06689bf35c6ebc1ae49051aa4b4d3a3d34d5c70bf8626087352e99d8484604051610ac0929190612283565b835180158015906112b05750835181145b6112f15760405162461bcd60e51b81526020600482015260126024820152714d69736d617463686564206c656e6774687360701b60448201526064016103b7565b60005b81811015610e905760008351821061131b5760405180602001604052806000815250611336565b83828151811061132d5761132d612139565b60200260200101515b905060006001600160a01b031687838151811061135557611355612139565b60200260200101516001600160a01b0316036113af5760405162461bcd60e51b8152602060048201526019602482015278526563697069656e74206973207a65726f206164647265737360381b60448201526064016103b7565b60008683815181106113c3576113c3612139565b6020026020010151116114095760405162461bcd60e51b815260206004820152600e60248201526d416d6f756e74206973207a65726f60901b60448201526064016103b7565b61144787838151811061141e5761141e612139565b602002602001015187848151811061143857611438612139565b60200260200101518784611706565b846001600160a01b03166323b872dd3389858151811061146957611469612139565b602002602001015189868151811061148357611483612139565b60209081029190910101516040516001600160e01b031960e086901b1681526001600160a01b03938416600482015292909116602483015260448201526064016020604051808303816000875af11580156114e2573d6000803e3d6000fd5b505050506040513d601f19601f8201168201806040525081019061150691906122ca565b5086828151811061151957611519612139565b60200260200101516001600160a01b0316336001600160a01b03167f68179208818f375bd941a067e321c35e8cebc048007cd126acd94625989a7b7588858151811061156757611567612139565b60200260200101518885604051611580939291906122ec565b60405180910390a3508061159381612165565b9150506112f4565b6115a582826104a7565b6115d45760405163e2517d3f60e01b81526001600160a01b0382166004820152602481018390526044016103b7565b5050565b6040516370a0823160e01b81523060048201526000906001600160a01b038416906370a0823190602401602060405180830381865afa15801561161f573d6000803e3d6000fd5b505050506040513d601f19601f8201168201806040525081019061164391906122b1565b90508084111561168e5760405162461bcd60e51b8152602060048201526016602482015275416d6f756e7420657863656564732062616c616e636560501b60448201526064016103b7565b60016001600160a01b03861660009081526009602052604090205460ff1660028111156116bd576116bd611e9d565b146103d65760405162461bcd60e51b8152602060048201526019602482015278149958da5c1a595b9d081a5cc81b9bdd08185c1c1c9bdd9959603a1b60448201526064016103b7565b6001600160a01b038416301480611749575060016001600160a01b03851660009081526009602052604090205460ff16600281111561174757611747611e9d565b145b6117915760405162461bcd60e51b8152602060048201526019602482015278149958da5c1a595b9d081a5cc81b9bdd08185c1c1c9bdd9959603a1b60448201526064016103b7565b306001600160a01b038516036102f1576040516370a0823160e01b81523060048201526000906001600160a01b038416906370a0823190602401602060405180830381865afa1580156117e8573d6000803e3d6000fd5b505050506040513d601f19601f8201168201806040525081019061180c91906122b1565b600554909150158061182957506005546118268286612466565b11155b6103d65760405162461bcd60e51b815260206004820152601260248201527113585e08185b5bdd5b9d081c995858da195960721b60448201526064016103b7565b8280548282559060005260206000209081019282156118bf579160200282015b828111156118bf57825182546001600160a01b0319166001600160a01b0390911617825560209092019160019091019061188a565b506118cb92915061197e565b5090565b828054828255906000526020600020906003016004900481019282156118bf5791602002820160005b8382111561194257835183826101000a8154816001600160401b0302191690836001600160401b0316021790555092602001926008016020816007010492830192600103026118f8565b80156119755782816101000a8154906001600160401b030219169055600801602081600701049283019260010302611942565b50506118cb9291505b5b808211156118cb576000815560010161197f565b6000602082840312156119a557600080fd5b81356001600160e01b0319811681146119bd57600080fd5b9392505050565b6000602082840312156119d657600080fd5b5035919050565b80356001600160a01b03811681146119f457600080fd5b919050565b60008060408385031215611a0c57600080fd5b82359150611a1c602084016119dd565b90509250929050565b634e487b7160e01b600052604160045260246000fd5b60405160e081016001600160401b0381118282101715611a5d57611a5d611a25565b60405290565b604051601f8201601f191681016001600160401b0381118282101715611a8b57611a8b611a25565b604052919050565b600082601f830112611aa457600080fd5b81356001600160401b03811115611abd57611abd611a25565b611ad0601f8201601f1916602001611a63565b818152846020838601011115611ae557600080fd5b816020850160208301376000918101602001919091529392505050565b600080600060608486031215611b1757600080fd5b611b20846119dd565b925060208401356001600160401b0380821115611b3c57600080fd5b611b4887838801611a93565b93506040860135915080821115611b5e57600080fd5b50611b6b86828701611a93565b9150509250925092565b60006001600160401b03821115611b8e57611b8e611a25565b5060051b60200190565b600082601f830112611ba957600080fd5b81356020611bbe611bb983611b75565b611a63565b82815260059290921b84018101918181019086841115611bdd57600080fd5b8286015b84811015611bff57611bf2816119dd565b8352918301918301611be1565b509695505050505050565b600082601f830112611c1b57600080fd5b81356020611c2b611bb983611b75565b82815260059290921b84018101918181019086841115611c4a57600080fd5b8286015b84811015611bff5780356001600160401b03811115611c6d5760008081fd5b611c7b8986838b0101611a93565b845250918301918301611c4e565b60008060008060808587031215611c9f57600080fd5b84356001600160401b0380821115611cb657600080fd5b611cc288838901611b98565b9550602091508187013581811115611cd957600080fd5b8701601f81018913611cea57600080fd5b8035611cf8611bb982611b75565b81815260059190911b8201840190848101908b831115611d1757600080fd5b928501925b82841015611d3557833582529285019290850190611d1c565b9750611d4792505050604088016119dd565b93506060870135915080821115611d5d57600080fd5b50611d6a87828801611c0a565b91505092959194509250565b6000815180845260005b81811015611d9c57602081850181015186830182015201611d80565b506000602082860101526020601f19601f83011685010191505092915050565b6001600160a01b0386811682528581166020830152841660408201526060810183905260a060808201819052600090611df790830184611d76565b979650505050505050565b60008060008060808587031215611e1857600080fd5b611e21856119dd565b9350602085013560ff81168114611e3757600080fd5b925060408501356001600160401b0380821115611e5357600080fd5b611e5f88838901611a93565b93506060870135915080821115611e7557600080fd5b50611d6a87828801611a93565b600060208284031215611e9457600080fd5b6119bd826119dd565b634e487b7160e01b600052602160045260246000fd5b600060038610611ed357634e487b7160e01b600052602160045260246000fd5b8582526001600160a01b0385166020830152608060408301819052611efa90830185611d76565b8281036060840152611df78185611d76565b600082601f830112611f1d57600080fd5b81356020611f2d611bb983611b75565b82815260059290921b84018101918181019086841115611f4c57600080fd5b8286015b84811015611bff5780356001600160401b0381168114611f705760008081fd5b8352918301918301611f50565b600060e08284031215611f8f57600080fd5b611f97611a3b565b9050611fa2826119dd565b815260208201356001600160401b0380821115611fbe57600080fd5b611fca85838601611b98565b6020840152611fdb604085016119dd565b6040840152611fec606085016119dd565b60608401526080840135608084015260a084013591508082111561200f57600080fd5b61201b85838601611f0c565b60a084015260c084013591508082111561203457600080fd5b5061204184828501611a93565b60c08301525092915050565b60006020828403121561205f57600080fd5b81356001600160401b0381111561207557600080fd5b61208184828501611f7d565b949350505050565b6000806040838503121561209c57600080fd5b82356001600160401b03808211156120b357600080fd5b6120bf86838701611f7d565b935060208501359150808211156120d557600080fd5b506120e285828601611a93565b9150509250929050565b6020815260006119bd6020830184611d76565b600181811c9082168061211357607f821691505b60208210810361213357634e487b7160e01b600052602260045260246000fd5b50919050565b634e487b7160e01b600052603260045260246000fd5b634e487b7160e01b600052601160045260246000fd5b6000600182016121775761217761214f565b5060010190565b601f82111561032a57600081815260208120601f850160051c810160208610156121a55750805b601f850160051c820191505b81811015610e90578281556001016121b1565b81516001600160401b038111156121dd576121dd611a25565b6121f1816121eb84546120ff565b8461217e565b602080601f831160018114612226576000841561220e5750858301515b600019600386901b1c1916600185901b178555610e90565b600085815260208120601f198616915b8281101561225557888601518255948401946001909101908401612236565b50858210156122735787850151600019600388901b60f8161c191681555b5050505050600190811b01905550565b6040815260006122966040830185611d76565b82810360208401526122a88185611d76565b95945050505050565b6000602082840312156122c357600080fd5b5051919050565b6000602082840312156122dc57600080fd5b815180151581146119bd57600080fd5b8381526001600160a01b03831660208201526060604082018190526000906122a890830184611d76565b60ff841681526060602082015260006123326060830185611d76565b82810360408401526123448185611d76565b9695505050505050565b600081518084526020808501945080840160005b838110156123875781516001600160401b031687529582019590820190600101612362565b509495945050505050565b602080825282516001600160a01b03908116838301528382015160e060408501528051610100850181905260009392918301919084906101208701905b808310156123f1578451841682529385019360019290920191908501906123cf565b5060408801516001600160a01b0381166060890152945060608801516001600160a01b03811660808901529450608088015160a088015260a08801519450601f199350838782030160c0880152612448818661234e565b945050505060c0850151818584030160e08601526123448382611d76565b808201808211156102c6576102c661214f56fea264697066735822122041c092a7cd831a2d95691d0d7bc005ac4a625eace89e2f99907c6e6b68fefc1764736f6c63430008140033",
  "devdoc": {
    "errors": {
      "AccessControlBadConfirmation()": [
        {
          "details": "The caller of a function is not the expected one. NOTE: Don't confuse with {AccessControlUnauthorizedAccount}."
        }
      ],
      "AccessControlUnauthorizedAccount(address,bytes32)": [
        {
          "details": "The `account` is missing a role."
        }
      ],
      "ReentrancyGuardReentrantCall()": [
        {
          "details": "Unauthorized reentrant call."
        }
      ]
    },
    "events": {
      "RoleAdminChanged(bytes32,bytes32,bytes32)": {
        "details": "Emitted when `newAdminRole` is set as ``role``'s admin role, replacing `previousAdminRole` `DEFAULT_ADMIN_ROLE` is the starting admin for all roles, despite {RoleAdminChanged} not being emitted signaling this."
      },
      "RoleGranted(bytes32,address,address)": {
        "details": "Emitted when `account` is granted `role`. `sender` is the account that originated the contract call, an admin role bearer except when using {AccessControl-_setupRole}."
      },
      "RoleRevoked(bytes32,address,address)": {
        "details": "Emitted when `account` is revoked `role`. `sender` is the account that originated the contract call:   - if using `revokeRole`, it is the admin role bearer   - if using `renounceRole`, it is the role bearer (i.e. `account`)"
      }
    },
    "kind": "dev",
    "methods": {
      "getRoleAdmin(bytes32)": {
        "details": "Returns the admin role that controls `role`. See {grantRole} and {revokeRole}. To change a role's admin, use {_setRoleAdmin}."
      },
      "grantRole(bytes32,address)": {
        "details": "Grants `role` to `account`. If `account` had not been already granted `role`, emits a {RoleGranted} event. Requirements: - the caller must have ``role``'s admin role. May emit a {RoleGranted} event."
      },
      "hasRole(bytes32,address)": {
        "details": "Returns `true` if `account` has been granted `role`."
      },
      "renounceRole(bytes32,address)": {
        "details": "Revokes `role` from the calling account. Roles are often managed via {grantRole} and {revokeRole}: this function's purpose is to provide a mechanism for accounts to lose their privileges if they are compromised (such as when a trusted device is misplaced). If the calling account had been revoked `role`, emits a {RoleRevoked} event. Requirements: - the caller must be `callerConfirmation`. May emit a {RoleRevoked} event."
      },
      "revokeRole(bytes32,address)": {
        "details": "Revokes `role` from `account`. If `account` had been granted `role`, emits a {RoleRevoked} event. Requirements: - the caller must have ``role``'s admin role. May emit a {RoleRevoked} event."
      },
      "supportsInterface(bytes4)": {
        "details": "See {IERC165-supportsInterface}."
      }
    },
    "version": 1
  },
  "userdoc": {
    "kind": "user",
    "methods": {},
    "version": 1
  },
  "storageLayout": {
    "storage": [
      {
        "astId": 1432,
        "contract": "contracts/strategies/QuadraticFunding.sol:QuadraticFunding",
        "label": "_initialized",
        "offset": 0,
        "slot": "0",
        "type": "t_bool"
      },
      {
        "astId": 1435,
        "contract": "contracts/strategies/QuadraticFunding.sol:QuadraticFunding",
        "label": "config",
        "offset": 0,
        "slot": "1",
        "type": "t_struct(PoolConfig)1276_storage"
      },
      {
        "astId": 1437,
        "contract": "contracts/strategies/QuadraticFunding.sol:QuadraticFunding",
        "label": "schema",
        "offset": 0,
        "slot": "8",
        "type": "t_string_storage"
      },
      {
        "astId": 1442,
        "contract": "contracts/strategies/QuadraticFunding.sol:QuadraticFunding",
        "label": "registrations",
        "offset": 0,
        "slot": "9",
        "type": "t_mapping(t_address,t_struct(Registration)1290_storage)"
      },
      {
        "astId": 26,
        "contract": "contracts/strategies/QuadraticFunding.sol:QuadraticFunding",
        "label": "_roles",
        "offset": 0,
        "slot": "10",
        "type": "t_mapping(t_bytes32,t_struct(RoleData)21_storage)"
      },
      {
        "astId": 1161,
        "contract": "contracts/strategies/QuadraticFunding.sol:QuadraticFunding",
        "label": "_status",
        "offset": 0,
        "slot": "11",
        "type": "t_uint256"
      }
    ],
    "types": {
      "t_address": {
        "encoding": "inplace",
        "label": "address",
        "numberOfBytes": "20"
      },
      "t_array(t_address)dyn_storage": {
        "base": "t_address",
        "encoding": "dynamic_array",
        "label": "address[]",
        "numberOfBytes": "32"
      },
      "t_array(t_uint64)dyn_storage": {
        "base": "t_uint64",
        "encoding": "dynamic_array",
        "label": "uint64[]",
        "numberOfBytes": "32"
      },
      "t_bool": {
        "encoding": "inplace",
        "label": "bool",
        "numberOfBytes": "1"
      },
      "t_bytes32": {
        "encoding": "inplace",
        "label": "bytes32",
        "numberOfBytes": "32"
      },
      "t_bytes_storage": {
        "encoding": "bytes",
        "label": "bytes",
        "numberOfBytes": "32"
      },
      "t_enum(Status)1280": {
        "encoding": "inplace",
        "label": "enum IPool.Status",
        "numberOfBytes": "1"
      },
      "t_mapping(t_address,t_bool)": {
        "encoding": "mapping",
        "key": "t_address",
        "label": "mapping(address => bool)",
        "numberOfBytes": "32",
        "value": "t_bool"
      },
      "t_mapping(t_address,t_struct(Registration)1290_storage)": {
        "encoding": "mapping",
        "key": "t_address",
        "label": "mapping(address => struct IPool.Registration)",
        "numberOfBytes": "32",
        "value": "t_struct(Registration)1290_storage"
      },
      "t_mapping(t_bytes32,t_struct(RoleData)21_storage)": {
        "encoding": "mapping",
        "key": "t_bytes32",
        "label": "mapping(bytes32 => struct AccessControl.RoleData)",
        "numberOfBytes": "32",
        "value": "t_struct(RoleData)21_storage"
      },
      "t_string_storage": {
        "encoding": "bytes",
        "label": "string",
        "numberOfBytes": "32"
      },
      "t_struct(PoolConfig)1276_storage": {
        "encoding": "inplace",
        "label": "struct PoolConfig",
        "members": [
          {
            "astId": 1261,
            "contract": "contracts/strategies/QuadraticFunding.sol:QuadraticFunding",
            "label": "owner",
            "offset": 0,
            "slot": "0",
            "type": "t_address"
          },
          {
            "astId": 1264,
            "contract": "contracts/strategies/QuadraticFunding.sol:QuadraticFunding",
            "label": "admins",
            "offset": 0,
            "slot": "1",
            "type": "t_array(t_address)dyn_storage"
          },
          {
            "astId": 1266,
            "contract": "contracts/strategies/QuadraticFunding.sol:QuadraticFunding",
            "label": "allocationToken",
            "offset": 0,
            "slot": "2",
            "type": "t_address"
          },
          {
            "astId": 1268,
            "contract": "contracts/strategies/QuadraticFunding.sol:QuadraticFunding",
            "label": "distributionToken",
            "offset": 0,
            "slot": "3",
            "type": "t_address"
          },
          {
            "astId": 1270,
            "contract": "contracts/strategies/QuadraticFunding.sol:QuadraticFunding",
            "label": "maxAmount",
            "offset": 0,
            "slot": "4",
            "type": "t_uint256"
          },
          {
            "astId": 1273,
            "contract": "contracts/strategies/QuadraticFunding.sol:QuadraticFunding",
            "label": "timestamps",
            "offset": 0,
            "slot": "5",
            "type": "t_array(t_uint64)dyn_storage"
          },
          {
            "astId": 1275,
            "contract": "contracts/strategies/QuadraticFunding.sol:QuadraticFunding",
            "label": "metadataURI",
            "offset": 0,
            "slot": "6",
            "type": "t_string_storage"
          }
        ],
        "numberOfBytes": "224"
      },
      "t_struct(Registration)1290_storage": {
        "encoding": "inplace",
        "label": "struct IPool.Registration",
        "members": [
          {
            "astId": 1283,
            "contract": "contracts/strategies/QuadraticFunding.sol:QuadraticFunding",
            "label": "status",
            "offset": 0,
            "slot": "0",
            "type": "t_enum(Status)1280"
          },
          {
            "astId": 1285,
            "contract": "contracts/strategies/QuadraticFunding.sol:QuadraticFunding",
            "label": "owner",
            "offset": 1,
            "slot": "0",
            "type": "t_address"
          },
          {
            "astId": 1287,
            "contract": "contracts/strategies/QuadraticFunding.sol:QuadraticFunding",
            "label": "metadataURI",
            "offset": 0,
            "slot": "1",
            "type": "t_string_storage"
          },
          {
            "astId": 1289,
            "contract": "contracts/strategies/QuadraticFunding.sol:QuadraticFunding",
            "label": "data",
            "offset": 0,
            "slot": "2",
            "type": "t_bytes_storage"
          }
        ],
        "numberOfBytes": "96"
      },
      "t_struct(RoleData)21_storage": {
        "encoding": "inplace",
        "label": "struct AccessControl.RoleData",
        "members": [
          {
            "astId": 18,
            "contract": "contracts/strategies/QuadraticFunding.sol:QuadraticFunding",
            "label": "hasRole",
            "offset": 0,
            "slot": "0",
            "type": "t_mapping(t_address,t_bool)"
          },
          {
            "astId": 20,
            "contract": "contracts/strategies/QuadraticFunding.sol:QuadraticFunding",
            "label": "adminRole",
            "offset": 0,
            "slot": "1",
            "type": "t_bytes32"
          }
        ],
        "numberOfBytes": "64"
      },
      "t_uint256": {
        "encoding": "inplace",
        "label": "uint256",
        "numberOfBytes": "32"
      },
      "t_uint64": {
        "encoding": "inplace",
        "label": "uint64",
        "numberOfBytes": "8"
      }
    }
  }
}