{
  "address": "0x1bbeEcfBFd238F860f3b9F2Ec5111bd3ce0946BF",
  "abi": [
    {
      "inputs": [
        {
          "internalType": "string",
          "name": "_name",
          "type": "string"
        },
        {
          "internalType": "string",
          "name": "_schema",
          "type": "string"
        },
        {
          "internalType": "string",
          "name": "_metadataURI",
          "type": "string"
        }
      ],
      "stateMutability": "nonpayable",
      "type": "constructor"
    },
    {
      "inputs": [],
      "name": "AccessControlBadConfirmation",
      "type": "error"
    },
    {
      "inputs": [
        {
          "internalType": "address",
          "name": "account",
          "type": "address"
        },
        {
          "internalType": "bytes32",
          "name": "neededRole",
          "type": "bytes32"
        }
      ],
      "name": "AccessControlUnauthorizedAccount",
      "type": "error"
    },
    {
      "inputs": [],
      "name": "ReentrancyGuardReentrantCall",
      "type": "error"
    },
    {
      "anonymous": false,
      "inputs": [
        {
          "indexed": true,
          "internalType": "address",
          "name": "from",
          "type": "address"
        },
        {
          "indexed": true,
          "internalType": "address",
          "name": "to",
          "type": "address"
        },
        {
          "indexed": false,
          "internalType": "uint256",
          "name": "amount",
          "type": "uint256"
        },
        {
          "indexed": false,
          "internalType": "address",
          "name": "token",
          "type": "address"
        },
        {
          "indexed": false,
          "internalType": "bytes",
          "name": "data",
          "type": "bytes"
        }
      ],
      "name": "Allocate",
      "type": "event"
    },
    {
      "anonymous": false,
      "inputs": [
        {
          "indexed": true,
          "internalType": "address",
          "name": "updater",
          "type": "address"
        },
        {
          "components": [
            {
              "internalType": "address",
              "name": "owner",
              "type": "address"
            },
            {
              "internalType": "address[]",
              "name": "admins",
              "type": "address[]"
            },
            {
              "internalType": "address",
              "name": "allocationToken",
              "type": "address"
            },
            {
              "internalType": "address",
              "name": "distributionToken",
              "type": "address"
            },
            {
              "internalType": "uint256",
              "name": "maxAmount",
              "type": "uint256"
            },
            {
              "internalType": "uint64[]",
              "name": "timestamps",
              "type": "uint64[]"
            },
            {
              "internalType": "string",
              "name": "metadataURI",
              "type": "string"
            }
          ],
          "indexed": false,
          "internalType": "struct PoolConfig",
          "name": "config",
          "type": "tuple"
        }
      ],
      "name": "Configure",
      "type": "event"
    },
    {
      "anonymous": false,
      "inputs": [
        {
          "indexed": false,
          "internalType": "string",
          "name": "name",
          "type": "string"
        },
        {
          "indexed": true,
          "internalType": "address",
          "name": "owner",
          "type": "address"
        },
        {
          "indexed": false,
          "internalType": "string",
          "name": "schema",
          "type": "string"
        },
        {
          "indexed": false,
          "internalType": "string",
          "name": "metadataURI",
          "type": "string"
        }
      ],
      "name": "Deployed",
      "type": "event"
    },
    {
      "anonymous": false,
      "inputs": [
        {
          "indexed": true,
          "internalType": "address",
          "name": "project",
          "type": "address"
        },
        {
          "indexed": true,
          "internalType": "address",
          "name": "owner",
          "type": "address"
        },
        {
          "indexed": false,
          "internalType": "string",
          "name": "metadataURI",
          "type": "string"
        },
        {
          "indexed": false,
          "internalType": "bytes",
          "name": "data",
          "type": "bytes"
        }
      ],
      "name": "Register",
      "type": "event"
    },
    {
      "anonymous": false,
      "inputs": [
        {
          "indexed": true,
          "internalType": "address",
          "name": "project",
          "type": "address"
        },
        {
          "indexed": false,
          "internalType": "uint8",
          "name": "status",
          "type": "uint8"
        },
        {
          "indexed": true,
          "internalType": "address",
          "name": "approver",
          "type": "address"
        },
        {
          "indexed": false,
          "internalType": "string",
          "name": "metadataURI",
          "type": "string"
        },
        {
          "indexed": false,
          "internalType": "bytes",
          "name": "data",
          "type": "bytes"
        }
      ],
      "name": "Review",
      "type": "event"
    },
    {
      "anonymous": false,
      "inputs": [
        {
          "indexed": true,
          "internalType": "bytes32",
          "name": "role",
          "type": "bytes32"
        },
        {
          "indexed": true,
          "internalType": "bytes32",
          "name": "previousAdminRole",
          "type": "bytes32"
        },
        {
          "indexed": true,
          "internalType": "bytes32",
          "name": "newAdminRole",
          "type": "bytes32"
        }
      ],
      "name": "RoleAdminChanged",
      "type": "event"
    },
    {
      "anonymous": false,
      "inputs": [
        {
          "indexed": true,
          "internalType": "bytes32",
          "name": "role",
          "type": "bytes32"
        },
        {
          "indexed": true,
          "internalType": "address",
          "name": "account",
          "type": "address"
        },
        {
          "indexed": true,
          "internalType": "address",
          "name": "sender",
          "type": "address"
        }
      ],
      "name": "RoleGranted",
      "type": "event"
    },
    {
      "anonymous": false,
      "inputs": [
        {
          "indexed": true,
          "internalType": "bytes32",
          "name": "role",
          "type": "bytes32"
        },
        {
          "indexed": true,
          "internalType": "address",
          "name": "account",
          "type": "address"
        },
        {
          "indexed": true,
          "internalType": "address",
          "name": "sender",
          "type": "address"
        }
      ],
      "name": "RoleRevoked",
      "type": "event"
    },
    {
      "anonymous": false,
      "inputs": [
        {
          "indexed": true,
          "internalType": "address",
          "name": "project",
          "type": "address"
        },
        {
          "indexed": true,
          "internalType": "address",
          "name": "updater",
          "type": "address"
        },
        {
          "indexed": false,
          "internalType": "string",
          "name": "metadataURI",
          "type": "string"
        },
        {
          "indexed": false,
          "internalType": "bytes",
          "name": "data",
          "type": "bytes"
        }
      ],
      "name": "Update",
      "type": "event"
    },
    {
      "inputs": [],
      "name": "DEFAULT_ADMIN_ROLE",
      "outputs": [
        {
          "internalType": "bytes32",
          "name": "",
          "type": "bytes32"
        }
      ],
      "stateMutability": "view",
      "type": "function"
    },
    {
      "inputs": [
        {
          "internalType": "address[]",
          "name": "recipients",
          "type": "address[]"
        },
        {
          "internalType": "uint256[]",
          "name": "amounts",
          "type": "uint256[]"
        },
        {
          "internalType": "address",
          "name": "token",
          "type": "address"
        },
        {
          "internalType": "bytes[]",
          "name": "data",
          "type": "bytes[]"
        }
      ],
      "name": "allocate",
      "outputs": [],
      "stateMutability": "nonpayable",
      "type": "function"
    },
    {
      "inputs": [],
      "name": "config",
      "outputs": [
        {
          "internalType": "address",
          "name": "owner",
          "type": "address"
        },
        {
          "internalType": "address",
          "name": "allocationToken",
          "type": "address"
        },
        {
          "internalType": "address",
          "name": "distributionToken",
          "type": "address"
        },
        {
          "internalType": "uint256",
          "name": "maxAmount",
          "type": "uint256"
        },
        {
          "internalType": "string",
          "name": "metadataURI",
          "type": "string"
        }
      ],
      "stateMutability": "view",
      "type": "function"
    },
    {
      "inputs": [
        {
          "internalType": "address",
          "name": "updater",
          "type": "address"
        },
        {
          "components": [
            {
              "internalType": "address",
              "name": "owner",
              "type": "address"
            },
            {
              "internalType": "address[]",
              "name": "admins",
              "type": "address[]"
            },
            {
              "internalType": "address",
              "name": "allocationToken",
              "type": "address"
            },
            {
              "internalType": "address",
              "name": "distributionToken",
              "type": "address"
            },
            {
              "internalType": "uint256",
              "name": "maxAmount",
              "type": "uint256"
            },
            {
              "internalType": "uint64[]",
              "name": "timestamps",
              "type": "uint64[]"
            },
            {
              "internalType": "string",
              "name": "metadataURI",
              "type": "string"
            }
          ],
          "internalType": "struct PoolConfig",
          "name": "_config",
          "type": "tuple"
        }
      ],
      "name": "configure",
      "outputs": [],
      "stateMutability": "nonpayable",
      "type": "function"
    },
    {
      "inputs": [
        {
          "internalType": "address[]",
          "name": "recipients",
          "type": "address[]"
        },
        {
          "internalType": "uint256[]",
          "name": "amounts",
          "type": "uint256[]"
        },
        {
          "internalType": "address",
          "name": "token",
          "type": "address"
        },
        {
          "internalType": "bytes[]",
          "name": "data",
          "type": "bytes[]"
        }
      ],
      "name": "distribute",
      "outputs": [],
      "stateMutability": "nonpayable",
      "type": "function"
    },
    {
      "inputs": [
        {
          "internalType": "bytes32",
          "name": "role",
          "type": "bytes32"
        }
      ],
      "name": "getRoleAdmin",
      "outputs": [
        {
          "internalType": "bytes32",
          "name": "",
          "type": "bytes32"
        }
      ],
      "stateMutability": "view",
      "type": "function"
    },
    {
      "inputs": [
        {
          "internalType": "bytes32",
          "name": "role",
          "type": "bytes32"
        },
        {
          "internalType": "address",
          "name": "account",
          "type": "address"
        }
      ],
      "name": "grantRole",
      "outputs": [],
      "stateMutability": "nonpayable",
      "type": "function"
    },
    {
      "inputs": [
        {
          "internalType": "bytes32",
          "name": "role",
          "type": "bytes32"
        },
        {
          "internalType": "address",
          "name": "account",
          "type": "address"
        }
      ],
      "name": "hasRole",
      "outputs": [
        {
          "internalType": "bool",
          "name": "",
          "type": "bool"
        }
      ],
      "stateMutability": "view",
      "type": "function"
    },
    {
      "inputs": [
        {
          "components": [
            {
              "internalType": "address",
              "name": "owner",
              "type": "address"
            },
            {
              "internalType": "address[]",
              "name": "admins",
              "type": "address[]"
            },
            {
              "internalType": "address",
              "name": "allocationToken",
              "type": "address"
            },
            {
              "internalType": "address",
              "name": "distributionToken",
              "type": "address"
            },
            {
              "internalType": "uint256",
              "name": "maxAmount",
              "type": "uint256"
            },
            {
              "internalType": "uint64[]",
              "name": "timestamps",
              "type": "uint64[]"
            },
            {
              "internalType": "string",
              "name": "metadataURI",
              "type": "string"
            }
          ],
          "internalType": "struct PoolConfig",
          "name": "_config",
          "type": "tuple"
        },
        {
          "internalType": "bytes",
          "name": "data",
          "type": "bytes"
        }
      ],
      "name": "initialize",
      "outputs": [],
      "stateMutability": "nonpayable",
      "type": "function"
    },
    {
      "inputs": [
        {
          "internalType": "address",
          "name": "project",
          "type": "address"
        },
        {
          "internalType": "string",
          "name": "_metadataURI",
          "type": "string"
        },
        {
          "internalType": "bytes",
          "name": "data",
          "type": "bytes"
        }
      ],
      "name": "register",
      "outputs": [],
      "stateMutability": "nonpayable",
      "type": "function"
    },
    {
      "inputs": [
        {
          "internalType": "address",
          "name": "",
          "type": "address"
        }
      ],
      "name": "registrations",
      "outputs": [
        {
          "internalType": "enum IPool.Status",
          "name": "status",
          "type": "uint8"
        },
        {
          "internalType": "address",
          "name": "owner",
          "type": "address"
        },
        {
          "internalType": "string",
          "name": "metadataURI",
          "type": "string"
        },
        {
          "internalType": "bytes",
          "name": "data",
          "type": "bytes"
        }
      ],
      "stateMutability": "view",
      "type": "function"
    },
    {
      "inputs": [
        {
          "internalType": "bytes32",
          "name": "role",
          "type": "bytes32"
        },
        {
          "internalType": "address",
          "name": "callerConfirmation",
          "type": "address"
        }
      ],
      "name": "renounceRole",
      "outputs": [],
      "stateMutability": "nonpayable",
      "type": "function"
    },
    {
      "inputs": [
        {
          "internalType": "address",
          "name": "project",
          "type": "address"
        },
        {
          "internalType": "uint8",
          "name": "status",
          "type": "uint8"
        },
        {
          "internalType": "string",
          "name": "_metadataURI",
          "type": "string"
        },
        {
          "internalType": "bytes",
          "name": "data",
          "type": "bytes"
        }
      ],
      "name": "review",
      "outputs": [],
      "stateMutability": "nonpayable",
      "type": "function"
    },
    {
      "inputs": [
        {
          "internalType": "bytes32",
          "name": "role",
          "type": "bytes32"
        },
        {
          "internalType": "address",
          "name": "account",
          "type": "address"
        }
      ],
      "name": "revokeRole",
      "outputs": [],
      "stateMutability": "nonpayable",
      "type": "function"
    },
    {
      "inputs": [
        {
          "internalType": "bytes4",
          "name": "interfaceId",
          "type": "bytes4"
        }
      ],
      "name": "supportsInterface",
      "outputs": [
        {
          "internalType": "bool",
          "name": "",
          "type": "bool"
        }
      ],
      "stateMutability": "view",
      "type": "function"
    },
    {
      "inputs": [
        {
          "internalType": "address",
          "name": "project",
          "type": "address"
        },
        {
          "internalType": "string",
          "name": "_metadataURI",
          "type": "string"
        },
        {
          "internalType": "bytes",
          "name": "data",
          "type": "bytes"
        }
      ],
      "name": "update",
      "outputs": [],
      "stateMutability": "nonpayable",
      "type": "function"
    }
  ],
  "transactionHash": "0x8039b9f11c0874c1652a772be2d608ea7a7eea6ac1c921ea01da900a4e42db3d",
  "args": [
    "RetroFunding",
    "uint256 amount",
    ""
  ],
  "numDeployments": 4,
  "solcInputHash": "c584f6ec978b3e6e9aeb79db4893b9b4",
  "bytecode": "0x60806040523480156200001157600080fd5b506040516200243d3803806200243d83398101604081905262000034916200015d565b828282336001600160a01b03167f72aeb8e4e073b2b6fc374bc9e1acd0b59d25c19bc96e662f34e973d1ad9ff9fc84848460405162000076939291906200021c565b60405180910390a250506001600a55506200025b92505050565b634e487b7160e01b600052604160045260246000fd5b60005b83811015620000c3578181015183820152602001620000a9565b50506000910152565b600082601f830112620000de57600080fd5b81516001600160401b0380821115620000fb57620000fb62000090565b604051601f8301601f19908116603f0116810190828211818310171562000126576200012662000090565b816040528381528660208588010111156200014057600080fd5b62000153846020830160208901620000a6565b9695505050505050565b6000806000606084860312156200017357600080fd5b83516001600160401b03808211156200018b57600080fd5b6200019987838801620000cc565b94506020860151915080821115620001b057600080fd5b620001be87838801620000cc565b93506040860151915080821115620001d557600080fd5b50620001e486828701620000cc565b9150509250925092565b6000815180845262000208816020860160208601620000a6565b601f01601f19169290920160200192915050565b606081526000620002316060830186620001ee565b8281036020840152620002458186620001ee565b90508281036040840152620001538185620001ee565b6121d2806200026b6000396000f3fe608060405234801561001057600080fd5b50600436106101005760003560e01c806391d1485411610097578063b7b54d6511610066578063b7b54d6514610229578063c922da541461023c578063d547741f1461024f578063eede8aea1461026257600080fd5b806391d14854146101d8578063942e6bcf146101eb578063a217fddf1461020e578063ab21f5071461021657600080fd5b806358086775116100d35780635808677514610186578063747ffca21461019957806379502c55146101ac578063906b89c6146101c557600080fd5b806301ffc9a714610105578063248a9ca31461012d5780632f2ff15d1461015e57806336568abe14610173575b600080fd5b6101186101133660046116dd565b610275565b60405190151581526020015b60405180910390f35b61015061013b36600461170e565b60009081526009602052604090206001015490565b604051908152602001610124565b61017161016c366004611743565b6102ac565b005b610171610181366004611743565b6102d7565b61017161019436600461184c565b61030f565b6101716101a73660046119d3565b61031a565b6101b46103bd565b604051610124959493929190611b06565b6101716101d3366004611b4c565b610470565b6101186101e6366004611743565b610487565b6101fe6101f9366004611bcc565b6104b2565b6040516101249493929190611bfd565b610150600081565b610171610224366004611d97565b6105f9565b610171610237366004611dfa565b61065f565b61017161024a36600461184c565b61066d565b61017161025d366004611743565b610678565b6101716102703660046119d3565b61069d565b60006001600160e01b03198216637965db0b60e01b14806102a657506301ffc9a760e01b6001600160e01b03198316145b92915050565b6000828152600960205260409020600101546102c781610758565b6102d18383610765565b50505050565b6001600160a01b03811633146103005760405163334bd91960e11b815260040160405180910390fd5b61030a82826107f9565b505050565b61030a838383610866565b600061032581610758565b61032d6109ca565b6004546001600160a01b038481169116146103a05760405162461bcd60e51b815260206004820152602860248201527f446973747269627574696f6e73206d757374206265206469737472696275746960448201526737b7103a37b5b2b760c11b60648201526084015b60405180910390fd5b6103ac858585856109f4565b6103b66001600a55565b5050505050565b60018054600354600454600554600780546001600160a01b0395861696948616959093169391926103ed90611e3d565b80601f016020809104026020016040519081016040528092919081815260200182805461041990611e3d565b80156104665780601f1061043b57610100808354040283529160200191610466565b820191906000526020600020905b81548152906001019060200180831161044957829003601f168201915b5050505050905085565b600061047b81610758565b6103b685858585610d95565b60009182526009602090815260408084206001600160a01b0393909316845291905290205460ff1690565b6008602052600090815260409020805460018201805460ff8316936101009093046001600160a01b03169291906104e890611e3d565b80601f016020809104026020016040519081016040528092919081815260200182805461051490611e3d565b80156105615780601f1061053657610100808354040283529160200191610561565b820191906000526020600020905b81548152906001019060200180831161054457829003601f168201915b50505050509080600201805461057690611e3d565b80601f01602080910402602001604051908101604052809291908181526020018280546105a290611e3d565b80156105ef5780601f106105c4576101008083540402835291602001916105ef565b820191906000526020600020905b8154815290600101906020018083116105d257829003601f168201915b5050505050905084565b6106038282610e39565b815161061190600090610765565b5060005b82602001515181101561030a5761064c6000801b8460200151838151811061063f5761063f611e77565b6020026020010151610765565b508061065781611e8d565b915050610615565b6106698282610f3e565b5050565b61030a838383611037565b60008281526009602052604090206001015461069381610758565b6102d183836107f9565b6106a56109ca565b6003546001600160a01b03838116911614806106ce57506004546001600160a01b038381169116145b610742576040805162461bcd60e51b81526020600482015260248101919091527f416c6c6f636174696f6e7320746f2070726f6a65637473206d7573742062652060448201527f616c6c6f636174696f6e206f7220646973747269627574696f6e20746f6b656e6064820152608401610397565b61074e848484846111a5565b6102d16001600a55565b61076281336114a1565b50565b60006107718383610487565b6107f15760008381526009602090815260408083206001600160a01b03861684529091529020805460ff191660011790556107a93390565b6001600160a01b0316826001600160a01b0316847f2f8788117e7eff1d82e926ec794901d17c78024a50270940304540a733656f0d60405160405180910390a45060016102a6565b5060006102a6565b60006108058383610487565b156107f15760008381526009602090815260408083206001600160a01b0386168085529252808320805460ff1916905551339286917ff6391f5c32d9c69d2a47ea670b442974b53935d1edc7fd64eb21e047a839171b9190a45060016102a6565b6001600160a01b03838116600090815260086020526040902054610100900416156108c85760405162461bcd60e51b8152602060048201526012602482015271105b1c9958591e481c9959da5cdd195c995960721b6044820152606401610397565b60408051608081018252600080825233602080840191909152828401869052606083018590526001600160a01b0387168252600890529190912081518154829060ff1916600183600281111561092057610920611be7565b0217905550602082015181546001600160a01b0390911661010002610100600160a81b03199091161781556040820151600182019061095f9082611efa565b50606082015160028201906109749082611efa565b50905050336001600160a01b0316836001600160a01b03167f99202cc5abf24650e7ac53e3a81ff614768dcc7569a245376ed82eb4ce243fca84846040516109bd929190611fb9565b60405180910390a3505050565b6002600a54036109ed57604051633ee5aeb560e01b815260040160405180910390fd5b6002600a55565b83518015801590610a055750835181145b610a465760405162461bcd60e51b81526020600482015260126024820152714d69736d617463686564206c656e6774687360701b6044820152606401610397565b60005b81811015610d8d57600083518210610a705760405180602001604052806000815250610a8b565b838281518110610a8257610a82611e77565b60200260200101515b905060006001600160a01b0316878381518110610aaa57610aaa611e77565b60200260200101516001600160a01b031603610b045760405162461bcd60e51b8152602060048201526019602482015278526563697069656e74206973207a65726f206164647265737360381b6044820152606401610397565b6000868381518110610b1857610b18611e77565b6020026020010151118015610bad57506040516370a0823160e01b81523060048201526001600160a01b038616906370a0823190602401602060405180830381865afa158015610b6c573d6000803e3d6000fd5b505050506040513d601f19601f82011682018060405250810190610b909190611fe7565b868381518110610ba257610ba2611e77565b602002602001015111155b610c035760405162461bcd60e51b815260206004820152602160248201527f416d6f756e74206973207a65726f206f7220657863656564732062616c616e636044820152606560f81b6064820152608401610397565b610c41878381518110610c1857610c18611e77565b6020026020010151878481518110610c3257610c32611e77565b602002602001015187846114da565b846001600160a01b031663a9059cbb888481518110610c6257610c62611e77565b6020026020010151888581518110610c7c57610c7c611e77565b60200260200101516040518363ffffffff1660e01b8152600401610cb59291906001600160a01b03929092168252602082015260400190565b6020604051808303816000875af1158015610cd4573d6000803e3d6000fd5b505050506040513d601f19601f82011682018060405250810190610cf89190612000565b50868281518110610d0b57610d0b611e77565b60200260200101516001600160a01b0316306001600160a01b03167f68179208818f375bd941a067e321c35e8cebc048007cd126acd94625989a7b75888581518110610d5957610d59611e77565b60200260200101518885604051610d7293929190612022565b60405180910390a35080610d8581611e8d565b915050610a49565b505050505050565b6001600160a01b038416600090815260086020526040902060ff84166002811115610dc257610dc2611be7565b8154829060ff19166001836002811115610dde57610dde611be7565b0217905550336001600160a01b0316856001600160a01b03167f76dfcb7079d175d526d40b126e4a1cc466c3855e25ba5b37c3168609060e1d78868686604051610e2a9392919061204c565b60405180910390a35050505050565b60005460ff1615610e825760405162461bcd60e51b8152602060048201526013602482015272105b1c9958591e481a5b9a5d1a585b1a5e9959606a1b6044820152606401610397565b60008054600160ff199091168117909155825181546001600160a01b0319166001600160a01b039091161781556020808401518051859392610ec9926002929101906115b4565b5060408201516002820180546001600160a01b039283166001600160a01b03199182161790915560608401516003840180549190931691161790556080820151600482015560a08201518051610f29916005840191602090910190611619565b5060c082015160068201906103b69082611efa565b8051600180546001600160a01b0319166001600160a01b039092169190911781556020808301518051849392610f79926002929101906115b4565b5060408201516002820180546001600160a01b039283166001600160a01b03199182161790915560608401516003840180549190931691161790556080820151600482015560a08201518051610fd9916005840191602090910190611619565b5060c08201516006820190610fee9082611efa565b50905050816001600160a01b03167f7262fa021611ce5fba1be5b0e369cd9209c8d8408b2f67329285403f6d5a048d8260405161102b91906120c8565b60405180910390a25050565b6001600160a01b0383811660009081526008602052604090205461010090041633146110a55760405162461bcd60e51b815260206004820152601760248201527f4d757374206265206f776e657220746f207570646174650000000000000000006044820152606401610397565b60016001600160a01b03841660009081526008602052604090205460ff1660028111156110d4576110d4611be7565b036111145760405162461bcd60e51b815260206004820152601060248201526f105b1c9958591e48185c1c1c9bdd995960821b6044820152606401610397565b6001600160a01b03831660009081526008602052604090206001016111398382611efa565b506001600160a01b038316600090815260086020526040902060020161115f8282611efa565b50336001600160a01b0316836001600160a01b03167f639b764af06689bf35c6ebc1ae49051aa4b4d3a3d34d5c70bf8626087352e99d84846040516109bd929190611fb9565b835180158015906111b65750835181145b6111f75760405162461bcd60e51b81526020600482015260126024820152714d69736d617463686564206c656e6774687360701b6044820152606401610397565b60005b81811015610d8d57600083518210611221576040518060200160405280600081525061123c565b83828151811061123357611233611e77565b60200260200101515b905060006001600160a01b031687838151811061125b5761125b611e77565b60200260200101516001600160a01b0316036112b55760405162461bcd60e51b8152602060048201526019602482015278526563697069656e74206973207a65726f206164647265737360381b6044820152606401610397565b60008683815181106112c9576112c9611e77565b60200260200101511161130f5760405162461bcd60e51b815260206004820152600e60248201526d416d6f756e74206973207a65726f60901b6044820152606401610397565b61134d87838151811061132457611324611e77565b602002602001015187848151811061133e5761133e611e77565b60200260200101518784611553565b846001600160a01b03166323b872dd3389858151811061136f5761136f611e77565b602002602001015189868151811061138957611389611e77565b60209081029190910101516040516001600160e01b031960e086901b1681526001600160a01b03938416600482015292909116602483015260448201526064016020604051808303816000875af11580156113e8573d6000803e3d6000fd5b505050506040513d601f19601f8201168201806040525081019061140c9190612000565b5086828151811061141f5761141f611e77565b60200260200101516001600160a01b0316336001600160a01b03167f68179208818f375bd941a067e321c35e8cebc048007cd126acd94625989a7b7588858151811061146d5761146d611e77565b6020026020010151888560405161148693929190612022565b60405180910390a3508061149981611e8d565b9150506111fa565b6114ab8282610487565b6106695760405163e2517d3f60e01b81526001600160a01b038216600482015260248101839052604401610397565b60015b6001600160a01b03851660009081526008602052604090205460ff16600281111561150a5761150a611be7565b146102d15760405162461bcd60e51b8152602060048201526019602482015278149958da5c1a595b9d081a5cc81b9bdd08185c1c1c9bdd9959603a1b6044820152606401610397565b6001600160a01b03841630148061156c575060016114dd565b6102d15760405162461bcd60e51b8152602060048201526019602482015278149958da5c1a595b9d081a5cc81b9bdd08185c1c1c9bdd9959603a1b6044820152606401610397565b828054828255906000526020600020908101928215611609579160200282015b8281111561160957825182546001600160a01b0319166001600160a01b039091161782556020909201916001909101906115d4565b506116159291506116c8565b5090565b828054828255906000526020600020906003016004900481019282156116095791602002820160005b8382111561168c57835183826101000a8154816001600160401b0302191690836001600160401b031602179055509260200192600801602081600701049283019260010302611642565b80156116bf5782816101000a8154906001600160401b03021916905560080160208160070104928301926001030261168c565b50506116159291505b5b8082111561161557600081556001016116c9565b6000602082840312156116ef57600080fd5b81356001600160e01b03198116811461170757600080fd5b9392505050565b60006020828403121561172057600080fd5b5035919050565b80356001600160a01b038116811461173e57600080fd5b919050565b6000806040838503121561175657600080fd5b8235915061176660208401611727565b90509250929050565b634e487b7160e01b600052604160045260246000fd5b60405160e081016001600160401b03811182821017156117a7576117a761176f565b60405290565b604051601f8201601f191681016001600160401b03811182821017156117d5576117d561176f565b604052919050565b600082601f8301126117ee57600080fd5b81356001600160401b038111156118075761180761176f565b61181a601f8201601f19166020016117ad565b81815284602083860101111561182f57600080fd5b816020850160208301376000918101602001919091529392505050565b60008060006060848603121561186157600080fd5b61186a84611727565b925060208401356001600160401b038082111561188657600080fd5b611892878388016117dd565b935060408601359150808211156118a857600080fd5b506118b5868287016117dd565b9150509250925092565b60006001600160401b038211156118d8576118d861176f565b5060051b60200190565b600082601f8301126118f357600080fd5b81356020611908611903836118bf565b6117ad565b82815260059290921b8401810191818101908684111561192757600080fd5b8286015b848110156119495761193c81611727565b835291830191830161192b565b509695505050505050565b600082601f83011261196557600080fd5b81356020611975611903836118bf565b82815260059290921b8401810191818101908684111561199457600080fd5b8286015b848110156119495780356001600160401b038111156119b75760008081fd5b6119c58986838b01016117dd565b845250918301918301611998565b600080600080608085870312156119e957600080fd5b84356001600160401b0380821115611a0057600080fd5b611a0c888389016118e2565b9550602091508187013581811115611a2357600080fd5b8701601f81018913611a3457600080fd5b8035611a42611903826118bf565b81815260059190911b8201840190848101908b831115611a6157600080fd5b928501925b82841015611a7f57833582529285019290850190611a66565b9750611a919250505060408801611727565b93506060870135915080821115611aa757600080fd5b50611ab487828801611954565b91505092959194509250565b6000815180845260005b81811015611ae657602081850181015186830182015201611aca565b506000602082860101526020601f19601f83011685010191505092915050565b6001600160a01b0386811682528581166020830152841660408201526060810183905260a060808201819052600090611b4190830184611ac0565b979650505050505050565b60008060008060808587031215611b6257600080fd5b611b6b85611727565b9350602085013560ff81168114611b8157600080fd5b925060408501356001600160401b0380821115611b9d57600080fd5b611ba9888389016117dd565b93506060870135915080821115611bbf57600080fd5b50611ab4878288016117dd565b600060208284031215611bde57600080fd5b61170782611727565b634e487b7160e01b600052602160045260246000fd5b600060038610611c1d57634e487b7160e01b600052602160045260246000fd5b8582526001600160a01b0385166020830152608060408301819052611c4490830185611ac0565b8281036060840152611b418185611ac0565b600082601f830112611c6757600080fd5b81356020611c77611903836118bf565b82815260059290921b84018101918181019086841115611c9657600080fd5b8286015b848110156119495780356001600160401b0381168114611cba5760008081fd5b8352918301918301611c9a565b600060e08284031215611cd957600080fd5b611ce1611785565b9050611cec82611727565b815260208201356001600160401b0380821115611d0857600080fd5b611d14858386016118e2565b6020840152611d2560408501611727565b6040840152611d3660608501611727565b60608401526080840135608084015260a0840135915080821115611d5957600080fd5b611d6585838601611c56565b60a084015260c0840135915080821115611d7e57600080fd5b50611d8b848285016117dd565b60c08301525092915050565b60008060408385031215611daa57600080fd5b82356001600160401b0380821115611dc157600080fd5b611dcd86838701611cc7565b93506020850135915080821115611de357600080fd5b50611df0858286016117dd565b9150509250929050565b60008060408385031215611e0d57600080fd5b611e1683611727565b915060208301356001600160401b03811115611e3157600080fd5b611df085828601611cc7565b600181811c90821680611e5157607f821691505b602082108103611e7157634e487b7160e01b600052602260045260246000fd5b50919050565b634e487b7160e01b600052603260045260246000fd5b600060018201611ead57634e487b7160e01b600052601160045260246000fd5b5060010190565b601f82111561030a57600081815260208120601f850160051c81016020861015611edb5750805b601f850160051c820191505b81811015610d8d57828155600101611ee7565b81516001600160401b03811115611f1357611f1361176f565b611f2781611f218454611e3d565b84611eb4565b602080601f831160018114611f5c5760008415611f445750858301515b600019600386901b1c1916600185901b178555610d8d565b600085815260208120601f198616915b82811015611f8b57888601518255948401946001909101908401611f6c565b5085821015611fa95787850151600019600388901b60f8161c191681555b5050505050600190811b01905550565b604081526000611fcc6040830185611ac0565b8281036020840152611fde8185611ac0565b95945050505050565b600060208284031215611ff957600080fd5b5051919050565b60006020828403121561201257600080fd5b8151801515811461170757600080fd5b8381526001600160a01b0383166020820152606060408201819052600090611fde90830184611ac0565b60ff841681526060602082015260006120686060830185611ac0565b828103604084015261207a8185611ac0565b9695505050505050565b600081518084526020808501945080840160005b838110156120bd5781516001600160401b031687529582019590820190600101612098565b509495945050505050565b602080825282516001600160a01b03908116838301528382015160e060408501528051610100850181905260009392918301919084906101208701905b8083101561212757845184168252938501936001929092019190850190612105565b5060408801516001600160a01b0381166060890152945060608801516001600160a01b03811660808901529450608088015160a088015260a08801519450601f199350838782030160c088015261217e8186612084565b945050505060c0850151818584030160e086015261207a8382611ac056fea2646970667358221220d469944d3d9558f9948195574eacbf8432890a4cd9b610382fb0b99c33875dfd64736f6c63430008140033",
  "devdoc": {
    "errors": {
      "AccessControlBadConfirmation()": [
        {
          "details": "The caller of a function is not the expected one. NOTE: Don't confuse with {AccessControlUnauthorizedAccount}."
        }
      ],
      "AccessControlUnauthorizedAccount(address,bytes32)": [
        {
          "details": "The `account` is missing a role."
        }
      ],
      "ReentrancyGuardReentrantCall()": [
        {
          "details": "Unauthorized reentrant call."
        }
      ]
    },
    "events": {
      "RoleAdminChanged(bytes32,bytes32,bytes32)": {
        "details": "Emitted when `newAdminRole` is set as ``role``'s admin role, replacing `previousAdminRole` `DEFAULT_ADMIN_ROLE` is the starting admin for all roles, despite {RoleAdminChanged} not being emitted signaling this."
      },
      "RoleGranted(bytes32,address,address)": {
        "details": "Emitted when `account` is granted `role`. `sender` is the account that originated the contract call, an admin role bearer except when using {AccessControl-_setupRole}."
      },
      "RoleRevoked(bytes32,address,address)": {
        "details": "Emitted when `account` is revoked `role`. `sender` is the account that originated the contract call:   - if using `revokeRole`, it is the admin role bearer   - if using `renounceRole`, it is the role bearer (i.e. `account`)"
      }
    },
    "kind": "dev",
    "methods": {
      "getRoleAdmin(bytes32)": {
        "details": "Returns the admin role that controls `role`. See {grantRole} and {revokeRole}. To change a role's admin, use {_setRoleAdmin}."
      },
      "grantRole(bytes32,address)": {
        "details": "Grants `role` to `account`. If `account` had not been already granted `role`, emits a {RoleGranted} event. Requirements: - the caller must have ``role``'s admin role. May emit a {RoleGranted} event."
      },
      "hasRole(bytes32,address)": {
        "details": "Returns `true` if `account` has been granted `role`."
      },
      "renounceRole(bytes32,address)": {
        "details": "Revokes `role` from the calling account. Roles are often managed via {grantRole} and {revokeRole}: this function's purpose is to provide a mechanism for accounts to lose their privileges if they are compromised (such as when a trusted device is misplaced). If the calling account had been revoked `role`, emits a {RoleRevoked} event. Requirements: - the caller must be `callerConfirmation`. May emit a {RoleRevoked} event."
      },
      "revokeRole(bytes32,address)": {
        "details": "Revokes `role` from `account`. If `account` had been granted `role`, emits a {RoleRevoked} event. Requirements: - the caller must have ``role``'s admin role. May emit a {RoleRevoked} event."
      },
      "supportsInterface(bytes4)": {
        "details": "See {IERC165-supportsInterface}."
      }
    },
    "version": 1
  },
  "userdoc": {
    "kind": "user",
    "methods": {},
    "version": 1
  },
  "storageLayout": {
    "storage": [
      {
        "astId": 1429,
        "contract": "contracts/strategies/RetroFunding.sol:RetroFunding",
        "label": "_initialized",
        "offset": 0,
        "slot": "0",
        "type": "t_bool"
      },
      {
        "astId": 1432,
        "contract": "contracts/strategies/RetroFunding.sol:RetroFunding",
        "label": "config",
        "offset": 0,
        "slot": "1",
        "type": "t_struct(PoolConfig)1276_storage"
      },
      {
        "astId": 1437,
        "contract": "contracts/strategies/RetroFunding.sol:RetroFunding",
        "label": "registrations",
        "offset": 0,
        "slot": "8",
        "type": "t_mapping(t_address,t_struct(Registration)1290_storage)"
      },
      {
        "astId": 26,
        "contract": "contracts/strategies/RetroFunding.sol:RetroFunding",
        "label": "_roles",
        "offset": 0,
        "slot": "9",
        "type": "t_mapping(t_bytes32,t_struct(RoleData)21_storage)"
      },
      {
        "astId": 1161,
        "contract": "contracts/strategies/RetroFunding.sol:RetroFunding",
        "label": "_status",
        "offset": 0,
        "slot": "10",
        "type": "t_uint256"
      }
    ],
    "types": {
      "t_address": {
        "encoding": "inplace",
        "label": "address",
        "numberOfBytes": "20"
      },
      "t_array(t_address)dyn_storage": {
        "base": "t_address",
        "encoding": "dynamic_array",
        "label": "address[]",
        "numberOfBytes": "32"
      },
      "t_array(t_uint64)dyn_storage": {
        "base": "t_uint64",
        "encoding": "dynamic_array",
        "label": "uint64[]",
        "numberOfBytes": "32"
      },
      "t_bool": {
        "encoding": "inplace",
        "label": "bool",
        "numberOfBytes": "1"
      },
      "t_bytes32": {
        "encoding": "inplace",
        "label": "bytes32",
        "numberOfBytes": "32"
      },
      "t_bytes_storage": {
        "encoding": "bytes",
        "label": "bytes",
        "numberOfBytes": "32"
      },
      "t_enum(Status)1280": {
        "encoding": "inplace",
        "label": "enum IPool.Status",
        "numberOfBytes": "1"
      },
      "t_mapping(t_address,t_bool)": {
        "encoding": "mapping",
        "key": "t_address",
        "label": "mapping(address => bool)",
        "numberOfBytes": "32",
        "value": "t_bool"
      },
      "t_mapping(t_address,t_struct(Registration)1290_storage)": {
        "encoding": "mapping",
        "key": "t_address",
        "label": "mapping(address => struct IPool.Registration)",
        "numberOfBytes": "32",
        "value": "t_struct(Registration)1290_storage"
      },
      "t_mapping(t_bytes32,t_struct(RoleData)21_storage)": {
        "encoding": "mapping",
        "key": "t_bytes32",
        "label": "mapping(bytes32 => struct AccessControl.RoleData)",
        "numberOfBytes": "32",
        "value": "t_struct(RoleData)21_storage"
      },
      "t_string_storage": {
        "encoding": "bytes",
        "label": "string",
        "numberOfBytes": "32"
      },
      "t_struct(PoolConfig)1276_storage": {
        "encoding": "inplace",
        "label": "struct PoolConfig",
        "members": [
          {
            "astId": 1261,
            "contract": "contracts/strategies/RetroFunding.sol:RetroFunding",
            "label": "owner",
            "offset": 0,
            "slot": "0",
            "type": "t_address"
          },
          {
            "astId": 1264,
            "contract": "contracts/strategies/RetroFunding.sol:RetroFunding",
            "label": "admins",
            "offset": 0,
            "slot": "1",
            "type": "t_array(t_address)dyn_storage"
          },
          {
            "astId": 1266,
            "contract": "contracts/strategies/RetroFunding.sol:RetroFunding",
            "label": "allocationToken",
            "offset": 0,
            "slot": "2",
            "type": "t_address"
          },
          {
            "astId": 1268,
            "contract": "contracts/strategies/RetroFunding.sol:RetroFunding",
            "label": "distributionToken",
            "offset": 0,
            "slot": "3",
            "type": "t_address"
          },
          {
            "astId": 1270,
            "contract": "contracts/strategies/RetroFunding.sol:RetroFunding",
            "label": "maxAmount",
            "offset": 0,
            "slot": "4",
            "type": "t_uint256"
          },
          {
            "astId": 1273,
            "contract": "contracts/strategies/RetroFunding.sol:RetroFunding",
            "label": "timestamps",
            "offset": 0,
            "slot": "5",
            "type": "t_array(t_uint64)dyn_storage"
          },
          {
            "astId": 1275,
            "contract": "contracts/strategies/RetroFunding.sol:RetroFunding",
            "label": "metadataURI",
            "offset": 0,
            "slot": "6",
            "type": "t_string_storage"
          }
        ],
        "numberOfBytes": "224"
      },
      "t_struct(Registration)1290_storage": {
        "encoding": "inplace",
        "label": "struct IPool.Registration",
        "members": [
          {
            "astId": 1283,
            "contract": "contracts/strategies/RetroFunding.sol:RetroFunding",
            "label": "status",
            "offset": 0,
            "slot": "0",
            "type": "t_enum(Status)1280"
          },
          {
            "astId": 1285,
            "contract": "contracts/strategies/RetroFunding.sol:RetroFunding",
            "label": "owner",
            "offset": 1,
            "slot": "0",
            "type": "t_address"
          },
          {
            "astId": 1287,
            "contract": "contracts/strategies/RetroFunding.sol:RetroFunding",
            "label": "metadataURI",
            "offset": 0,
            "slot": "1",
            "type": "t_string_storage"
          },
          {
            "astId": 1289,
            "contract": "contracts/strategies/RetroFunding.sol:RetroFunding",
            "label": "data",
            "offset": 0,
            "slot": "2",
            "type": "t_bytes_storage"
          }
        ],
        "numberOfBytes": "96"
      },
      "t_struct(RoleData)21_storage": {
        "encoding": "inplace",
        "label": "struct AccessControl.RoleData",
        "members": [
          {
            "astId": 18,
            "contract": "contracts/strategies/RetroFunding.sol:RetroFunding",
            "label": "hasRole",
            "offset": 0,
            "slot": "0",
            "type": "t_mapping(t_address,t_bool)"
          },
          {
            "astId": 20,
            "contract": "contracts/strategies/RetroFunding.sol:RetroFunding",
            "label": "adminRole",
            "offset": 0,
            "slot": "1",
            "type": "t_bytes32"
          }
        ],
        "numberOfBytes": "64"
      },
      "t_uint256": {
        "encoding": "inplace",
        "label": "uint256",
        "numberOfBytes": "32"
      },
      "t_uint64": {
        "encoding": "inplace",
        "label": "uint64",
        "numberOfBytes": "8"
      }
    }
  }
}