{
  "address": "0xA0c46Cbd9f58F03be15cfe83E493043872994fCd",
  "abi": [
    {
      "inputs": [
        {
          "internalType": "string",
          "name": "_name",
          "type": "string"
        },
        {
          "internalType": "string",
          "name": "_schema",
          "type": "string"
        },
        {
          "components": [
            {
              "internalType": "address",
              "name": "owner",
              "type": "address"
            },
            {
              "internalType": "address[]",
              "name": "admins",
              "type": "address[]"
            },
            {
              "internalType": "address",
              "name": "allocationToken",
              "type": "address"
            },
            {
              "internalType": "address",
              "name": "distributionToken",
              "type": "address"
            },
            {
              "internalType": "uint256",
              "name": "maxAmount",
              "type": "uint256"
            },
            {
              "internalType": "uint64[]",
              "name": "timestamps",
              "type": "uint64[]"
            },
            {
              "internalType": "string",
              "name": "metadataURI",
              "type": "string"
            }
          ],
          "internalType": "struct PoolConfig",
          "name": "_config",
          "type": "tuple"
        }
      ],
      "stateMutability": "nonpayable",
      "type": "constructor"
    },
    {
      "inputs": [],
      "name": "AccessControlBadConfirmation",
      "type": "error"
    },
    {
      "inputs": [
        {
          "internalType": "address",
          "name": "account",
          "type": "address"
        },
        {
          "internalType": "bytes32",
          "name": "neededRole",
          "type": "bytes32"
        }
      ],
      "name": "AccessControlUnauthorizedAccount",
      "type": "error"
    },
    {
      "inputs": [],
      "name": "ReentrancyGuardReentrantCall",
      "type": "error"
    },
    {
      "anonymous": false,
      "inputs": [
        {
          "indexed": true,
          "internalType": "address",
          "name": "from",
          "type": "address"
        },
        {
          "indexed": true,
          "internalType": "address",
          "name": "to",
          "type": "address"
        },
        {
          "indexed": false,
          "internalType": "uint256",
          "name": "amount",
          "type": "uint256"
        },
        {
          "indexed": false,
          "internalType": "address",
          "name": "token",
          "type": "address"
        },
        {
          "indexed": false,
          "internalType": "bytes",
          "name": "data",
          "type": "bytes"
        }
      ],
      "name": "Allocate",
      "type": "event"
    },
    {
      "anonymous": false,
      "inputs": [
        {
          "indexed": true,
          "internalType": "address",
          "name": "updater",
          "type": "address"
        },
        {
          "components": [
            {
              "internalType": "address",
              "name": "owner",
              "type": "address"
            },
            {
              "internalType": "address[]",
              "name": "admins",
              "type": "address[]"
            },
            {
              "internalType": "address",
              "name": "allocationToken",
              "type": "address"
            },
            {
              "internalType": "address",
              "name": "distributionToken",
              "type": "address"
            },
            {
              "internalType": "uint256",
              "name": "maxAmount",
              "type": "uint256"
            },
            {
              "internalType": "uint64[]",
              "name": "timestamps",
              "type": "uint64[]"
            },
            {
              "internalType": "string",
              "name": "metadataURI",
              "type": "string"
            }
          ],
          "indexed": false,
          "internalType": "struct PoolConfig",
          "name": "config",
          "type": "tuple"
        }
      ],
      "name": "Configure",
      "type": "event"
    },
    {
      "anonymous": false,
      "inputs": [
        {
          "indexed": false,
          "internalType": "string",
          "name": "name",
          "type": "string"
        },
        {
          "indexed": true,
          "internalType": "address",
          "name": "owner",
          "type": "address"
        },
        {
          "indexed": false,
          "internalType": "string",
          "name": "schema",
          "type": "string"
        },
        {
          "components": [
            {
              "internalType": "address",
              "name": "owner",
              "type": "address"
            },
            {
              "internalType": "address[]",
              "name": "admins",
              "type": "address[]"
            },
            {
              "internalType": "address",
              "name": "allocationToken",
              "type": "address"
            },
            {
              "internalType": "address",
              "name": "distributionToken",
              "type": "address"
            },
            {
              "internalType": "uint256",
              "name": "maxAmount",
              "type": "uint256"
            },
            {
              "internalType": "uint64[]",
              "name": "timestamps",
              "type": "uint64[]"
            },
            {
              "internalType": "string",
              "name": "metadataURI",
              "type": "string"
            }
          ],
          "indexed": false,
          "internalType": "struct PoolConfig",
          "name": "config",
          "type": "tuple"
        }
      ],
      "name": "Deployed",
      "type": "event"
    },
    {
      "anonymous": false,
      "inputs": [
        {
          "indexed": true,
          "internalType": "address",
          "name": "project",
          "type": "address"
        },
        {
          "indexed": true,
          "internalType": "address",
          "name": "owner",
          "type": "address"
        },
        {
          "indexed": false,
          "internalType": "string",
          "name": "metadataURI",
          "type": "string"
        },
        {
          "indexed": false,
          "internalType": "bytes",
          "name": "data",
          "type": "bytes"
        }
      ],
      "name": "Register",
      "type": "event"
    },
    {
      "anonymous": false,
      "inputs": [
        {
          "indexed": true,
          "internalType": "address",
          "name": "project",
          "type": "address"
        },
        {
          "indexed": false,
          "internalType": "uint8",
          "name": "status",
          "type": "uint8"
        },
        {
          "indexed": true,
          "internalType": "address",
          "name": "approver",
          "type": "address"
        },
        {
          "indexed": false,
          "internalType": "string",
          "name": "metadataURI",
          "type": "string"
        },
        {
          "indexed": false,
          "internalType": "bytes",
          "name": "data",
          "type": "bytes"
        }
      ],
      "name": "Review",
      "type": "event"
    },
    {
      "anonymous": false,
      "inputs": [
        {
          "indexed": true,
          "internalType": "bytes32",
          "name": "role",
          "type": "bytes32"
        },
        {
          "indexed": true,
          "internalType": "bytes32",
          "name": "previousAdminRole",
          "type": "bytes32"
        },
        {
          "indexed": true,
          "internalType": "bytes32",
          "name": "newAdminRole",
          "type": "bytes32"
        }
      ],
      "name": "RoleAdminChanged",
      "type": "event"
    },
    {
      "anonymous": false,
      "inputs": [
        {
          "indexed": true,
          "internalType": "bytes32",
          "name": "role",
          "type": "bytes32"
        },
        {
          "indexed": true,
          "internalType": "address",
          "name": "account",
          "type": "address"
        },
        {
          "indexed": true,
          "internalType": "address",
          "name": "sender",
          "type": "address"
        }
      ],
      "name": "RoleGranted",
      "type": "event"
    },
    {
      "anonymous": false,
      "inputs": [
        {
          "indexed": true,
          "internalType": "bytes32",
          "name": "role",
          "type": "bytes32"
        },
        {
          "indexed": true,
          "internalType": "address",
          "name": "account",
          "type": "address"
        },
        {
          "indexed": true,
          "internalType": "address",
          "name": "sender",
          "type": "address"
        }
      ],
      "name": "RoleRevoked",
      "type": "event"
    },
    {
      "anonymous": false,
      "inputs": [
        {
          "indexed": true,
          "internalType": "address",
          "name": "project",
          "type": "address"
        },
        {
          "indexed": true,
          "internalType": "address",
          "name": "updater",
          "type": "address"
        },
        {
          "indexed": false,
          "internalType": "string",
          "name": "metadataURI",
          "type": "string"
        },
        {
          "indexed": false,
          "internalType": "bytes",
          "name": "data",
          "type": "bytes"
        }
      ],
      "name": "Update",
      "type": "event"
    },
    {
      "inputs": [],
      "name": "DEFAULT_ADMIN_ROLE",
      "outputs": [
        {
          "internalType": "bytes32",
          "name": "",
          "type": "bytes32"
        }
      ],
      "stateMutability": "view",
      "type": "function"
    },
    {
      "inputs": [
        {
          "internalType": "address[]",
          "name": "recipients",
          "type": "address[]"
        },
        {
          "internalType": "uint256[]",
          "name": "amounts",
          "type": "uint256[]"
        },
        {
          "internalType": "address",
          "name": "token",
          "type": "address"
        },
        {
          "internalType": "bytes[]",
          "name": "data",
          "type": "bytes[]"
        }
      ],
      "name": "_allocate",
      "outputs": [],
      "stateMutability": "nonpayable",
      "type": "function"
    },
    {
      "inputs": [
        {
          "internalType": "address",
          "name": "_updater",
          "type": "address"
        },
        {
          "components": [
            {
              "internalType": "address",
              "name": "owner",
              "type": "address"
            },
            {
              "internalType": "address[]",
              "name": "admins",
              "type": "address[]"
            },
            {
              "internalType": "address",
              "name": "allocationToken",
              "type": "address"
            },
            {
              "internalType": "address",
              "name": "distributionToken",
              "type": "address"
            },
            {
              "internalType": "uint256",
              "name": "maxAmount",
              "type": "uint256"
            },
            {
              "internalType": "uint64[]",
              "name": "timestamps",
              "type": "uint64[]"
            },
            {
              "internalType": "string",
              "name": "metadataURI",
              "type": "string"
            }
          ],
          "internalType": "struct PoolConfig",
          "name": "_config",
          "type": "tuple"
        }
      ],
      "name": "_configure",
      "outputs": [],
      "stateMutability": "nonpayable",
      "type": "function"
    },
    {
      "inputs": [
        {
          "internalType": "address[]",
          "name": "recipients",
          "type": "address[]"
        },
        {
          "internalType": "uint256[]",
          "name": "amounts",
          "type": "uint256[]"
        },
        {
          "internalType": "address",
          "name": "token",
          "type": "address"
        },
        {
          "internalType": "bytes[]",
          "name": "data",
          "type": "bytes[]"
        }
      ],
      "name": "_distribute",
      "outputs": [],
      "stateMutability": "nonpayable",
      "type": "function"
    },
    {
      "inputs": [
        {
          "internalType": "address",
          "name": "project",
          "type": "address"
        },
        {
          "internalType": "string",
          "name": "_metadataURI",
          "type": "string"
        },
        {
          "internalType": "bytes",
          "name": "data",
          "type": "bytes"
        }
      ],
      "name": "_register",
      "outputs": [],
      "stateMutability": "nonpayable",
      "type": "function"
    },
    {
      "inputs": [
        {
          "internalType": "address",
          "name": "project",
          "type": "address"
        },
        {
          "internalType": "uint8",
          "name": "status",
          "type": "uint8"
        },
        {
          "internalType": "string",
          "name": "_metadataURI",
          "type": "string"
        },
        {
          "internalType": "bytes",
          "name": "data",
          "type": "bytes"
        }
      ],
      "name": "_review",
      "outputs": [],
      "stateMutability": "nonpayable",
      "type": "function"
    },
    {
      "inputs": [
        {
          "internalType": "address",
          "name": "project",
          "type": "address"
        },
        {
          "internalType": "string",
          "name": "_metadataURI",
          "type": "string"
        },
        {
          "internalType": "bytes",
          "name": "data",
          "type": "bytes"
        }
      ],
      "name": "_update",
      "outputs": [],
      "stateMutability": "nonpayable",
      "type": "function"
    },
    {
      "inputs": [
        {
          "internalType": "address[]",
          "name": "recipients",
          "type": "address[]"
        },
        {
          "internalType": "uint256[]",
          "name": "amounts",
          "type": "uint256[]"
        },
        {
          "internalType": "address",
          "name": "token",
          "type": "address"
        },
        {
          "internalType": "bytes[]",
          "name": "data",
          "type": "bytes[]"
        }
      ],
      "name": "allocate",
      "outputs": [],
      "stateMutability": "nonpayable",
      "type": "function"
    },
    {
      "inputs": [],
      "name": "config",
      "outputs": [
        {
          "internalType": "address",
          "name": "owner",
          "type": "address"
        },
        {
          "internalType": "address",
          "name": "allocationToken",
          "type": "address"
        },
        {
          "internalType": "address",
          "name": "distributionToken",
          "type": "address"
        },
        {
          "internalType": "uint256",
          "name": "maxAmount",
          "type": "uint256"
        },
        {
          "internalType": "string",
          "name": "metadataURI",
          "type": "string"
        }
      ],
      "stateMutability": "view",
      "type": "function"
    },
    {
      "inputs": [
        {
          "internalType": "address[]",
          "name": "recipients",
          "type": "address[]"
        },
        {
          "internalType": "uint256[]",
          "name": "amounts",
          "type": "uint256[]"
        },
        {
          "internalType": "address",
          "name": "token",
          "type": "address"
        },
        {
          "internalType": "bytes[]",
          "name": "data",
          "type": "bytes[]"
        }
      ],
      "name": "distribute",
      "outputs": [],
      "stateMutability": "nonpayable",
      "type": "function"
    },
    {
      "inputs": [
        {
          "internalType": "bytes32",
          "name": "role",
          "type": "bytes32"
        }
      ],
      "name": "getRoleAdmin",
      "outputs": [
        {
          "internalType": "bytes32",
          "name": "",
          "type": "bytes32"
        }
      ],
      "stateMutability": "view",
      "type": "function"
    },
    {
      "inputs": [
        {
          "internalType": "bytes32",
          "name": "role",
          "type": "bytes32"
        },
        {
          "internalType": "address",
          "name": "account",
          "type": "address"
        }
      ],
      "name": "grantRole",
      "outputs": [],
      "stateMutability": "nonpayable",
      "type": "function"
    },
    {
      "inputs": [
        {
          "internalType": "bytes32",
          "name": "role",
          "type": "bytes32"
        },
        {
          "internalType": "address",
          "name": "account",
          "type": "address"
        }
      ],
      "name": "hasRole",
      "outputs": [
        {
          "internalType": "bool",
          "name": "",
          "type": "bool"
        }
      ],
      "stateMutability": "view",
      "type": "function"
    },
    {
      "inputs": [
        {
          "components": [
            {
              "internalType": "address",
              "name": "owner",
              "type": "address"
            },
            {
              "internalType": "address[]",
              "name": "admins",
              "type": "address[]"
            },
            {
              "internalType": "address",
              "name": "allocationToken",
              "type": "address"
            },
            {
              "internalType": "address",
              "name": "distributionToken",
              "type": "address"
            },
            {
              "internalType": "uint256",
              "name": "maxAmount",
              "type": "uint256"
            },
            {
              "internalType": "uint64[]",
              "name": "timestamps",
              "type": "uint64[]"
            },
            {
              "internalType": "string",
              "name": "metadataURI",
              "type": "string"
            }
          ],
          "internalType": "struct PoolConfig",
          "name": "_config",
          "type": "tuple"
        },
        {
          "internalType": "bytes",
          "name": "data",
          "type": "bytes"
        }
      ],
      "name": "initialize",
      "outputs": [],
      "stateMutability": "nonpayable",
      "type": "function"
    },
    {
      "inputs": [
        {
          "internalType": "address",
          "name": "project",
          "type": "address"
        },
        {
          "internalType": "string",
          "name": "_metadataURI",
          "type": "string"
        },
        {
          "internalType": "bytes",
          "name": "data",
          "type": "bytes"
        }
      ],
      "name": "register",
      "outputs": [],
      "stateMutability": "nonpayable",
      "type": "function"
    },
    {
      "inputs": [
        {
          "internalType": "address",
          "name": "",
          "type": "address"
        }
      ],
      "name": "registrations",
      "outputs": [
        {
          "internalType": "enum IPool.Status",
          "name": "status",
          "type": "uint8"
        },
        {
          "internalType": "address",
          "name": "owner",
          "type": "address"
        },
        {
          "internalType": "string",
          "name": "metadataURI",
          "type": "string"
        },
        {
          "internalType": "bytes",
          "name": "data",
          "type": "bytes"
        }
      ],
      "stateMutability": "view",
      "type": "function"
    },
    {
      "inputs": [
        {
          "internalType": "bytes32",
          "name": "role",
          "type": "bytes32"
        },
        {
          "internalType": "address",
          "name": "callerConfirmation",
          "type": "address"
        }
      ],
      "name": "renounceRole",
      "outputs": [],
      "stateMutability": "nonpayable",
      "type": "function"
    },
    {
      "inputs": [
        {
          "internalType": "address",
          "name": "project",
          "type": "address"
        },
        {
          "internalType": "uint8",
          "name": "status",
          "type": "uint8"
        },
        {
          "internalType": "string",
          "name": "_metadataURI",
          "type": "string"
        },
        {
          "internalType": "bytes",
          "name": "data",
          "type": "bytes"
        }
      ],
      "name": "review",
      "outputs": [],
      "stateMutability": "nonpayable",
      "type": "function"
    },
    {
      "inputs": [
        {
          "internalType": "bytes32",
          "name": "role",
          "type": "bytes32"
        },
        {
          "internalType": "address",
          "name": "account",
          "type": "address"
        }
      ],
      "name": "revokeRole",
      "outputs": [],
      "stateMutability": "nonpayable",
      "type": "function"
    },
    {
      "inputs": [
        {
          "internalType": "bytes4",
          "name": "interfaceId",
          "type": "bytes4"
        }
      ],
      "name": "supportsInterface",
      "outputs": [
        {
          "internalType": "bool",
          "name": "",
          "type": "bool"
        }
      ],
      "stateMutability": "view",
      "type": "function"
    },
    {
      "inputs": [
        {
          "internalType": "address",
          "name": "project",
          "type": "address"
        },
        {
          "internalType": "string",
          "name": "_metadataURI",
          "type": "string"
        },
        {
          "internalType": "bytes",
          "name": "data",
          "type": "bytes"
        }
      ],
      "name": "update",
      "outputs": [],
      "stateMutability": "nonpayable",
      "type": "function"
    }
  ],
  "transactionHash": "0x5b1cf539a6e9218e146fcf9ea1f45f3a807c02accf2a68b05b708670a93984e3",
  "args": [
    "RetroFunding",
    "uint256 amount",
    {
      "owner": "0x8595e36857743A1C517e00179e6bA6D170DD1F51",
      "allocationToken": "0x0000000000000000000000000000000000000000",
      "distributionToken": "0x0000000000000000000000000000000000000000",
      "maxAmount": "0",
      "metadataURI": "",
      "admins": [],
      "timestamps": []
    }
  ],
  "numDeployments": 2,
  "solcInputHash": "be2a9ca12bddf2b0431d882d1c41cc21",
  "bytecode": "0x60806040523480156200001157600080fd5b50604051620027e9380380620027e9833981016040819052620000349162000402565b828282336001600160a01b03167f432d5e51ce671e91daae7448ef02fde36fd474baf4f93d31ff4ace1ad9a1a6bd8484846040516200007693929190620005cc565b60405180910390a250506001600a81905554620000a091506000906001600160a01b031662000109565b5060005b600254811015620000ff5760028054620000e99160009184908110620000ce57620000ce620006e0565b6000918252602090912001546001600160a01b031662000109565b5080620000f681620006f6565b915050620000a4565b505050506200071e565b60008281526009602090815260408083206001600160a01b038516845290915281205460ff16620001b25760008381526009602090815260408083206001600160a01b03861684529091529020805460ff19166001179055620001693390565b6001600160a01b0316826001600160a01b0316847f2f8788117e7eff1d82e926ec794901d17c78024a50270940304540a733656f0d60405160405180910390a4506001620001b6565b5060005b92915050565b634e487b7160e01b600052604160045260246000fd5b60405160e081016001600160401b0381118282101715620001f757620001f7620001bc565b60405290565b604051601f8201601f191681016001600160401b0381118282101715620002285762000228620001bc565b604052919050565b60005b838110156200024d57818101518382015260200162000233565b50506000910152565b600082601f8301126200026857600080fd5b81516001600160401b03811115620002845762000284620001bc565b62000299601f8201601f1916602001620001fd565b818152846020838601011115620002af57600080fd5b620002c282602083016020870162000230565b949350505050565b80516001600160a01b0381168114620002e257600080fd5b919050565b60006001600160401b03821115620003035762000303620001bc565b5060051b60200190565b600082601f8301126200031f57600080fd5b81516020620003386200033283620002e7565b620001fd565b82815260059290921b840181019181810190868411156200035857600080fd5b8286015b848110156200037e576200037081620002ca565b83529183019183016200035c565b509695505050505050565b600082601f8301126200039b57600080fd5b81516020620003ae6200033283620002e7565b82815260059290921b84018101918181019086841115620003ce57600080fd5b8286015b848110156200037e5780516001600160401b0381168114620003f45760008081fd5b8352918301918301620003d2565b6000806000606084860312156200041857600080fd5b83516001600160401b03808211156200043057600080fd5b6200043e8783880162000256565b945060208601519150808211156200045557600080fd5b620004638783880162000256565b935060408601519150808211156200047a57600080fd5b9085019060e082880312156200048f57600080fd5b62000499620001d2565b620004a483620002ca565b8152602083015182811115620004b957600080fd5b620004c7898286016200030d565b602083015250620004db60408401620002ca565b6040820152620004ee60608401620002ca565b60608201526080830151608082015260a0830151828111156200051057600080fd5b6200051e8982860162000389565b60a08301525060c0830151828111156200053757600080fd5b620005458982860162000256565b60c0830152508093505050509250925092565b600081518084526200057281602086016020860162000230565b601f01601f19169290920160200192915050565b600081518084526020808501945080840160005b83811015620005c15781516001600160401b0316875295820195908201906001016200059a565b509495945050505050565b606081526000620005e1606083018662000558565b602083820381850152620005f6828762000558565b848103604086015285516001600160a01b0390811682528287015160e084840181905281519084018190529294508301916000906101008601905b80831015620006555784518416825293850193600192909201919085019062000631565b50604089015194506200067360408701866001600160a01b03169052565b606089015194506200069060608701866001600160a01b03169052565b6080890151608087015260a0890151945085810360a0870152620006b5818662000586565b94505050505060c085015182820360c0840152620006d4828262000558565b98975050505050505050565b634e487b7160e01b600052603260045260246000fd5b6000600182016200071757634e487b7160e01b600052601160045260246000fd5b5060010190565b6120bb806200072e6000396000f3fe608060405234801561001057600080fd5b50600436106101375760003560e01c806379502c55116100b85780639cdd2f9a1161007c5780639cdd2f9a146102a4578063a217fddf146102b7578063ab21f507146102bf578063c922da54146102d2578063d547741f146102e5578063eede8aea146102f857600080fd5b806379502c551461022f57806379b881af14610248578063906b89c61461025b57806391d148541461026e578063942e6bcf1461028157600080fd5b806336568abe116100ff57806336568abe146101d05780635587a37e146101e357806358086775146101f65780635cf9098514610209578063747ffca21461021c57600080fd5b806301ffc9a71461013c5780631cf3025414610164578063248a9ca3146101795780632628fb1c146101aa5780632f2ff15d146101bd575b600080fd5b61014f61014a36600461156e565b61030b565b60405190151581526020015b60405180910390f35b610177610172366004611698565b610342565b005b61019c610187366004611724565b60009081526009602052604090206001015490565b60405190815260200161015b565b6101776101b8366004611851565b610443565b6101776101cb366004611932565b6107e4565b6101776101de366004611932565b61080f565b6101776101f1366004611a9f565b610847565b610177610204366004611aec565b61088c565b610177610217366004611aec565b610897565b61017761022a366004611851565b6109a3565b610237610a41565b60405161015b959493929190611ba5565b610177610256366004611aec565b610af4565b610177610269366004611698565b610c4b565b61014f61027c366004611932565b610c62565b61029461028f366004611beb565b610c8d565b60405161015b9493929190611c1c565b6101776102b2366004611851565b610dd4565b61019c600081565b6101776102cd366004611c75565b6110d0565b6101776102e0366004611aec565b61112c565b6101776102f3366004611932565b611137565b610177610306366004611851565b61115c565b60006001600160e01b03198216637965db0b60e01b148061033c57506301ffc9a760e01b6001600160e01b03198316145b92915050565b6001600160a01b03841660009081526008602052604090206001815460ff16600281111561037257610372611c06565b036103b75760405162461bcd60e51b815260206004820152601060248201526f105b1c9958591e48185c1c1c9bdd995960821b60448201526064015b60405180910390fd5b8360ff1660028111156103cc576103cc611c06565b8154829060ff191660018360028111156103e8576103e8611c06565b0217905550336001600160a01b0316856001600160a01b03167f76dfcb7079d175d526d40b126e4a1cc466c3855e25ba5b37c3168609060e1d7886868660405161043493929190611d0b565b60405180910390a35050505050565b835180158015906104545750835181145b6104955760405162461bcd60e51b81526020600482015260126024820152714d69736d617463686564206c656e6774687360701b60448201526064016103ae565b60005b818110156107dc576000835182106104bf57604051806020016040528060008152506104da565b8382815181106104d1576104d1611d43565b60200260200101515b905060006001600160a01b03168783815181106104f9576104f9611d43565b60200260200101516001600160a01b0316036105535760405162461bcd60e51b8152602060048201526019602482015278526563697069656e74206973207a65726f206164647265737360381b60448201526064016103ae565b600086838151811061056757610567611d43565b60200260200101511180156105fc57506040516370a0823160e01b81523060048201526001600160a01b038616906370a0823190602401602060405180830381865afa1580156105bb573d6000803e3d6000fd5b505050506040513d601f19601f820116820180604052508101906105df9190611d59565b8683815181106105f1576105f1611d43565b602002602001015111155b6106525760405162461bcd60e51b815260206004820152602160248201527f416d6f756e74206973207a65726f206f7220657863656564732062616c616e636044820152606560f81b60648201526084016103ae565b61069087838151811061066757610667611d43565b602002602001015187848151811061068157610681611d43565b60200260200101518784611217565b846001600160a01b031663a9059cbb8884815181106106b1576106b1611d43565b60200260200101518885815181106106cb576106cb611d43565b60200260200101516040518363ffffffff1660e01b81526004016107049291906001600160a01b03929092168252602082015260400190565b6020604051808303816000875af1158015610723573d6000803e3d6000fd5b505050506040513d601f19601f820116820180604052508101906107479190611d72565b5086828151811061075a5761075a611d43565b60200260200101516001600160a01b0316306001600160a01b03167f68179208818f375bd941a067e321c35e8cebc048007cd126acd94625989a7b758885815181106107a8576107a8611d43565b602002602001015188856040516107c193929190611d94565b60405180910390a350806107d481611ddd565b915050610498565b505050505050565b6000828152600960205260409020600101546107ff8161128f565b610809838361129c565b50505050565b6001600160a01b03811633146108385760405163334bd91960e11b815260040160405180910390fd5b6108428282611330565b505050565b816001600160a01b03167f7262fa021611ce5fba1be5b0e369cd9209c8d8408b2f67329285403f6d5a048d826040516108809190611e3a565b60405180910390a25050565b610842838383610af4565b6001600160a01b0383811660009081526008602052604090205461010090041633146109055760405162461bcd60e51b815260206004820152601760248201527f4d757374206265206f776e657220746f2075706461746500000000000000000060448201526064016103ae565b6001600160a01b038316600090815260086020526040902060010161092a8382611f8e565b506001600160a01b03831660009081526008602052604090206002016109508282611f8e565b50336001600160a01b0316836001600160a01b03167f639b764af06689bf35c6ebc1ae49051aa4b4d3a3d34d5c70bf8626087352e99d848460405161099692919061204d565b60405180910390a3505050565b60006109ae8161128f565b6109b661139d565b6004546001600160a01b03848116911614610a245760405162461bcd60e51b815260206004820152602860248201527f446973747269627574696f6e73206d757374206265206469737472696275746960448201526737b7103a37b5b2b760c11b60648201526084016103ae565b610a3085858585610443565b610a3a6001600a55565b5050505050565b60018054600354600454600554600780546001600160a01b039586169694861695909316939192610a7190611f0e565b80601f0160208091040260200160405190810160405280929190818152602001828054610a9d90611f0e565b8015610aea5780601f10610abf57610100808354040283529160200191610aea565b820191906000526020600020905b815481529060010190602001808311610acd57829003601f168201915b5050505050905085565b6001600160a01b0383811660009081526008602052604090205461010090041615610b565760405162461bcd60e51b8152602060048201526012602482015271105b1c9958591e481c9959da5cdd195c995960721b60448201526064016103ae565b60408051608081018252600080825233602080840191909152828401869052606083018590526001600160a01b0387168252600890529190912081518154829060ff19166001836002811115610bae57610bae611c06565b0217905550602082015181546001600160a01b0390911661010002610100600160a81b031990911617815560408201516001820190610bed9082611f8e565b5060608201516002820190610c029082611f8e565b50905050336001600160a01b0316836001600160a01b03167f99202cc5abf24650e7ac53e3a81ff614768dcc7569a245376ed82eb4ce243fca848460405161099692919061204d565b6000610c568161128f565b610a3a85858585610342565b60009182526009602090815260408084206001600160a01b0393909316845291905290205460ff1690565b6008602052600090815260409020805460018201805460ff8316936101009093046001600160a01b0316929190610cc390611f0e565b80601f0160208091040260200160405190810160405280929190818152602001828054610cef90611f0e565b8015610d3c5780601f10610d1157610100808354040283529160200191610d3c565b820191906000526020600020905b815481529060010190602001808311610d1f57829003601f168201915b505050505090806002018054610d5190611f0e565b80601f0160208091040260200160405190810160405280929190818152602001828054610d7d90611f0e565b8015610dca5780601f10610d9f57610100808354040283529160200191610dca565b820191906000526020600020905b815481529060010190602001808311610dad57829003601f168201915b5050505050905084565b83518015801590610de55750835181145b610e265760405162461bcd60e51b81526020600482015260126024820152714d69736d617463686564206c656e6774687360701b60448201526064016103ae565b60005b818110156107dc57600083518210610e505760405180602001604052806000815250610e6b565b838281518110610e6257610e62611d43565b60200260200101515b905060006001600160a01b0316878381518110610e8a57610e8a611d43565b60200260200101516001600160a01b031603610ee45760405162461bcd60e51b8152602060048201526019602482015278526563697069656e74206973207a65726f206164647265737360381b60448201526064016103ae565b6000868381518110610ef857610ef8611d43565b602002602001015111610f3e5760405162461bcd60e51b815260206004820152600e60248201526d416d6f756e74206973207a65726f60901b60448201526064016103ae565b610f7c878381518110610f5357610f53611d43565b6020026020010151878481518110610f6d57610f6d611d43565b602002602001015187846113c7565b846001600160a01b03166323b872dd33898581518110610f9e57610f9e611d43565b6020026020010151898681518110610fb857610fb8611d43565b60209081029190910101516040516001600160e01b031960e086901b1681526001600160a01b03938416600482015292909116602483015260448201526064016020604051808303816000875af1158015611017573d6000803e3d6000fd5b505050506040513d601f19601f8201168201806040525081019061103b9190611d72565b5086828151811061104e5761104e611d43565b60200260200101516001600160a01b0316336001600160a01b03167f68179208818f375bd941a067e321c35e8cebc048007cd126acd94625989a7b7588858151811061109c5761109c611d43565b602002602001015188856040516110b593929190611d94565b60405180910390a350806110c881611ddd565b915050610e29565b82516110de9060009061129c565b5060005b836020015151811015610809576111196000801b8560200151838151811061110c5761110c611d43565b602002602001015161129c565b508061112481611ddd565b9150506110e2565b610842838383610897565b6000828152600960205260409020600101546111528161128f565b6108098383611330565b61116461139d565b6003546001600160a01b038381169116148061118d57506004546001600160a01b038381169116145b611201576040805162461bcd60e51b81526020600482015260248101919091527f416c6c6f636174696f6e7320746f2070726f6a65637473206d7573742062652060448201527f616c6c6f636174696f6e206f7220646973747269627574696f6e20746f6b656e60648201526084016103ae565b61120d84848484610dd4565b6108096001600a55565b60016001600160a01b03851660009081526008602052604090205460ff16600281111561124657611246611c06565b146108095760405162461bcd60e51b8152602060048201526019602482015278149958da5c1a595b9d081a5cc81b9bdd08185c1c1c9bdd9959603a1b60448201526064016103ae565b6112998133611531565b50565b60006112a88383610c62565b6113285760008381526009602090815260408083206001600160a01b03861684529091529020805460ff191660011790556112e03390565b6001600160a01b0316826001600160a01b0316847f2f8788117e7eff1d82e926ec794901d17c78024a50270940304540a733656f0d60405160405180910390a450600161033c565b50600061033c565b600061133c8383610c62565b156113285760008381526009602090815260408083206001600160a01b0386168085529252808320805460ff1916905551339286917ff6391f5c32d9c69d2a47ea670b442974b53935d1edc7fd64eb21e047a839171b9190a450600161033c565b6002600a54036113c057604051633ee5aeb560e01b815260040160405180910390fd5b6002600a55565b6001600160a01b03841630148061140a575060016001600160a01b03851660009081526008602052604090205460ff16600281111561140857611408611c06565b145b6114525760405162461bcd60e51b8152602060048201526019602482015278149958da5c1a595b9d081a5cc81b9bdd08185c1c1c9bdd9959603a1b60448201526064016103ae565b6004546001600160a01b0390811690831603610809576040516370a0823160e01b81523060048201526000906001600160a01b038416906370a0823190602401602060405180830381865afa1580156114af573d6000803e3d6000fd5b505050506040513d601f19601f820116820180604052508101906114d39190611d59565b60055490915015806114f057506005546114ed8286612072565b11155b610a3a5760405162461bcd60e51b815260206004820152601260248201527113585e08185b5bdd5b9d081c995858da195960721b60448201526064016103ae565b61153b8282610c62565b61156a5760405163e2517d3f60e01b81526001600160a01b0382166004820152602481018390526044016103ae565b5050565b60006020828403121561158057600080fd5b81356001600160e01b03198116811461159857600080fd5b9392505050565b80356001600160a01b03811681146115b657600080fd5b919050565b634e487b7160e01b600052604160045260246000fd5b60405160e081016001600160401b03811182821017156115f3576115f36115bb565b60405290565b604051601f8201601f191681016001600160401b0381118282101715611621576116216115bb565b604052919050565b600082601f83011261163a57600080fd5b81356001600160401b03811115611653576116536115bb565b611666601f8201601f19166020016115f9565b81815284602083860101111561167b57600080fd5b816020850160208301376000918101602001919091529392505050565b600080600080608085870312156116ae57600080fd5b6116b78561159f565b9350602085013560ff811681146116cd57600080fd5b925060408501356001600160401b03808211156116e957600080fd5b6116f588838901611629565b9350606087013591508082111561170b57600080fd5b5061171887828801611629565b91505092959194509250565b60006020828403121561173657600080fd5b5035919050565b60006001600160401b03821115611756576117566115bb565b5060051b60200190565b600082601f83011261177157600080fd5b813560206117866117818361173d565b6115f9565b82815260059290921b840181019181810190868411156117a557600080fd5b8286015b848110156117c7576117ba8161159f565b83529183019183016117a9565b509695505050505050565b600082601f8301126117e357600080fd5b813560206117f36117818361173d565b82815260059290921b8401810191818101908684111561181257600080fd5b8286015b848110156117c75780356001600160401b038111156118355760008081fd5b6118438986838b0101611629565b845250918301918301611816565b6000806000806080858703121561186757600080fd5b84356001600160401b038082111561187e57600080fd5b61188a88838901611760565b95506020915081870135818111156118a157600080fd5b8701601f810189136118b257600080fd5b80356118c06117818261173d565b81815260059190911b8201840190848101908b8311156118df57600080fd5b928501925b828410156118fd578335825292850192908501906118e4565b975061190f925050506040880161159f565b9350606087013591508082111561192557600080fd5b50611718878288016117d2565b6000806040838503121561194557600080fd5b823591506119556020840161159f565b90509250929050565b600082601f83011261196f57600080fd5b8135602061197f6117818361173d565b82815260059290921b8401810191818101908684111561199e57600080fd5b8286015b848110156117c75780356001600160401b03811681146119c25760008081fd5b83529183019183016119a2565b600060e082840312156119e157600080fd5b6119e96115d1565b90506119f48261159f565b815260208201356001600160401b0380821115611a1057600080fd5b611a1c85838601611760565b6020840152611a2d6040850161159f565b6040840152611a3e6060850161159f565b60608401526080840135608084015260a0840135915080821115611a6157600080fd5b611a6d8583860161195e565b60a084015260c0840135915080821115611a8657600080fd5b50611a9384828501611629565b60c08301525092915050565b60008060408385031215611ab257600080fd5b611abb8361159f565b915060208301356001600160401b03811115611ad657600080fd5b611ae2858286016119cf565b9150509250929050565b600080600060608486031215611b0157600080fd5b611b0a8461159f565b925060208401356001600160401b0380821115611b2657600080fd5b611b3287838801611629565b93506040860135915080821115611b4857600080fd5b50611b5586828701611629565b9150509250925092565b6000815180845260005b81811015611b8557602081850181015186830182015201611b69565b506000602082860101526020601f19601f83011685010191505092915050565b6001600160a01b0386811682528581166020830152841660408201526060810183905260a060808201819052600090611be090830184611b5f565b979650505050505050565b600060208284031215611bfd57600080fd5b6115988261159f565b634e487b7160e01b600052602160045260246000fd5b600060038610611c3c57634e487b7160e01b600052602160045260246000fd5b8582526001600160a01b0385166020830152608060408301819052611c6390830185611b5f565b8281036060840152611be08185611b5f565b600080600060408486031215611c8a57600080fd5b83356001600160401b0380821115611ca157600080fd5b611cad878388016119cf565b94506020860135915080821115611cc357600080fd5b818601915086601f830112611cd757600080fd5b813581811115611ce657600080fd5b876020828501011115611cf857600080fd5b6020830194508093505050509250925092565b60ff84168152606060208201526000611d276060830185611b5f565b8281036040840152611d398185611b5f565b9695505050505050565b634e487b7160e01b600052603260045260246000fd5b600060208284031215611d6b57600080fd5b5051919050565b600060208284031215611d8457600080fd5b8151801515811461159857600080fd5b8381526001600160a01b0383166020820152606060408201819052600090611dbe90830184611b5f565b95945050505050565b634e487b7160e01b600052601160045260246000fd5b600060018201611def57611def611dc7565b5060010190565b600081518084526020808501945080840160005b83811015611e2f5781516001600160401b031687529582019590820190600101611e0a565b509495945050505050565b602080825282516001600160a01b03908116838301528382015160e060408501528051610100850181905260009392918301919084906101208701905b80831015611e9957845184168252938501936001929092019190850190611e77565b5060408801516001600160a01b0381166060890152945060608801516001600160a01b03811660808901529450608088015160a088015260a08801519450601f199350838782030160c0880152611ef08186611df6565b945050505060c0850151818584030160e0860152611d398382611b5f565b600181811c90821680611f2257607f821691505b602082108103611f4257634e487b7160e01b600052602260045260246000fd5b50919050565b601f82111561084257600081815260208120601f850160051c81016020861015611f6f5750805b601f850160051c820191505b818110156107dc57828155600101611f7b565b81516001600160401b03811115611fa757611fa76115bb565b611fbb81611fb58454611f0e565b84611f48565b602080601f831160018114611ff05760008415611fd85750858301515b600019600386901b1c1916600185901b1785556107dc565b600085815260208120601f198616915b8281101561201f57888601518255948401946001909101908401612000565b508582101561203d5787850151600019600388901b60f8161c191681555b5050505050600190811b01905550565b6040815260006120606040830185611b5f565b8281036020840152611dbe8185611b5f565b8082018082111561033c5761033c611dc756fea2646970667358221220710b7c213573b1a26adb63f3bda8d2489a8f90d418c8a88e06d95c74adc5fb1e64736f6c63430008140033",
  "devdoc": {
    "errors": {
      "AccessControlBadConfirmation()": [
        {
          "details": "The caller of a function is not the expected one. NOTE: Don't confuse with {AccessControlUnauthorizedAccount}."
        }
      ],
      "AccessControlUnauthorizedAccount(address,bytes32)": [
        {
          "details": "The `account` is missing a role."
        }
      ],
      "ReentrancyGuardReentrantCall()": [
        {
          "details": "Unauthorized reentrant call."
        }
      ]
    },
    "events": {
      "RoleAdminChanged(bytes32,bytes32,bytes32)": {
        "details": "Emitted when `newAdminRole` is set as ``role``'s admin role, replacing `previousAdminRole` `DEFAULT_ADMIN_ROLE` is the starting admin for all roles, despite {RoleAdminChanged} not being emitted signaling this."
      },
      "RoleGranted(bytes32,address,address)": {
        "details": "Emitted when `account` is granted `role`. `sender` is the account that originated the contract call, an admin role bearer except when using {AccessControl-_setupRole}."
      },
      "RoleRevoked(bytes32,address,address)": {
        "details": "Emitted when `account` is revoked `role`. `sender` is the account that originated the contract call:   - if using `revokeRole`, it is the admin role bearer   - if using `renounceRole`, it is the role bearer (i.e. `account`)"
      }
    },
    "kind": "dev",
    "methods": {
      "getRoleAdmin(bytes32)": {
        "details": "Returns the admin role that controls `role`. See {grantRole} and {revokeRole}. To change a role's admin, use {_setRoleAdmin}."
      },
      "grantRole(bytes32,address)": {
        "details": "Grants `role` to `account`. If `account` had not been already granted `role`, emits a {RoleGranted} event. Requirements: - the caller must have ``role``'s admin role. May emit a {RoleGranted} event."
      },
      "hasRole(bytes32,address)": {
        "details": "Returns `true` if `account` has been granted `role`."
      },
      "renounceRole(bytes32,address)": {
        "details": "Revokes `role` from the calling account. Roles are often managed via {grantRole} and {revokeRole}: this function's purpose is to provide a mechanism for accounts to lose their privileges if they are compromised (such as when a trusted device is misplaced). If the calling account had been revoked `role`, emits a {RoleRevoked} event. Requirements: - the caller must be `callerConfirmation`. May emit a {RoleRevoked} event."
      },
      "revokeRole(bytes32,address)": {
        "details": "Revokes `role` from `account`. If `account` had been granted `role`, emits a {RoleRevoked} event. Requirements: - the caller must have ``role``'s admin role. May emit a {RoleRevoked} event."
      },
      "supportsInterface(bytes4)": {
        "details": "See {IERC165-supportsInterface}."
      }
    },
    "version": 1
  },
  "userdoc": {
    "kind": "user",
    "methods": {},
    "version": 1
  },
  "storageLayout": {
    "storage": [
      {
        "astId": 1430,
        "contract": "contracts/strategies/RetroFunding.sol:RetroFunding",
        "label": "_initialized",
        "offset": 0,
        "slot": "0",
        "type": "t_bool"
      },
      {
        "astId": 1433,
        "contract": "contracts/strategies/RetroFunding.sol:RetroFunding",
        "label": "config",
        "offset": 0,
        "slot": "1",
        "type": "t_struct(PoolConfig)1276_storage"
      },
      {
        "astId": 1438,
        "contract": "contracts/strategies/RetroFunding.sol:RetroFunding",
        "label": "registrations",
        "offset": 0,
        "slot": "8",
        "type": "t_mapping(t_address,t_struct(Registration)1290_storage)"
      },
      {
        "astId": 26,
        "contract": "contracts/strategies/RetroFunding.sol:RetroFunding",
        "label": "_roles",
        "offset": 0,
        "slot": "9",
        "type": "t_mapping(t_bytes32,t_struct(RoleData)21_storage)"
      },
      {
        "astId": 1161,
        "contract": "contracts/strategies/RetroFunding.sol:RetroFunding",
        "label": "_status",
        "offset": 0,
        "slot": "10",
        "type": "t_uint256"
      }
    ],
    "types": {
      "t_address": {
        "encoding": "inplace",
        "label": "address",
        "numberOfBytes": "20"
      },
      "t_array(t_address)dyn_storage": {
        "base": "t_address",
        "encoding": "dynamic_array",
        "label": "address[]",
        "numberOfBytes": "32"
      },
      "t_array(t_uint64)dyn_storage": {
        "base": "t_uint64",
        "encoding": "dynamic_array",
        "label": "uint64[]",
        "numberOfBytes": "32"
      },
      "t_bool": {
        "encoding": "inplace",
        "label": "bool",
        "numberOfBytes": "1"
      },
      "t_bytes32": {
        "encoding": "inplace",
        "label": "bytes32",
        "numberOfBytes": "32"
      },
      "t_bytes_storage": {
        "encoding": "bytes",
        "label": "bytes",
        "numberOfBytes": "32"
      },
      "t_enum(Status)1280": {
        "encoding": "inplace",
        "label": "enum IPool.Status",
        "numberOfBytes": "1"
      },
      "t_mapping(t_address,t_bool)": {
        "encoding": "mapping",
        "key": "t_address",
        "label": "mapping(address => bool)",
        "numberOfBytes": "32",
        "value": "t_bool"
      },
      "t_mapping(t_address,t_struct(Registration)1290_storage)": {
        "encoding": "mapping",
        "key": "t_address",
        "label": "mapping(address => struct IPool.Registration)",
        "numberOfBytes": "32",
        "value": "t_struct(Registration)1290_storage"
      },
      "t_mapping(t_bytes32,t_struct(RoleData)21_storage)": {
        "encoding": "mapping",
        "key": "t_bytes32",
        "label": "mapping(bytes32 => struct AccessControl.RoleData)",
        "numberOfBytes": "32",
        "value": "t_struct(RoleData)21_storage"
      },
      "t_string_storage": {
        "encoding": "bytes",
        "label": "string",
        "numberOfBytes": "32"
      },
      "t_struct(PoolConfig)1276_storage": {
        "encoding": "inplace",
        "label": "struct PoolConfig",
        "members": [
          {
            "astId": 1261,
            "contract": "contracts/strategies/RetroFunding.sol:RetroFunding",
            "label": "owner",
            "offset": 0,
            "slot": "0",
            "type": "t_address"
          },
          {
            "astId": 1264,
            "contract": "contracts/strategies/RetroFunding.sol:RetroFunding",
            "label": "admins",
            "offset": 0,
            "slot": "1",
            "type": "t_array(t_address)dyn_storage"
          },
          {
            "astId": 1266,
            "contract": "contracts/strategies/RetroFunding.sol:RetroFunding",
            "label": "allocationToken",
            "offset": 0,
            "slot": "2",
            "type": "t_address"
          },
          {
            "astId": 1268,
            "contract": "contracts/strategies/RetroFunding.sol:RetroFunding",
            "label": "distributionToken",
            "offset": 0,
            "slot": "3",
            "type": "t_address"
          },
          {
            "astId": 1270,
            "contract": "contracts/strategies/RetroFunding.sol:RetroFunding",
            "label": "maxAmount",
            "offset": 0,
            "slot": "4",
            "type": "t_uint256"
          },
          {
            "astId": 1273,
            "contract": "contracts/strategies/RetroFunding.sol:RetroFunding",
            "label": "timestamps",
            "offset": 0,
            "slot": "5",
            "type": "t_array(t_uint64)dyn_storage"
          },
          {
            "astId": 1275,
            "contract": "contracts/strategies/RetroFunding.sol:RetroFunding",
            "label": "metadataURI",
            "offset": 0,
            "slot": "6",
            "type": "t_string_storage"
          }
        ],
        "numberOfBytes": "224"
      },
      "t_struct(Registration)1290_storage": {
        "encoding": "inplace",
        "label": "struct IPool.Registration",
        "members": [
          {
            "astId": 1283,
            "contract": "contracts/strategies/RetroFunding.sol:RetroFunding",
            "label": "status",
            "offset": 0,
            "slot": "0",
            "type": "t_enum(Status)1280"
          },
          {
            "astId": 1285,
            "contract": "contracts/strategies/RetroFunding.sol:RetroFunding",
            "label": "owner",
            "offset": 1,
            "slot": "0",
            "type": "t_address"
          },
          {
            "astId": 1287,
            "contract": "contracts/strategies/RetroFunding.sol:RetroFunding",
            "label": "metadataURI",
            "offset": 0,
            "slot": "1",
            "type": "t_string_storage"
          },
          {
            "astId": 1289,
            "contract": "contracts/strategies/RetroFunding.sol:RetroFunding",
            "label": "data",
            "offset": 0,
            "slot": "2",
            "type": "t_bytes_storage"
          }
        ],
        "numberOfBytes": "96"
      },
      "t_struct(RoleData)21_storage": {
        "encoding": "inplace",
        "label": "struct AccessControl.RoleData",
        "members": [
          {
            "astId": 18,
            "contract": "contracts/strategies/RetroFunding.sol:RetroFunding",
            "label": "hasRole",
            "offset": 0,
            "slot": "0",
            "type": "t_mapping(t_address,t_bool)"
          },
          {
            "astId": 20,
            "contract": "contracts/strategies/RetroFunding.sol:RetroFunding",
            "label": "adminRole",
            "offset": 0,
            "slot": "1",
            "type": "t_bytes32"
          }
        ],
        "numberOfBytes": "64"
      },
      "t_uint256": {
        "encoding": "inplace",
        "label": "uint256",
        "numberOfBytes": "32"
      },
      "t_uint64": {
        "encoding": "inplace",
        "label": "uint64",
        "numberOfBytes": "8"
      }
    }
  }
}